{
  "contractName": "NftMarathon",
  "abi": [
    {
      "inputs": [],
      "stateMutability": "nonpayable",
      "type": "constructor"
    },
    {
      "anonymous": false,
      "inputs": [
        {
          "indexed": true,
          "internalType": "address",
          "name": "owner",
          "type": "address"
        },
        {
          "indexed": true,
          "internalType": "address",
          "name": "approved",
          "type": "address"
        },
        {
          "indexed": true,
          "internalType": "uint256",
          "name": "tokenId",
          "type": "uint256"
        }
      ],
      "name": "Approval",
      "type": "event"
    },
    {
      "anonymous": false,
      "inputs": [
        {
          "indexed": true,
          "internalType": "address",
          "name": "owner",
          "type": "address"
        },
        {
          "indexed": true,
          "internalType": "address",
          "name": "operator",
          "type": "address"
        },
        {
          "indexed": false,
          "internalType": "bool",
          "name": "approved",
          "type": "bool"
        }
      ],
      "name": "ApprovalForAll",
      "type": "event"
    },
    {
      "anonymous": false,
      "inputs": [
        {
          "indexed": true,
          "internalType": "address",
          "name": "from",
          "type": "address"
        },
        {
          "indexed": true,
          "internalType": "address",
          "name": "to",
          "type": "address"
        },
        {
          "indexed": true,
          "internalType": "uint256",
          "name": "tokenId",
          "type": "uint256"
        }
      ],
      "name": "Transfer",
      "type": "event"
    },
    {
      "inputs": [],
      "name": "_baseURI",
      "outputs": [
        {
          "internalType": "string",
          "name": "",
          "type": "string"
        }
      ],
      "stateMutability": "view",
      "type": "function",
      "constant": true
    },
    {
      "inputs": [],
      "name": "mintUniqueToken",
      "outputs": [
        {
          "internalType": "uint256",
          "name": "",
          "type": "uint256"
        }
      ],
      "stateMutability": "nonpayable",
      "type": "function"
    },
    {
      "inputs": [
        {
          "internalType": "string",
          "name": "_data",
          "type": "string"
        }
      ],
      "name": "mintUniqueTokenWithData",
      "outputs": [
        {
          "internalType": "uint256",
          "name": "",
          "type": "uint256"
        }
      ],
      "stateMutability": "nonpayable",
      "type": "function"
    },
    {
      "inputs": [],
      "name": "getAllNftObjects",
      "outputs": [
        {
          "components": [
            {
              "internalType": "string",
              "name": "data",
              "type": "string"
            },
            {
              "internalType": "address",
              "name": "holder",
              "type": "address"
            },
            {
              "internalType": "uint256",
              "name": "tokenId",
              "type": "uint256"
            }
          ],
          "internalType": "struct NftMarathon.NftObject[]",
          "name": "",
          "type": "tuple[]"
        }
      ],
      "stateMutability": "view",
      "type": "function",
      "constant": true
    },
    {
      "inputs": [],
      "name": "getAll",
      "outputs": [
        {
          "internalType": "address[]",
          "name": "",
          "type": "address[]"
        }
      ],
      "stateMutability": "view",
      "type": "function",
      "constant": true
    },
    {
      "inputs": [],
      "name": "getAll2",
      "outputs": [
        {
          "internalType": "uint256[]",
          "name": "",
          "type": "uint256[]"
        }
      ],
      "stateMutability": "view",
      "type": "function",
      "constant": true
    },
    {
      "inputs": [],
      "name": "getAll3",
      "outputs": [
        {
          "internalType": "uint256",
          "name": "",
          "type": "uint256"
        }
      ],
      "stateMutability": "view",
      "type": "function",
      "constant": true
    },
    {
      "inputs": [
        {
          "internalType": "uint256",
          "name": "_value",
          "type": "uint256"
        }
      ],
      "name": "setValue",
      "outputs": [],
      "stateMutability": "nonpayable",
      "type": "function"
    },
    {
      "inputs": [],
      "name": "getValue",
      "outputs": [
        {
          "internalType": "uint256",
          "name": "",
          "type": "uint256"
        }
      ],
      "stateMutability": "view",
      "type": "function",
      "constant": true
    },
    {
      "inputs": [
        {
          "internalType": "bytes4",
          "name": "interfaceId",
          "type": "bytes4"
        }
      ],
      "name": "supportsInterface",
      "outputs": [
        {
          "internalType": "bool",
          "name": "",
          "type": "bool"
        }
      ],
      "stateMutability": "view",
      "type": "function",
      "constant": true
    },
    {
      "inputs": [
        {
          "internalType": "address",
          "name": "owner",
          "type": "address"
        }
      ],
      "name": "balanceOf",
      "outputs": [
        {
          "internalType": "uint256",
          "name": "",
          "type": "uint256"
        }
      ],
      "stateMutability": "view",
      "type": "function",
      "constant": true
    },
    {
      "inputs": [
        {
          "internalType": "uint256",
          "name": "tokenId",
          "type": "uint256"
        }
      ],
      "name": "ownerOf",
      "outputs": [
        {
          "internalType": "address",
          "name": "",
          "type": "address"
        }
      ],
      "stateMutability": "view",
      "type": "function",
      "constant": true
    },
    {
      "inputs": [],
      "name": "name",
      "outputs": [
        {
          "internalType": "string",
          "name": "",
          "type": "string"
        }
      ],
      "stateMutability": "view",
      "type": "function",
      "constant": true
    },
    {
      "inputs": [],
      "name": "symbol",
      "outputs": [
        {
          "internalType": "string",
          "name": "",
          "type": "string"
        }
      ],
      "stateMutability": "view",
      "type": "function",
      "constant": true
    },
    {
      "inputs": [
        {
          "internalType": "uint256",
          "name": "tokenId",
          "type": "uint256"
        }
      ],
      "name": "tokenURI",
      "outputs": [
        {
          "internalType": "string",
          "name": "",
          "type": "string"
        }
      ],
      "stateMutability": "view",
      "type": "function",
      "constant": true
    },
    {
      "inputs": [
        {
          "internalType": "address",
          "name": "to",
          "type": "address"
        },
        {
          "internalType": "uint256",
          "name": "tokenId",
          "type": "uint256"
        }
      ],
      "name": "approve",
      "outputs": [],
      "stateMutability": "nonpayable",
      "type": "function"
    },
    {
      "inputs": [
        {
          "internalType": "uint256",
          "name": "tokenId",
          "type": "uint256"
        }
      ],
      "name": "getApproved",
      "outputs": [
        {
          "internalType": "address",
          "name": "",
          "type": "address"
        }
      ],
      "stateMutability": "view",
      "type": "function",
      "constant": true
    },
    {
      "inputs": [
        {
          "internalType": "address",
          "name": "operator",
          "type": "address"
        },
        {
          "internalType": "bool",
          "name": "approved",
          "type": "bool"
        }
      ],
      "name": "setApprovalForAll",
      "outputs": [],
      "stateMutability": "nonpayable",
      "type": "function"
    },
    {
      "inputs": [
        {
          "internalType": "address",
          "name": "owner",
          "type": "address"
        },
        {
          "internalType": "address",
          "name": "operator",
          "type": "address"
        }
      ],
      "name": "isApprovedForAll",
      "outputs": [
        {
          "internalType": "bool",
          "name": "",
          "type": "bool"
        }
      ],
      "stateMutability": "view",
      "type": "function",
      "constant": true
    },
    {
      "inputs": [
        {
          "internalType": "address",
          "name": "from",
          "type": "address"
        },
        {
          "internalType": "address",
          "name": "to",
          "type": "address"
        },
        {
          "internalType": "uint256",
          "name": "tokenId",
          "type": "uint256"
        }
      ],
      "name": "transferFrom",
      "outputs": [],
      "stateMutability": "nonpayable",
      "type": "function"
    },
    {
      "inputs": [
        {
          "internalType": "address",
          "name": "from",
          "type": "address"
        },
        {
          "internalType": "address",
          "name": "to",
          "type": "address"
        },
        {
          "internalType": "uint256",
          "name": "tokenId",
          "type": "uint256"
        }
      ],
      "name": "safeTransferFrom",
      "outputs": [],
      "stateMutability": "nonpayable",
      "type": "function"
    },
    {
      "inputs": [
        {
          "internalType": "address",
          "name": "from",
          "type": "address"
        },
        {
          "internalType": "address",
          "name": "to",
          "type": "address"
        },
        {
          "internalType": "uint256",
          "name": "tokenId",
          "type": "uint256"
        },
        {
          "internalType": "bytes",
          "name": "_data",
          "type": "bytes"
        }
      ],
      "name": "safeTransferFrom",
      "outputs": [],
      "stateMutability": "nonpayable",
      "type": "function"
    }
  ],
  "bytecode": "0x6080604052621ed3736008553480156200001857600080fd5b506040518060400160405280600b81526020017f4e66744d61726174686f6e0000000000000000000000000000000000000000008152506000908051906020019062000066929190620000bb565b506040518060400160405280600681526020017f4e4654414453000000000000000000000000000000000000000000000000000081525060019080519060200190620000b4929190620000bb565b50620001d0565b828054620000c9906200016b565b90600052602060002090601f016020900481019282620000ed576000855562000139565b82601f106200010857805160ff191683800117855562000139565b8280016001018555821562000139579182015b82811115620001385782518255916020019190600101906200011b565b5b5090506200014891906200014c565b5090565b5b80821115620001675760008160009055506001016200014d565b5090565b600060028204905060018216806200018457607f821691505b602082108114156200019b576200019a620001a1565b5b50919050565b7f4e487b7100000000000000000000000000000000000000000000000000000000600052602260045260246000fd5b6130b880620001e06000396000f3fe608060405234801561001057600080fd5b50600436106101425760003560e01c80636352211e116100b8578063a22cb4651161007c578063a22cb46514610379578063b21cb60714610395578063b88d4fde146103b3578063c87b56dd146103cf578063e985e9c5146103ff578063f1b4231c1461042f57610142565b80636352211e146102ad57806370a08231146102dd578063743976a01461030d57806395d89b411461032b5780639f02a9061461034957610142565b806323b872dd1161010a57806323b872dd146101ff5780632b829ee61461021b5780633f27bdb01461023957806342842e0e1461025757806353ed514314610273578063552410771461029157610142565b806301ffc9a71461014757806306fdde0314610177578063081812fc14610195578063095ea7b3146101c557806320965255146101e1575b600080fd5b610161600480360381019061015c9190611fd9565b61044d565b60405161016e9190612994565b60405180910390f35b61017f61052f565b60405161018c91906129af565b60405180910390f35b6101af60048036038101906101aa919061206c565b6105c1565b6040516101bc91906128c7565b60405180910390f35b6101df60048036038101906101da9190611f9d565b610646565b005b6101e961075e565b6040516101f69190612b91565b60405180910390f35b61021960048036038101906102149190611e97565b610768565b005b6102236107c8565b6040516102309190612b91565b60405180910390f35b6102416107d2565b60405161024e9190612950565b60405180910390f35b610271600480360381019061026c9190611e97565b610923565b005b61027b610943565b604051610288919061292e565b60405180910390f35b6102ab60048036038101906102a6919061206c565b610a89565b005b6102c760048036038101906102c2919061206c565b610a93565b6040516102d491906128c7565b60405180910390f35b6102f760048036038101906102f29190611e32565b610b45565b6040516103049190612b91565b60405180910390f35b610315610bfd565b60405161032291906129af565b60405180910390f35b610333610c3a565b60405161034091906129af565b60405180910390f35b610363600480360381019061035e919061202b565b610ccc565b6040516103709190612b91565b60405180910390f35b610393600480360381019061038e9190611f61565b610dd0565b005b61039d610f51565b6040516103aa9190612972565b60405180910390f35b6103cd60048036038101906103c89190611ee6565b611034565b005b6103e960048036038101906103e4919061206c565b611096565b6040516103f691906129af565b60405180910390f35b61041960048036038101906104149190611e5b565b61113d565b6040516104269190612994565b60405180910390f35b6104376111d1565b6040516104449190612b91565b60405180910390f35b60007f80ac58cd000000000000000000000000000000000000000000000000000000007bffffffffffffffffffffffffffffffffffffffffffffffffffffffff1916827bffffffffffffffffffffffffffffffffffffffffffffffffffffffff1916148061051857507f5b5e139f000000000000000000000000000000000000000000000000000000007bffffffffffffffffffffffffffffffffffffffffffffffffffffffff1916827bffffffffffffffffffffffffffffffffffffffffffffffffffffffff1916145b806105285750610527826111ff565b5b9050919050565b60606000805461053e90612ead565b80601f016020809104026020016040519081016040528092919081815260200182805461056a90612ead565b80156105b75780601f1061058c576101008083540402835291602001916105b7565b820191906000526020600020905b81548152906001019060200180831161059a57829003601f168201915b5050505050905090565b60006105cc82611269565b61060b576040517f08c379a000000000000000000000000000000000000000000000000000000000815260040161060290612af1565b60405180910390fd5b6005600083815260200190815260200160002060009054906101000a900473ffffffffffffffffffffffffffffffffffffffff169050919050565b600061065182610a93565b90508073ffffffffffffffffffffffffffffffffffffffff168373ffffffffffffffffffffffffffffffffffffffff1614156106c2576040517f08c379a00000000000000000000000000000000000000000000000000000000081526004016106b990612b51565b60405180910390fd5b8073ffffffffffffffffffffffffffffffffffffffff166106e16112d5565b73ffffffffffffffffffffffffffffffffffffffff161480610710575061070f8161070a6112d5565b61113d565b5b61074f576040517f08c379a000000000000000000000000000000000000000000000000000000000815260040161074690612a71565b60405180910390fd5b61075983836112dd565b505050565b6000600854905090565b6107796107736112d5565b82611396565b6107b8576040517f08c379a00000000000000000000000000000000000000000000000000000000081526004016107af90612b71565b60405180910390fd5b6107c3838383611474565b505050565b60006107d0905090565b60606002805480602002602001604051908101604052809291908181526020016000905b8282101561091a578382906000526020600020906003020160405180606001604052908160008201805461082990612ead565b80601f016020809104026020016040519081016040528092919081815260200182805461085590612ead565b80156108a25780601f10610877576101008083540402835291602001916108a2565b820191906000526020600020905b81548152906001019060200180831161088557829003601f168201915b505050505081526020016001820160009054906101000a900473ffffffffffffffffffffffffffffffffffffffff1673ffffffffffffffffffffffffffffffffffffffff1673ffffffffffffffffffffffffffffffffffffffff168152602001600282015481525050815260200190600101906107f6565b50505050905090565b61093e83838360405180602001604052806000815250611034565b505050565b6060600060075467ffffffffffffffff811115610989577f4e487b7100000000000000000000000000000000000000000000000000000000600052604160045260246000fd5b6040519080825280602002602001820160405280156109b75781602001602082028036833780820191505090505b50905060005b600754811015610a81576003600082815260200190815260200160002060009054906101000a900473ffffffffffffffffffffffffffffffffffffffff16828281518110610a34577f4e487b7100000000000000000000000000000000000000000000000000000000600052603260045260246000fd5b602002602001019073ffffffffffffffffffffffffffffffffffffffff16908173ffffffffffffffffffffffffffffffffffffffff16815250508080610a7990612edf565b9150506109bd565b508091505090565b8060088190555050565b6000806003600084815260200190815260200160002060009054906101000a900473ffffffffffffffffffffffffffffffffffffffff169050600073ffffffffffffffffffffffffffffffffffffffff168173ffffffffffffffffffffffffffffffffffffffff161415610b3c576040517f08c379a0000000000000000000000000000000000000000000000000000000008152600401610b3390612ab1565b60405180910390fd5b80915050919050565b60008073ffffffffffffffffffffffffffffffffffffffff168273ffffffffffffffffffffffffffffffffffffffff161415610bb6576040517f08c379a0000000000000000000000000000000000000000000000000000000008152600401610bad90612a91565b60405180910390fd5b600460008373ffffffffffffffffffffffffffffffffffffffff1673ffffffffffffffffffffffffffffffffffffffff168152602001908152602001600020549050919050565b60606040518060400160405280601e81526020017f687474703a2f2f6e66746d61726174686f6e2e78797a2f746f6b656e732f0000815250905090565b606060018054610c4990612ead565b80601f0160208091040260200160405190810160405280929190818152602001828054610c7590612ead565b8015610cc25780601f10610c9757610100808354040283529160200191610cc2565b820191906000526020600020905b815481529060010190602001808311610ca557829003601f168201915b5050505050905090565b600060076000815480929190610ce190612edf565b9190505550610cf2336007546116d0565b600060405180606001604052808481526020013373ffffffffffffffffffffffffffffffffffffffff168152602001600754815250905060028190806001815401808255809150506001900390600052602060002090600302016000909190919091506000820151816000019080519060200190610d71929190611c56565b5060208201518160010160006101000a81548173ffffffffffffffffffffffffffffffffffffffff021916908373ffffffffffffffffffffffffffffffffffffffff160217905550604082015181600201555050600754915050919050565b610dd86112d5565b73ffffffffffffffffffffffffffffffffffffffff168273ffffffffffffffffffffffffffffffffffffffff161415610e46576040517f08c379a0000000000000000000000000000000000000000000000000000000008152600401610e3d90612a31565b60405180910390fd5b8060066000610e536112d5565b73ffffffffffffffffffffffffffffffffffffffff1673ffffffffffffffffffffffffffffffffffffffff16815260200190815260200160002060008473ffffffffffffffffffffffffffffffffffffffff1673ffffffffffffffffffffffffffffffffffffffff16815260200190815260200160002060006101000a81548160ff0219169083151502179055508173ffffffffffffffffffffffffffffffffffffffff16610f006112d5565b73ffffffffffffffffffffffffffffffffffffffff167f17307eab39ab6107e8899845ad3d59bd9653f200f220920489ca2b5937696c3183604051610f459190612994565b60405180910390a35050565b60606000601467ffffffffffffffff811115610f96577f4e487b7100000000000000000000000000000000000000000000000000000000600052604160045260246000fd5b604051908082528060200260200182016040528015610fc45781602001602082028036833780820191505090505b50905060005b600a81101561102c578082828151811061100d577f4e487b7100000000000000000000000000000000000000000000000000000000600052603260045260246000fd5b602002602001018181525050808061102490612edf565b915050610fca565b508091505090565b61104561103f6112d5565b83611396565b611084576040517f08c379a000000000000000000000000000000000000000000000000000000000815260040161107b90612b71565b60405180910390fd5b6110908484848461189e565b50505050565b60606110a182611269565b6110e0576040517f08c379a00000000000000000000000000000000000000000000000000000000081526004016110d790612b31565b60405180910390fd5b60006110ea610bfd565b9050600081511161110a5760405180602001604052806000815250611135565b80611114846118fa565b6040516020016111259291906128a3565b6040516020818303038152906040525b915050919050565b6000600660008473ffffffffffffffffffffffffffffffffffffffff1673ffffffffffffffffffffffffffffffffffffffff16815260200190815260200160002060008373ffffffffffffffffffffffffffffffffffffffff1673ffffffffffffffffffffffffffffffffffffffff16815260200190815260200160002060009054906101000a900460ff16905092915050565b6000600760008154809291906111e690612edf565b91905055506111f7336007546116d0565b600754905090565b60007f01ffc9a7000000000000000000000000000000000000000000000000000000007bffffffffffffffffffffffffffffffffffffffffffffffffffffffff1916827bffffffffffffffffffffffffffffffffffffffffffffffffffffffff1916149050919050565b60008073ffffffffffffffffffffffffffffffffffffffff166003600084815260200190815260200160002060009054906101000a900473ffffffffffffffffffffffffffffffffffffffff1673ffffffffffffffffffffffffffffffffffffffff1614159050919050565b600033905090565b816005600083815260200190815260200160002060006101000a81548173ffffffffffffffffffffffffffffffffffffffff021916908373ffffffffffffffffffffffffffffffffffffffff160217905550808273ffffffffffffffffffffffffffffffffffffffff1661135083610a93565b73ffffffffffffffffffffffffffffffffffffffff167f8c5be1e5ebec7d5bd14f71427d1e84f3dd0314c0f7b2291e5b200ac8c7c3b92560405160405180910390a45050565b60006113a182611269565b6113e0576040517f08c379a00000000000000000000000000000000000000000000000000000000081526004016113d790612a51565b60405180910390fd5b60006113eb83610a93565b90508073ffffffffffffffffffffffffffffffffffffffff168473ffffffffffffffffffffffffffffffffffffffff16148061145a57508373ffffffffffffffffffffffffffffffffffffffff16611442846105c1565b73ffffffffffffffffffffffffffffffffffffffff16145b8061146b575061146a818561113d565b5b91505092915050565b8273ffffffffffffffffffffffffffffffffffffffff1661149482610a93565b73ffffffffffffffffffffffffffffffffffffffff16146114ea576040517f08c379a00000000000000000000000000000000000000000000000000000000081526004016114e190612b11565b60405180910390fd5b600073ffffffffffffffffffffffffffffffffffffffff168273ffffffffffffffffffffffffffffffffffffffff16141561155a576040517f08c379a000000000000000000000000000000000000000000000000000000000815260040161155190612a11565b60405180910390fd5b611565838383611aa7565b6115706000826112dd565b6001600460008573ffffffffffffffffffffffffffffffffffffffff1673ffffffffffffffffffffffffffffffffffffffff16815260200190815260200160002060008282546115c09190612dc3565b925050819055506001600460008473ffffffffffffffffffffffffffffffffffffffff1673ffffffffffffffffffffffffffffffffffffffff16815260200190815260200160002060008282546116179190612d3c565b92505081905550816003600083815260200190815260200160002060006101000a81548173ffffffffffffffffffffffffffffffffffffffff021916908373ffffffffffffffffffffffffffffffffffffffff160217905550808273ffffffffffffffffffffffffffffffffffffffff168473ffffffffffffffffffffffffffffffffffffffff167fddf252ad1be2c89b69c2b068fc378daa952ba7f163c4a11628f55a4df523b3ef60405160405180910390a4505050565b600073ffffffffffffffffffffffffffffffffffffffff168273ffffffffffffffffffffffffffffffffffffffff161415611740576040517f08c379a000000000000000000000000000000000000000000000000000000000815260040161173790612ad1565b60405180910390fd5b61174981611269565b15611789576040517f08c379a0000000000000000000000000000000000000000000000000000000008152600401611780906129f1565b60405180910390fd5b61179560008383611aa7565b6001600460008473ffffffffffffffffffffffffffffffffffffffff1673ffffffffffffffffffffffffffffffffffffffff16815260200190815260200160002060008282546117e59190612d3c565b92505081905550816003600083815260200190815260200160002060006101000a81548173ffffffffffffffffffffffffffffffffffffffff021916908373ffffffffffffffffffffffffffffffffffffffff160217905550808273ffffffffffffffffffffffffffffffffffffffff16600073ffffffffffffffffffffffffffffffffffffffff167fddf252ad1be2c89b69c2b068fc378daa952ba7f163c4a11628f55a4df523b3ef60405160405180910390a45050565b6118a9848484611474565b6118b584848484611aac565b6118f4576040517f08c379a00000000000000000000000000000000000000000000000000000000081526004016118eb906129d1565b60405180910390fd5b50505050565b60606000821415611942576040518060400160405280600181526020017f30000000000000000000000000000000000000000000000000000000000000008152509050611aa2565b600082905060005b6000821461197457808061195d90612edf565b915050600a8261196d9190612d92565b915061194a565b60008167ffffffffffffffff8111156119b6577f4e487b7100000000000000000000000000000000000000000000000000000000600052604160045260246000fd5b6040519080825280601f01601f1916602001820160405280156119e85781602001600182028036833780820191505090505b5090505b60008514611a9b57600182611a019190612dc3565b9150600a85611a109190612f28565b6030611a1c9190612d3c565b60f81b818381518110611a58577f4e487b7100000000000000000000000000000000000000000000000000000000600052603260045260246000fd5b60200101907effffffffffffffffffffffffffffffffffffffffffffffffffffffffffffff1916908160001a905350600a85611a949190612d92565b94506119ec565b8093505050505b919050565b505050565b6000611acd8473ffffffffffffffffffffffffffffffffffffffff16611c43565b15611c36578373ffffffffffffffffffffffffffffffffffffffff1663150b7a02611af66112d5565b8786866040518563ffffffff1660e01b8152600401611b1894939291906128e2565b602060405180830381600087803b158015611b3257600080fd5b505af1925050508015611b6357506040513d601f19601f82011682018060405250810190611b609190612002565b60015b611be6573d8060008114611b93576040519150601f19603f3d011682016040523d82523d6000602084013e611b98565b606091505b50600081511415611bde576040517f08c379a0000000000000000000000000000000000000000000000000000000008152600401611bd5906129d1565b60405180910390fd5b805181602001fd5b63150b7a0260e01b7bffffffffffffffffffffffffffffffffffffffffffffffffffffffff1916817bffffffffffffffffffffffffffffffffffffffffffffffffffffffff191614915050611c3b565b600190505b949350505050565b600080823b905060008111915050919050565b828054611c6290612ead565b90600052602060002090601f016020900481019282611c845760008555611ccb565b82601f10611c9d57805160ff1916838001178555611ccb565b82800160010185558215611ccb579182015b82811115611cca578251825591602001919060010190611caf565b5b509050611cd89190611cdc565b5090565b5b80821115611cf5576000816000905550600101611cdd565b5090565b6000611d0c611d0784612bdd565b612bac565b905082815260208101848484011115611d2457600080fd5b611d2f848285612e6b565b509392505050565b6000611d4a611d4584612c0d565b612bac565b905082815260208101848484011115611d6257600080fd5b611d6d848285612e6b565b509392505050565b600081359050611d8481613026565b92915050565b600081359050611d998161303d565b92915050565b600081359050611dae81613054565b92915050565b600081519050611dc381613054565b92915050565b600082601f830112611dda57600080fd5b8135611dea848260208601611cf9565b91505092915050565b600082601f830112611e0457600080fd5b8135611e14848260208601611d37565b91505092915050565b600081359050611e2c8161306b565b92915050565b600060208284031215611e4457600080fd5b6000611e5284828501611d75565b91505092915050565b60008060408385031215611e6e57600080fd5b6000611e7c85828601611d75565b9250506020611e8d85828601611d75565b9150509250929050565b600080600060608486031215611eac57600080fd5b6000611eba86828701611d75565b9350506020611ecb86828701611d75565b9250506040611edc86828701611e1d565b9150509250925092565b60008060008060808587031215611efc57600080fd5b6000611f0a87828801611d75565b9450506020611f1b87828801611d75565b9350506040611f2c87828801611e1d565b925050606085013567ffffffffffffffff811115611f4957600080fd5b611f5587828801611dc9565b91505092959194509250565b60008060408385031215611f7457600080fd5b6000611f8285828601611d75565b9250506020611f9385828601611d8a565b9150509250929050565b60008060408385031215611fb057600080fd5b6000611fbe85828601611d75565b9250506020611fcf85828601611e1d565b9150509250929050565b600060208284031215611feb57600080fd5b6000611ff984828501611d9f565b91505092915050565b60006020828403121561201457600080fd5b600061202284828501611db4565b91505092915050565b60006020828403121561203d57600080fd5b600082013567ffffffffffffffff81111561205757600080fd5b61206384828501611df3565b91505092915050565b60006020828403121561207e57600080fd5b600061208c84828501611e1d565b91505092915050565b60006120a183836120d9565b60208301905092915050565b60006120b98383612835565b905092915050565b60006120cd8383612885565b60208301905092915050565b6120e281612df7565b82525050565b6120f181612df7565b82525050565b600061210282612c6d565b61210c8185612ccb565b935061211783612c3d565b8060005b8381101561214857815161212f8882612095565b975061213a83612ca4565b92505060018101905061211b565b5085935050505092915050565b600061216082612c78565b61216a8185612cdc565b93508360208202850161217c85612c4d565b8060005b858110156121b8578484038952815161219985826120ad565b94506121a483612cb1565b925060208a01995050600181019050612180565b50829750879550505050505092915050565b60006121d582612c83565b6121df8185612ced565b93506121ea83612c5d565b8060005b8381101561221b57815161220288826120c1565b975061220d83612cbe565b9250506001810190506121ee565b5085935050505092915050565b61223181612e09565b82525050565b600061224282612c8e565b61224c8185612cfe565b935061225c818560208601612e7a565b61226581613015565b840191505092915050565b600061227b82612c99565b6122858185612d0f565b9350612295818560208601612e7a565b61229e81613015565b840191505092915050565b60006122b482612c99565b6122be8185612d20565b93506122ce818560208601612e7a565b6122d781613015565b840191505092915050565b60006122ed82612c99565b6122f78185612d31565b9350612307818560208601612e7a565b80840191505092915050565b6000612320603283612d20565b91507f4552433732313a207472616e7366657220746f206e6f6e20455243373231526560008301527f63656976657220696d706c656d656e74657200000000000000000000000000006020830152604082019050919050565b6000612386601c83612d20565b91507f4552433732313a20746f6b656e20616c7265616479206d696e746564000000006000830152602082019050919050565b60006123c6602483612d20565b91507f4552433732313a207472616e7366657220746f20746865207a65726f2061646460008301527f72657373000000000000000000000000000000000000000000000000000000006020830152604082019050919050565b600061242c601983612d20565b91507f4552433732313a20617070726f766520746f2063616c6c6572000000000000006000830152602082019050919050565b600061246c602c83612d20565b91507f4552433732313a206f70657261746f7220717565727920666f72206e6f6e657860008301527f697374656e7420746f6b656e00000000000000000000000000000000000000006020830152604082019050919050565b60006124d2603883612d20565b91507f4552433732313a20617070726f76652063616c6c6572206973206e6f74206f7760008301527f6e6572206e6f7220617070726f76656420666f7220616c6c00000000000000006020830152604082019050919050565b6000612538602a83612d20565b91507f4552433732313a2062616c616e636520717565727920666f7220746865207a6560008301527f726f2061646472657373000000000000000000000000000000000000000000006020830152604082019050919050565b600061259e602983612d20565b91507f4552433732313a206f776e657220717565727920666f72206e6f6e657869737460008301527f656e7420746f6b656e00000000000000000000000000000000000000000000006020830152604082019050919050565b6000612604602083612d20565b91507f4552433732313a206d696e7420746f20746865207a65726f20616464726573736000830152602082019050919050565b6000612644602c83612d20565b91507f4552433732313a20617070726f76656420717565727920666f72206e6f6e657860008301527f697374656e7420746f6b656e00000000000000000000000000000000000000006020830152604082019050919050565b60006126aa602983612d20565b91507f4552433732313a207472616e73666572206f6620746f6b656e2074686174206960008301527f73206e6f74206f776e00000000000000000000000000000000000000000000006020830152604082019050919050565b6000612710602f83612d20565b91507f4552433732314d657461646174613a2055524920717565727920666f72206e6f60008301527f6e6578697374656e7420746f6b656e00000000000000000000000000000000006020830152604082019050919050565b6000612776602183612d20565b91507f4552433732313a20617070726f76616c20746f2063757272656e74206f776e6560008301527f72000000000000000000000000000000000000000000000000000000000000006020830152604082019050919050565b60006127dc603183612d20565b91507f4552433732313a207472616e736665722063616c6c6572206973206e6f74206f60008301527f776e6572206e6f7220617070726f7665640000000000000000000000000000006020830152604082019050919050565b600060608301600083015184820360008601526128528282612270565b915050602083015161286760208601826120d9565b50604083015161287a6040860182612885565b508091505092915050565b61288e81612e61565b82525050565b61289d81612e61565b82525050565b60006128af82856122e2565b91506128bb82846122e2565b91508190509392505050565b60006020820190506128dc60008301846120e8565b92915050565b60006080820190506128f760008301876120e8565b61290460208301866120e8565b6129116040830185612894565b81810360608301526129238184612237565b905095945050505050565b6000602082019050818103600083015261294881846120f7565b905092915050565b6000602082019050818103600083015261296a8184612155565b905092915050565b6000602082019050818103600083015261298c81846121ca565b905092915050565b60006020820190506129a96000830184612228565b92915050565b600060208201905081810360008301526129c981846122a9565b905092915050565b600060208201905081810360008301526129ea81612313565b9050919050565b60006020820190508181036000830152612a0a81612379565b9050919050565b60006020820190508181036000830152612a2a816123b9565b9050919050565b60006020820190508181036000830152612a4a8161241f565b9050919050565b60006020820190508181036000830152612a6a8161245f565b9050919050565b60006020820190508181036000830152612a8a816124c5565b9050919050565b60006020820190508181036000830152612aaa8161252b565b9050919050565b60006020820190508181036000830152612aca81612591565b9050919050565b60006020820190508181036000830152612aea816125f7565b9050919050565b60006020820190508181036000830152612b0a81612637565b9050919050565b60006020820190508181036000830152612b2a8161269d565b9050919050565b60006020820190508181036000830152612b4a81612703565b9050919050565b60006020820190508181036000830152612b6a81612769565b9050919050565b60006020820190508181036000830152612b8a816127cf565b9050919050565b6000602082019050612ba66000830184612894565b92915050565b6000604051905081810181811067ffffffffffffffff82111715612bd357612bd2612fe6565b5b8060405250919050565b600067ffffffffffffffff821115612bf857612bf7612fe6565b5b601f19601f8301169050602081019050919050565b600067ffffffffffffffff821115612c2857612c27612fe6565b5b601f19601f8301169050602081019050919050565b6000819050602082019050919050565b6000819050602082019050919050565b6000819050602082019050919050565b600081519050919050565b600081519050919050565b600081519050919050565b600081519050919050565b600081519050919050565b6000602082019050919050565b6000602082019050919050565b6000602082019050919050565b600082825260208201905092915050565b600082825260208201905092915050565b600082825260208201905092915050565b600082825260208201905092915050565b600082825260208201905092915050565b600082825260208201905092915050565b600081905092915050565b6000612d4782612e61565b9150612d5283612e61565b9250827fffffffffffffffffffffffffffffffffffffffffffffffffffffffffffffffff03821115612d8757612d86612f59565b5b828201905092915050565b6000612d9d82612e61565b9150612da883612e61565b925082612db857612db7612f88565b5b828204905092915050565b6000612dce82612e61565b9150612dd983612e61565b925082821015612dec57612deb612f59565b5b828203905092915050565b6000612e0282612e41565b9050919050565b60008115159050919050565b60007fffffffff0000000000000000000000000000000000000000000000000000000082169050919050565b600073ffffffffffffffffffffffffffffffffffffffff82169050919050565b6000819050919050565b82818337600083830152505050565b60005b83811015612e98578082015181840152602081019050612e7d565b83811115612ea7576000848401525b50505050565b60006002820490506001821680612ec557607f821691505b60208210811415612ed957612ed8612fb7565b5b50919050565b6000612eea82612e61565b91507fffffffffffffffffffffffffffffffffffffffffffffffffffffffffffffffff821415612f1d57612f1c612f59565b5b600182019050919050565b6000612f3382612e61565b9150612f3e83612e61565b925082612f4e57612f4d612f88565b5b828206905092915050565b7f4e487b7100000000000000000000000000000000000000000000000000000000600052601160045260246000fd5b7f4e487b7100000000000000000000000000000000000000000000000000000000600052601260045260246000fd5b7f4e487b7100000000000000000000000000000000000000000000000000000000600052602260045260246000fd5b7f4e487b7100000000000000000000000000000000000000000000000000000000600052604160045260246000fd5b6000601f19601f8301169050919050565b61302f81612df7565b811461303a57600080fd5b50565b61304681612e09565b811461305157600080fd5b50565b61305d81612e15565b811461306857600080fd5b50565b61307481612e61565b811461307f57600080fd5b5056fea26469706673582212204e1dc860c65234ed90f73e1f7184499e945df971eae1bd5e69cfb50e4738924964736f6c63430008000033",
  "immutableReferences": {},
  "source": "pragma solidity ^0.8.0;\n\nimport \"../node_modules/openzeppelin-solidity/contracts/token/ERC721/IERC721.sol\";\nimport \"../node_modules/openzeppelin-solidity/contracts/token/ERC721/IERC721Receiver.sol\";\nimport \"../node_modules/openzeppelin-solidity/contracts/token/ERC721/extensions/IERC721Metadata.sol\";\nimport \"../node_modules/openzeppelin-solidity/contracts/utils/Address.sol\";\nimport \"../node_modules/openzeppelin-solidity/contracts/utils/Context.sol\";\nimport \"../node_modules/openzeppelin-solidity/contracts/utils/Strings.sol\";\nimport \"../node_modules/openzeppelin-solidity/contracts/utils/introspection/ERC165.sol\";\n\n// Based on ERC721.sol\ncontract NftMarathon is Context, ERC165, IERC721, IERC721Metadata {\n  using Address for address;\n  using Strings for uint256;\n  string private _name; // Token name\n  string private _symbol; // Token symbol\n  NftObject[] private _nftObjects; // Mapping from token ID to owner address\n  mapping(uint256 => address) private _owners; // Mapping from token ID to owner address\n  mapping(address => uint256) private _balances; // Mapping owner address to token count\n  mapping(uint256 => address) private _tokenApprovals; // Mapping from token ID to approved address\n  mapping(address => mapping(address => bool)) private _operatorApprovals; // Mapping from owner to operator approvals\n  uint256 private _currentTokenCount;\n\n  struct NftObject {\n    string data;\n    address holder;\n    uint256 tokenId;\n  }\n\n  constructor() public {\n    _name = \"NftMarathon\";\n    _symbol = \"NFTADS\";\n  }\n\n  function _baseURI() public view returns (string memory) {\n    return \"http://nftmarathon.xyz/tokens/\";\n  }\n\n  // Custom accessor to create a unique token\n  function mintUniqueToken() public returns (uint256) {\n    _currentTokenCount++;\n    _mint(msg.sender, _currentTokenCount); // Minting the standard ERC721\n    return _currentTokenCount;\n  }\n\n  function mintUniqueTokenWithData(string memory _data) public returns (uint256) {\n    _currentTokenCount++;\n    _mint(msg.sender, _currentTokenCount); // Minting the standard ERC721\n    NftObject memory newNft = NftObject(_data, msg.sender, _currentTokenCount);\n    _nftObjects.push(newNft);\n    return _currentTokenCount;\n  }\n\n  function getAllNftObjects() public view returns (NftObject[] memory){\n    return _nftObjects;\n  }\n\n\n//\n//  function getOwnersMapping(address _to) public view returns (mapping(uint256 => address) memory) {\n//    return _owners;\n//  }\n\n  function getAll() public view returns (address[] memory){\n    address[] memory ret = new address[](_currentTokenCount);\n    for (uint i = 0; i < _currentTokenCount; i++) {\n      ret[i] = _owners[i];\n    }\n    return ret;\n  }\n\n  function getAll2() public view returns (uint256[] memory){\n    uint256[] memory ret = new uint256[](20);\n    for (uint i = 0; i < 10; i++) {\n      ret[i] = i;\n    }\n    return ret;\n  }\n\n  function getAll3() public view returns (uint256){\n    return 2000;\n  }\n\n  uint256 value = 2020211;\n  function setValue(uint256 _value) public {\n    value = _value;\n  }\n\n  function getValue() view public returns (uint256) {\n    return value;\n  }\n\n\n  /**\n   * @dev See {IERC165-supportsInterface}.\n     */\n  function supportsInterface(bytes4 interfaceId) public view virtual override(ERC165, IERC165) returns (bool) {\n    return\n    interfaceId == type(IERC721).interfaceId ||\n  interfaceId == type(IERC721Metadata).interfaceId ||\n  super.supportsInterface(interfaceId);\n  }\n\n  /**\n   * @dev See {IERC721-balanceOf}.\n     */\n  function balanceOf(address owner) public view virtual override returns (uint256) {\n    require(owner != address(0), \"ERC721: balance query for the zero address\");\n    return _balances[owner];\n  }\n\n  /**\n   * @dev See {IERC721-ownerOf}.\n     */\n  function ownerOf(uint256 tokenId) public view virtual override returns (address) {\n    address owner = _owners[tokenId];\n    require(owner != address(0), \"ERC721: owner query for nonexistent token\");\n    return owner;\n  }\n\n  /**\n   * @dev See {IERC721Metadata-name}.\n     */\n  function name() public view virtual override returns (string memory) {\n    return _name;\n  }\n\n  /**\n   * @dev See {IERC721Metadata-symbol}.\n     */\n  function symbol() public view virtual override returns (string memory) {\n    return _symbol;\n  }\n\n  /**\n   * @dev See {IERC721Metadata-tokenURI}.\n     */\n  function tokenURI(uint256 tokenId) public view virtual override returns (string memory) {\n    require(_exists(tokenId), \"ERC721Metadata: URI query for nonexistent token\");\n\n    string memory baseURI = _baseURI();\n    return bytes(baseURI).length > 0 ? string(abi.encodePacked(baseURI, tokenId.toString())) : \"\";\n  }\n\n\n\n  /**\n   * @dev See {IERC721-approve}.\n     */\n  function approve(address to, uint256 tokenId) public virtual override {\n    address owner = NftMarathon.ownerOf(tokenId);\n    require(to != owner, \"ERC721: approval to current owner\");\n\n    require(\n      _msgSender() == owner || isApprovedForAll(owner, _msgSender()),\n      \"ERC721: approve caller is not owner nor approved for all\"\n    );\n\n    _approve(to, tokenId);\n  }\n\n  /**\n   * @dev See {IERC721-getApproved}.\n     */\n  function getApproved(uint256 tokenId) public view virtual override returns (address) {\n    require(_exists(tokenId), \"ERC721: approved query for nonexistent token\");\n\n    return _tokenApprovals[tokenId];\n  }\n\n  /**\n   * @dev See {IERC721-setApprovalForAll}.\n     */\n  function setApprovalForAll(address operator, bool approved) public virtual override {\n    require(operator != _msgSender(), \"ERC721: approve to caller\");\n\n    _operatorApprovals[_msgSender()][operator] = approved;\n    emit ApprovalForAll(_msgSender(), operator, approved);\n  }\n\n  /**\n   * @dev See {IERC721-isApprovedForAll}.\n     */\n  function isApprovedForAll(address owner, address operator) public view virtual override returns (bool) {\n    return _operatorApprovals[owner][operator];\n  }\n\n  /**\n   * @dev See {IERC721-transferFrom}.\n     */\n  function transferFrom(\n    address from,\n    address to,\n    uint256 tokenId\n  ) public virtual override {\n    //solhint-disable-next-line max-line-length\n    require(_isApprovedOrOwner(_msgSender(), tokenId), \"ERC721: transfer caller is not owner nor approved\");\n\n    _transfer(from, to, tokenId);\n  }\n\n  /**\n   * @dev See {IERC721-safeTransferFrom}.\n     */\n  function safeTransferFrom(\n    address from,\n    address to,\n    uint256 tokenId\n  ) public virtual override {\n    safeTransferFrom(from, to, tokenId, \"\");\n  }\n\n  /**\n   * @dev See {IERC721-safeTransferFrom}.\n     */\n  function safeTransferFrom(\n    address from,\n    address to,\n    uint256 tokenId,\n    bytes memory _data\n  ) public virtual override {\n    require(_isApprovedOrOwner(_msgSender(), tokenId), \"ERC721: transfer caller is not owner nor approved\");\n    _safeTransfer(from, to, tokenId, _data);\n  }\n\n  /**\n   * @dev Safely transfers `tokenId` token from `from` to `to`, checking first that contract recipients\n     * are aware of the ERC721 protocol to prevent tokens from being forever locked.\n     *\n     * `_data` is additional data, it has no specified format and it is sent in call to `to`.\n     *\n     * This internal function is equivalent to {safeTransferFrom}, and can be used to e.g.\n     * implement alternative mechanisms to perform token transfer, such as signature-based.\n     *\n     * Requirements:\n     *\n     * - `from` cannot be the zero address.\n     * - `to` cannot be the zero address.\n     * - `tokenId` token must exist and be owned by `from`.\n     * - If `to` refers to a smart contract, it must implement {IERC721Receiver-onERC721Received}, which is called upon a safe transfer.\n     *\n     * Emits a {Transfer} event.\n     */\n  function _safeTransfer(\n    address from,\n    address to,\n    uint256 tokenId,\n    bytes memory _data\n  ) internal virtual {\n    _transfer(from, to, tokenId);\n    require(_checkOnERC721Received(from, to, tokenId, _data), \"ERC721: transfer to non ERC721Receiver implementer\");\n  }\n\n  /**\n   * @dev Returns whether `tokenId` exists.\n     *\n     * Tokens can be managed by their owner or approved accounts via {approve} or {setApprovalForAll}.\n     *\n     * Tokens start existing when they are minted (`_mint`),\n     * and stop existing when they are burned (`_burn`).\n     */\n  function _exists(uint256 tokenId) internal view virtual returns (bool) {\n    return _owners[tokenId] != address(0);\n  }\n\n  /**\n   * @dev Returns whether `spender` is allowed to manage `tokenId`.\n     *\n     * Requirements:\n     *\n     * - `tokenId` must exist.\n     */\n  function _isApprovedOrOwner(address spender, uint256 tokenId) internal view virtual returns (bool) {\n    require(_exists(tokenId), \"ERC721: operator query for nonexistent token\");\n    address owner = NftMarathon.ownerOf(tokenId);\n    return (spender == owner || getApproved(tokenId) == spender || isApprovedForAll(owner, spender));\n  }\n\n  /**\n   * @dev Safely mints `tokenId` and transfers it to `to`.\n     *\n     * Requirements:\n     *\n     * - `tokenId` must not exist.\n     * - If `to` refers to a smart contract, it must implement {IERC721Receiver-onERC721Received}, which is called upon a safe transfer.\n     *\n     * Emits a {Transfer} event.\n     */\n  function _safeMint(address to, uint256 tokenId) internal virtual {\n    _safeMint(to, tokenId, \"\");\n  }\n\n  /**\n   * @dev Same as {xref-ERC721-_safeMint-address-uint256-}[`_safeMint`], with an additional `data` parameter which is\n     * forwarded in {IERC721Receiver-onERC721Received} to contract recipients.\n     */\n  function _safeMint(\n    address to,\n    uint256 tokenId,\n    bytes memory _data\n  ) internal virtual {\n    _mint(to, tokenId);\n    require(\n      _checkOnERC721Received(address(0), to, tokenId, _data),\n      \"ERC721: transfer to non ERC721Receiver implementer\"\n    );\n  }\n\n  /**\n   * @dev Mints `tokenId` and transfers it to `to`.\n     *\n     * WARNING: Usage of this method is discouraged, use {_safeMint} whenever possible\n     *\n     * Requirements:\n     *\n     * - `tokenId` must not exist.\n     * - `to` cannot be the zero address.\n     *\n     * Emits a {Transfer} event.\n     */\n  function _mint(address to, uint256 tokenId) internal virtual {\n    require(to != address(0), \"ERC721: mint to the zero address\");\n    require(!_exists(tokenId), \"ERC721: token already minted\");\n\n    _beforeTokenTransfer(address(0), to, tokenId);\n\n    _balances[to] += 1;\n    _owners[tokenId] = to;\n\n    emit Transfer(address(0), to, tokenId);\n  }\n\n  /**\n   * @dev Destroys `tokenId`.\n     * The approval is cleared when the token is burned.\n     *\n     * Requirements:\n     *\n     * - `tokenId` must exist.\n     *\n     * Emits a {Transfer} event.\n     */\n  function _burn(uint256 tokenId) internal virtual {\n    address owner = NftMarathon.ownerOf(tokenId);\n\n    _beforeTokenTransfer(owner, address(0), tokenId);\n\n    // Clear approvals\n    _approve(address(0), tokenId);\n\n    _balances[owner] -= 1;\n    delete _owners[tokenId];\n\n    emit Transfer(owner, address(0), tokenId);\n  }\n\n  /**\n   * @dev Transfers `tokenId` from `from` to `to`.\n     *  As opposed to {transferFrom}, this imposes no restrictions on msg.sender.\n     *\n     * Requirements:\n     *\n     * - `to` cannot be the zero address.\n     * - `tokenId` token must be owned by `from`.\n     *\n     * Emits a {Transfer} event.\n     */\n  function _transfer(\n    address from,\n    address to,\n    uint256 tokenId\n  ) internal virtual {\n    require(NftMarathon.ownerOf(tokenId) == from, \"ERC721: transfer of token that is not own\");\n    require(to != address(0), \"ERC721: transfer to the zero address\");\n\n    _beforeTokenTransfer(from, to, tokenId);\n\n    // Clear approvals from the previous owner\n    _approve(address(0), tokenId);\n\n    _balances[from] -= 1;\n    _balances[to] += 1;\n    _owners[tokenId] = to;\n\n    emit Transfer(from, to, tokenId);\n  }\n\n  /**\n   * @dev Approve `to` to operate on `tokenId`\n     *\n     * Emits a {Approval} event.\n     */\n  function _approve(address to, uint256 tokenId) internal virtual {\n    _tokenApprovals[tokenId] = to;\n    emit Approval(NftMarathon.ownerOf(tokenId), to, tokenId);\n  }\n\n  /**\n   * @dev Internal function to invoke {IERC721Receiver-onERC721Received} on a target address.\n     * The call is not executed if the target address is not a contract.\n     *\n     * @param from address representing the previous owner of the given token ID\n     * @param to target address that will receive the tokens\n     * @param tokenId uint256 ID of the token to be transferred\n     * @param _data bytes optional data to send along with the call\n     * @return bool whether the call correctly returned the expected magic value\n     */\n  function _checkOnERC721Received(\n    address from,\n    address to,\n    uint256 tokenId,\n    bytes memory _data\n  ) private returns (bool) {\n    if (to.isContract()) {\n      try IERC721Receiver(to).onERC721Received(_msgSender(), from, tokenId, _data) returns (bytes4 retval) {\n        return retval == IERC721Receiver.onERC721Received.selector;\n      } catch (bytes memory reason) {\n        if (reason.length == 0) {\n          revert(\"ERC721: transfer to non ERC721Receiver implementer\");\n        } else {\n          assembly {\n            revert(add(32, reason), mload(reason))\n          }\n        }\n      }\n    } else {\n      return true;\n    }\n  }\n\n  /**\n   * @dev Hook that is called before any token transfer. This includes minting\n     * and burning.\n     *\n     * Calling conditions:\n     *\n     * - When `from` and `to` are both non-zero, ``from``'s `tokenId` will be\n     * transferred to `to`.\n     * - When `from` is zero, `tokenId` will be minted for `to`.\n     * - When `to` is zero, ``from``'s `tokenId` will be burned.\n     * - `from` and `to` are never both zero.\n     *\n     * To learn more about hooks, head to xref:ROOT:extending-contracts.adoc#using-hooks[Using Hooks].\n     */\n  function _beforeTokenTransfer(\n    address from,\n    address to,\n    uint256 tokenId\n  ) internal virtual {}\n}\n",
  "sourcePath": "C:\\git2021\\nftmarathon\\src\\smart-contract\\contracts\\NftMarathon.sol",
  "compiler": {
    "name": "solc",
    "version": "0.8.0+commit.c7dfd78e.Emscripten.clang"
  },
  "schemaVersion": "3.4.3",
  "updatedAt": "2021-11-21T16:00:22.538Z",
  "networkType": "ethereum",
  "devdoc": {
    "kind": "dev",
    "methods": {
      "approve(address,uint256)": {
        "details": "See {IERC721-approve}."
      },
      "balanceOf(address)": {
        "details": "See {IERC721-balanceOf}."
      },
      "getApproved(uint256)": {
        "details": "See {IERC721-getApproved}."
      },
      "isApprovedForAll(address,address)": {
        "details": "See {IERC721-isApprovedForAll}."
      },
      "name()": {
        "details": "See {IERC721Metadata-name}."
      },
      "ownerOf(uint256)": {
        "details": "See {IERC721-ownerOf}."
      },
      "safeTransferFrom(address,address,uint256)": {
        "details": "See {IERC721-safeTransferFrom}."
      },
      "safeTransferFrom(address,address,uint256,bytes)": {
        "details": "See {IERC721-safeTransferFrom}."
      },
      "setApprovalForAll(address,bool)": {
        "details": "See {IERC721-setApprovalForAll}."
      },
      "supportsInterface(bytes4)": {
        "details": "See {IERC165-supportsInterface}."
      },
      "symbol()": {
        "details": "See {IERC721Metadata-symbol}."
      },
      "tokenURI(uint256)": {
        "details": "See {IERC721Metadata-tokenURI}."
      },
      "transferFrom(address,address,uint256)": {
        "details": "See {IERC721-transferFrom}."
      }
    },
    "version": 1
  },
  "userdoc": {
    "kind": "user",
    "methods": {},
    "version": 1
  }
}