{
  "contractName": "AdBasedNFTs",
  "abi": [
    {
      "inputs": [
        {
          "internalType": "string",
          "name": "_baseTokenURI",
          "type": "string"
        },
        {
          "internalType": "address",
          "name": "paymentSplitter",
          "type": "address"
        },
        {
          "internalType": "address",
          "name": "_link",
          "type": "address"
        }
      ],
      "stateMutability": "nonpayable",
      "type": "constructor"
    },
    {
      "anonymous": false,
      "inputs": [
        {
          "indexed": false,
          "internalType": "uint256",
          "name": "tokenId",
          "type": "uint256"
        }
      ],
      "name": "AdAmountExhausted",
      "type": "event"
    },
    {
      "anonymous": false,
      "inputs": [
        {
          "indexed": true,
          "internalType": "address",
          "name": "owner",
          "type": "address"
        },
        {
          "indexed": true,
          "internalType": "address",
          "name": "approved",
          "type": "address"
        },
        {
          "indexed": true,
          "internalType": "uint256",
          "name": "tokenId",
          "type": "uint256"
        }
      ],
      "name": "Approval",
      "type": "event"
    },
    {
      "anonymous": false,
      "inputs": [
        {
          "indexed": true,
          "internalType": "address",
          "name": "owner",
          "type": "address"
        },
        {
          "indexed": true,
          "internalType": "address",
          "name": "operator",
          "type": "address"
        },
        {
          "indexed": false,
          "internalType": "bool",
          "name": "approved",
          "type": "bool"
        }
      ],
      "name": "ApprovalForAll",
      "type": "event"
    },
    {
      "anonymous": false,
      "inputs": [
        {
          "indexed": true,
          "internalType": "bytes32",
          "name": "id",
          "type": "bytes32"
        }
      ],
      "name": "ChainlinkCancelled",
      "type": "event"
    },
    {
      "anonymous": false,
      "inputs": [
        {
          "indexed": true,
          "internalType": "bytes32",
          "name": "id",
          "type": "bytes32"
        }
      ],
      "name": "ChainlinkFulfilled",
      "type": "event"
    },
    {
      "anonymous": false,
      "inputs": [
        {
          "indexed": true,
          "internalType": "bytes32",
          "name": "id",
          "type": "bytes32"
        }
      ],
      "name": "ChainlinkRequested",
      "type": "event"
    },
    {
      "anonymous": false,
      "inputs": [
        {
          "indexed": true,
          "internalType": "address",
          "name": "previousOwner",
          "type": "address"
        },
        {
          "indexed": true,
          "internalType": "address",
          "name": "newOwner",
          "type": "address"
        }
      ],
      "name": "OwnershipTransferred",
      "type": "event"
    },
    {
      "anonymous": false,
      "inputs": [
        {
          "indexed": true,
          "internalType": "address",
          "name": "from",
          "type": "address"
        },
        {
          "indexed": true,
          "internalType": "address",
          "name": "to",
          "type": "address"
        },
        {
          "indexed": true,
          "internalType": "uint256",
          "name": "tokenId",
          "type": "uint256"
        }
      ],
      "name": "Transfer",
      "type": "event"
    },
    {
      "inputs": [
        {
          "internalType": "uint256",
          "name": "",
          "type": "uint256"
        }
      ],
      "name": "_tokenInfo",
      "outputs": [
        {
          "internalType": "uint256",
          "name": "tokenId",
          "type": "uint256"
        },
        {
          "internalType": "address",
          "name": "ownerOfWebsite",
          "type": "address"
        },
        {
          "internalType": "uint256",
          "name": "clicks",
          "type": "uint256"
        },
        {
          "internalType": "uint256",
          "name": "amount",
          "type": "uint256"
        }
      ],
      "stateMutability": "view",
      "type": "function",
      "constant": true
    },
    {
      "inputs": [
        {
          "internalType": "address",
          "name": "to",
          "type": "address"
        },
        {
          "internalType": "uint256",
          "name": "tokenId",
          "type": "uint256"
        }
      ],
      "name": "approve",
      "outputs": [],
      "stateMutability": "nonpayable",
      "type": "function"
    },
    {
      "inputs": [
        {
          "internalType": "address",
          "name": "owner",
          "type": "address"
        }
      ],
      "name": "balanceOf",
      "outputs": [
        {
          "internalType": "uint256",
          "name": "",
          "type": "uint256"
        }
      ],
      "stateMutability": "view",
      "type": "function",
      "constant": true
    },
    {
      "inputs": [
        {
          "internalType": "uint256",
          "name": "tokenId",
          "type": "uint256"
        }
      ],
      "name": "getApproved",
      "outputs": [
        {
          "internalType": "address",
          "name": "",
          "type": "address"
        }
      ],
      "stateMutability": "view",
      "type": "function",
      "constant": true
    },
    {
      "inputs": [
        {
          "internalType": "address",
          "name": "owner",
          "type": "address"
        },
        {
          "internalType": "address",
          "name": "operator",
          "type": "address"
        }
      ],
      "name": "isApprovedForAll",
      "outputs": [
        {
          "internalType": "bool",
          "name": "",
          "type": "bool"
        }
      ],
      "stateMutability": "view",
      "type": "function",
      "constant": true
    },
    {
      "inputs": [],
      "name": "name",
      "outputs": [
        {
          "internalType": "string",
          "name": "",
          "type": "string"
        }
      ],
      "stateMutability": "view",
      "type": "function",
      "constant": true
    },
    {
      "inputs": [],
      "name": "owner",
      "outputs": [
        {
          "internalType": "address",
          "name": "",
          "type": "address"
        }
      ],
      "stateMutability": "view",
      "type": "function",
      "constant": true
    },
    {
      "inputs": [
        {
          "internalType": "uint256",
          "name": "tokenId",
          "type": "uint256"
        }
      ],
      "name": "ownerOf",
      "outputs": [
        {
          "internalType": "address",
          "name": "",
          "type": "address"
        }
      ],
      "stateMutability": "view",
      "type": "function",
      "constant": true
    },
    {
      "inputs": [],
      "name": "renounceOwnership",
      "outputs": [],
      "stateMutability": "nonpayable",
      "type": "function"
    },
    {
      "inputs": [
        {
          "internalType": "address",
          "name": "from",
          "type": "address"
        },
        {
          "internalType": "address",
          "name": "to",
          "type": "address"
        },
        {
          "internalType": "uint256",
          "name": "tokenId",
          "type": "uint256"
        }
      ],
      "name": "safeTransferFrom",
      "outputs": [],
      "stateMutability": "nonpayable",
      "type": "function"
    },
    {
      "inputs": [
        {
          "internalType": "address",
          "name": "from",
          "type": "address"
        },
        {
          "internalType": "address",
          "name": "to",
          "type": "address"
        },
        {
          "internalType": "uint256",
          "name": "tokenId",
          "type": "uint256"
        },
        {
          "internalType": "bytes",
          "name": "_data",
          "type": "bytes"
        }
      ],
      "name": "safeTransferFrom",
      "outputs": [],
      "stateMutability": "nonpayable",
      "type": "function"
    },
    {
      "inputs": [
        {
          "internalType": "address",
          "name": "operator",
          "type": "address"
        },
        {
          "internalType": "bool",
          "name": "approved",
          "type": "bool"
        }
      ],
      "name": "setApprovalForAll",
      "outputs": [],
      "stateMutability": "nonpayable",
      "type": "function"
    },
    {
      "inputs": [
        {
          "internalType": "bytes4",
          "name": "interfaceId",
          "type": "bytes4"
        }
      ],
      "name": "supportsInterface",
      "outputs": [
        {
          "internalType": "bool",
          "name": "",
          "type": "bool"
        }
      ],
      "stateMutability": "view",
      "type": "function",
      "constant": true
    },
    {
      "inputs": [],
      "name": "symbol",
      "outputs": [
        {
          "internalType": "string",
          "name": "",
          "type": "string"
        }
      ],
      "stateMutability": "view",
      "type": "function",
      "constant": true
    },
    {
      "inputs": [
        {
          "internalType": "uint256",
          "name": "index",
          "type": "uint256"
        }
      ],
      "name": "tokenByIndex",
      "outputs": [
        {
          "internalType": "uint256",
          "name": "",
          "type": "uint256"
        }
      ],
      "stateMutability": "view",
      "type": "function",
      "constant": true
    },
    {
      "inputs": [
        {
          "internalType": "address",
          "name": "owner",
          "type": "address"
        },
        {
          "internalType": "uint256",
          "name": "index",
          "type": "uint256"
        }
      ],
      "name": "tokenOfOwnerByIndex",
      "outputs": [
        {
          "internalType": "uint256",
          "name": "",
          "type": "uint256"
        }
      ],
      "stateMutability": "view",
      "type": "function",
      "constant": true
    },
    {
      "inputs": [
        {
          "internalType": "uint256",
          "name": "tokenId",
          "type": "uint256"
        }
      ],
      "name": "tokenURI",
      "outputs": [
        {
          "internalType": "string",
          "name": "",
          "type": "string"
        }
      ],
      "stateMutability": "view",
      "type": "function",
      "constant": true
    },
    {
      "inputs": [],
      "name": "totalSupply",
      "outputs": [
        {
          "internalType": "uint256",
          "name": "",
          "type": "uint256"
        }
      ],
      "stateMutability": "view",
      "type": "function",
      "constant": true
    },
    {
      "inputs": [
        {
          "internalType": "address",
          "name": "from",
          "type": "address"
        },
        {
          "internalType": "address",
          "name": "to",
          "type": "address"
        },
        {
          "internalType": "uint256",
          "name": "tokenId",
          "type": "uint256"
        }
      ],
      "name": "transferFrom",
      "outputs": [],
      "stateMutability": "nonpayable",
      "type": "function"
    },
    {
      "inputs": [
        {
          "internalType": "address",
          "name": "newOwner",
          "type": "address"
        }
      ],
      "name": "transferOwnership",
      "outputs": [],
      "stateMutability": "nonpayable",
      "type": "function"
    },
    {
      "inputs": [
        {
          "internalType": "uint256",
          "name": "_adCode",
          "type": "uint256"
        }
      ],
      "name": "mintAdToken",
      "outputs": [
        {
          "internalType": "uint256",
          "name": "",
          "type": "uint256"
        }
      ],
      "stateMutability": "payable",
      "type": "function",
      "payable": true
    },
    {
      "inputs": [
        {
          "internalType": "uint256",
          "name": "tokenId",
          "type": "uint256"
        }
      ],
      "name": "getTokenURI",
      "outputs": [
        {
          "internalType": "string",
          "name": "",
          "type": "string"
        }
      ],
      "stateMutability": "view",
      "type": "function",
      "constant": true
    },
    {
      "inputs": [
        {
          "internalType": "string",
          "name": "_tokenURI",
          "type": "string"
        }
      ],
      "name": "setbaseURI",
      "outputs": [],
      "stateMutability": "nonpayable",
      "type": "function"
    },
    {
      "inputs": [],
      "name": "getTokenData",
      "outputs": [
        {
          "components": [
            {
              "internalType": "uint256",
              "name": "tokenId",
              "type": "uint256"
            },
            {
              "internalType": "address",
              "name": "ownerOfWebsite",
              "type": "address"
            },
            {
              "internalType": "uint256",
              "name": "clicks",
              "type": "uint256"
            },
            {
              "internalType": "uint256",
              "name": "amount",
              "type": "uint256"
            }
          ],
          "internalType": "struct AdBasedNFTs.metadata[]",
          "name": "",
          "type": "tuple[]"
        }
      ],
      "stateMutability": "view",
      "type": "function",
      "constant": true
    },
    {
      "inputs": [
        {
          "internalType": "address",
          "name": "paymentSplitter",
          "type": "address"
        }
      ],
      "name": "setPaymentSplitter",
      "outputs": [],
      "stateMutability": "nonpayable",
      "type": "function"
    },
    {
      "inputs": [
        {
          "internalType": "uint256",
          "name": "minAmount",
          "type": "uint256"
        }
      ],
      "name": "updateDivMultiplier",
      "outputs": [],
      "stateMutability": "nonpayable",
      "type": "function"
    },
    {
      "inputs": [
        {
          "internalType": "uint256",
          "name": "tokenId",
          "type": "uint256"
        }
      ],
      "name": "requestTokenData",
      "outputs": [
        {
          "internalType": "bytes32",
          "name": "",
          "type": "bytes32"
        }
      ],
      "stateMutability": "nonpayable",
      "type": "function"
    },
    {
      "inputs": [
        {
          "internalType": "bytes32",
          "name": "_requestId",
          "type": "bytes32"
        },
        {
          "internalType": "uint256",
          "name": "_clicks",
          "type": "uint256"
        }
      ],
      "name": "updateTokenData",
      "outputs": [],
      "stateMutability": "nonpayable",
      "type": "function"
    }
  ],
  "bytecode": "0x60806040526001600f5560405180602001604052806000815250601190805190602001906200003092919062000650565b5066038d7ea4c680006012553480156200004957600080fd5b5060405162005f3338038062005f3383398181016040528101906200006f9190620007b5565b6040518060400160405280600c81526020017f416420546f6b657274697a6500000000000000000000000000000000000000008152506040518060400160405280600581526020017f61544b545a0000000000000000000000000000000000000000000000000000008152508160009080519060200190620000f392919062000650565b5080600190805190602001906200010c92919062000650565b5050506200012f620001236200024360201b60201c565b6200024b60201b60201c565b62000140826200031160201b60201c565b62000151836200048f60201b60201c565b600073ffffffffffffffffffffffffffffffffffffffff168173ffffffffffffffffffffffffffffffffffffffff1614156200019d57620001976200053a60201b60201c565b620001af565b620001ae81620005e260201b60201c565b5b73c57b33452b4f7bb189bb5afae9cc4aba1f7a4fd8601560006101000a81548173ffffffffffffffffffffffffffffffffffffffff021916908373ffffffffffffffffffffffffffffffffffffffff1602179055507f643532373064316333313139343164306230386265616432316665613737343760168190555067016345785d8a000060178190555050505062000aa2565b600033905090565b6000600a60009054906101000a900473ffffffffffffffffffffffffffffffffffffffff16905081600a60006101000a81548173ffffffffffffffffffffffffffffffffffffffff021916908373ffffffffffffffffffffffffffffffffffffffff1602179055508173ffffffffffffffffffffffffffffffffffffffff168173ffffffffffffffffffffffffffffffffffffffff167f8be0079c531659141344cd1fd0a4f28419497f9722a3daafe3b4186f6b6457e060405160405180910390a35050565b620003216200024360201b60201c565b73ffffffffffffffffffffffffffffffffffffffff16620003476200062660201b60201c565b73ffffffffffffffffffffffffffffffffffffffff1614620003a0576040517f08c379a00000000000000000000000000000000000000000000000000000000081526004016200039790620008f0565b60405180910390fd5b600073ffffffffffffffffffffffffffffffffffffffff168173ffffffffffffffffffffffffffffffffffffffff161415806200040957503073ffffffffffffffffffffffffffffffffffffffff168173ffffffffffffffffffffffffffffffffffffffff1614155b6200044b576040517f08c379a00000000000000000000000000000000000000000000000000000000081526004016200044290620008ce565b60405180910390fd5b80601860006101000a81548173ffffffffffffffffffffffffffffffffffffffff021916908373ffffffffffffffffffffffffffffffffffffffff16021790555050565b6200049f6200024360201b60201c565b73ffffffffffffffffffffffffffffffffffffffff16620004c56200062660201b60201c565b73ffffffffffffffffffffffffffffffffffffffff16146200051e576040517f08c379a00000000000000000000000000000000000000000000000000000000081526004016200051590620008f0565b60405180910390fd5b80601190805190602001906200053692919062000650565b5050565b620005e073c89bd4e1632d3a43cb03aaad5262cbe4038bc57173ffffffffffffffffffffffffffffffffffffffff166338cc48316040518163ffffffff1660e01b815260040160206040518083038186803b1580156200059957600080fd5b505afa158015620005ae573d6000803e3d6000fd5b505050506040513d601f19601f82011682018060405250810190620005d4919062000789565b620005e260201b60201c565b565b80600d60006101000a81548173ffffffffffffffffffffffffffffffffffffffff021916908373ffffffffffffffffffffffffffffffffffffffff16021790555050565b6000600a60009054906101000a900473ffffffffffffffffffffffffffffffffffffffff16905090565b8280546200065e90620009f4565b90600052602060002090601f016020900481019282620006825760008555620006ce565b82601f106200069d57805160ff1916838001178555620006ce565b82800160010185558215620006ce579182015b82811115620006cd578251825591602001919060010190620006b0565b5b509050620006dd9190620006e1565b5090565b5b80821115620006fc576000816000905550600101620006e2565b5090565b600062000717620007118462000946565b62000912565b9050828152602081018484840111156200073057600080fd5b6200073d848285620009be565b509392505050565b600081519050620007568162000a88565b92915050565b600082601f8301126200076e57600080fd5b81516200078084826020860162000700565b91505092915050565b6000602082840312156200079c57600080fd5b6000620007ac8482850162000745565b91505092915050565b600080600060608486031215620007cb57600080fd5b600084015167ffffffffffffffff811115620007e657600080fd5b620007f4868287016200075c565b9350506020620008078682870162000745565b92505060406200081a8682870162000745565b9150509250925092565b600062000833602a8362000979565b91507f43616e6e6f742075706461746520746865207061796d656e742073706c69747460008301527f65722061646472657373000000000000000000000000000000000000000000006020830152604082019050919050565b60006200089b60208362000979565b91507f4f776e61626c653a2063616c6c6572206973206e6f7420746865206f776e65726000830152602082019050919050565b60006020820190508181036000830152620008e98162000824565b9050919050565b600060208201905081810360008301526200090b816200088c565b9050919050565b6000604051905081810181811067ffffffffffffffff821117156200093c576200093b62000a59565b5b8060405250919050565b600067ffffffffffffffff82111562000964576200096362000a59565b5b601f19601f8301169050602081019050919050565b600082825260208201905092915050565b600062000997826200099e565b9050919050565b600073ffffffffffffffffffffffffffffffffffffffff82169050919050565b60005b83811015620009de578082015181840152602081019050620009c1565b83811115620009ee576000848401525b50505050565b6000600282049050600182168062000a0d57607f821691505b6020821081141562000a245762000a2362000a2a565b5b50919050565b7f4e487b7100000000000000000000000000000000000000000000000000000000600052602260045260246000fd5b7f4e487b7100000000000000000000000000000000000000000000000000000000600052604160045260246000fd5b62000a93816200098a565b811462000a9f57600080fd5b50565b6154818062000ab26000396000f3fe6080604052600436106101b75760003560e01c80635efe71b6116100ec57806395d89b411161008a578063c87b56dd11610064578063c87b56dd14610648578063d16aad6114610685578063e985e9c5146106b0578063f2fde38b146106ed576101b7565b806395d89b41146105cb578063a22cb465146105f6578063b88d4fde1461061f576101b7565b806370a08231116100c657806370a082311461050f578063715018a61461054c578063780df39e146105635780638da5cb5b146105a0576101b7565b80635efe71b6146104805780636352211e146104a95780636b29b79f146104e6576101b7565b806335304134116101595780634a44f379116101335780634a44f379146103b15780634a79ddf1146103da5780634bb8456c146104035780634f6ccce714610443576101b7565b8063353041341461031b5780633bb3a24d1461034b57806342842e0e14610388576101b7565b8063095ea7b311610195578063095ea7b31461026157806318160ddd1461028a57806323b872dd146102b55780632f745c59146102de576101b7565b806301ffc9a7146101bc57806306fdde03146101f9578063081812fc14610224575b600080fd5b3480156101c857600080fd5b506101e360048036038101906101de9190613b6e565b610716565b6040516101f091906149e8565b60405180910390f35b34801561020557600080fd5b5061020e610790565b60405161021b9190614a1e565b60405180910390f35b34801561023057600080fd5b5061024b60048036038101906102469190613c01565b610822565b6040516102589190614873565b60405180910390f35b34801561026d57600080fd5b5061028860048036038101906102839190613acd565b6108a7565b005b34801561029657600080fd5b5061029f6109bf565b6040516102ac9190614d40565b60405180910390f35b3480156102c157600080fd5b506102dc60048036038101906102d791906139c7565b6109cc565b005b3480156102ea57600080fd5b5061030560048036038101906103009190613acd565b610a2c565b6040516103129190614d40565b60405180910390f35b61033560048036038101906103309190613c01565b610ad1565b6040516103429190614d40565b60405180910390f35b34801561035757600080fd5b50610372600480360381019061036d9190613c01565b610c9c565b60405161037f9190614a1e565b60405180910390f35b34801561039457600080fd5b506103af60048036038101906103aa91906139c7565b610cae565b005b3480156103bd57600080fd5b506103d860048036038101906103d39190613bc0565b610cce565b005b3480156103e657600080fd5b5061040160048036038101906103fc9190613b32565b610d64565b005b34801561040f57600080fd5b5061042a60048036038101906104259190613c01565b61107b565b60405161043a9493929190614d5b565b60405180910390f35b34801561044f57600080fd5b5061046a60048036038101906104659190613c01565b6110cb565b6040516104779190614d40565b60405180910390f35b34801561048c57600080fd5b506104a760048036038101906104a29190613c01565b611162565b005b3480156104b557600080fd5b506104d060048036038101906104cb9190613c01565b6111e8565b6040516104dd9190614873565b60405180910390f35b3480156104f257600080fd5b5061050d60048036038101906105089190613962565b61129a565b005b34801561051b57600080fd5b5061053660048036038101906105319190613962565b611401565b6040516105439190614d40565b60405180910390f35b34801561055857600080fd5b506105616114b9565b005b34801561056f57600080fd5b5061058a60048036038101906105859190613c01565b611541565b6040516105979190614a03565b60405180910390f35b3480156105ac57600080fd5b506105b561169f565b6040516105c29190614873565b60405180910390f35b3480156105d757600080fd5b506105e06116c9565b6040516105ed9190614a1e565b60405180910390f35b34801561060257600080fd5b5061061d60048036038101906106189190613a91565b61175b565b005b34801561062b57600080fd5b5061064660048036038101906106419190613a16565b611771565b005b34801561065457600080fd5b5061066f600480360381019061066a9190613c01565b6117d3565b60405161067c9190614a1e565b60405180910390f35b34801561069157600080fd5b5061069a61187a565b6040516106a791906149c6565b60405180910390f35b3480156106bc57600080fd5b506106d760048036038101906106d2919061398b565b611a0b565b6040516106e491906149e8565b60405180910390f35b3480156106f957600080fd5b50610714600480360381019061070f9190613962565b611a9f565b005b60007f780e9d63000000000000000000000000000000000000000000000000000000007bffffffffffffffffffffffffffffffffffffffffffffffffffffffff1916827bffffffffffffffffffffffffffffffffffffffffffffffffffffffff19161480610789575061078882611b97565b5b9050919050565b60606000805461079f90615217565b80601f01602080910402602001604051908101604052809291908181526020018280546107cb90615217565b80156108185780601f106107ed57610100808354040283529160200191610818565b820191906000526020600020905b8154815290600101906020018083116107fb57829003601f168201915b5050505050905090565b600061082d82611c79565b61086c576040517f08c379a000000000000000000000000000000000000000000000000000000000815260040161086390614c00565b60405180910390fd5b6004600083815260200190815260200160002060009054906101000a900473ffffffffffffffffffffffffffffffffffffffff169050919050565b60006108b2826111e8565b90508073ffffffffffffffffffffffffffffffffffffffff168373ffffffffffffffffffffffffffffffffffffffff161415610923576040517f08c379a000000000000000000000000000000000000000000000000000000000815260040161091a90614ca0565b60405180910390fd5b8073ffffffffffffffffffffffffffffffffffffffff16610942611ce5565b73ffffffffffffffffffffffffffffffffffffffff16148061097157506109708161096b611ce5565b611a0b565b5b6109b0576040517f08c379a00000000000000000000000000000000000000000000000000000000081526004016109a790614b80565b60405180910390fd5b6109ba8383611ced565b505050565b6000600880549050905090565b6109dd6109d7611ce5565b82611da6565b610a1c576040517f08c379a0000000000000000000000000000000000000000000000000000000008152600401610a1390614ce0565b60405180910390fd5b610a27838383611e84565b505050565b6000610a3783611401565b8210610a78576040517f08c379a0000000000000000000000000000000000000000000000000000000008152600401610a6f90614a60565b60405180910390fd5b600660008473ffffffffffffffffffffffffffffffffffffffff1673ffffffffffffffffffffffffffffffffffffffff168152602001908152602001600020600083815260200190815260200160002054905092915050565b6000610adc82611c79565b15610ae657600080fd5b60405180608001604052808381526020013373ffffffffffffffffffffffffffffffffffffffff1681526020016000815260200134815250601360008481526020019081526020016000206000820151816000015560208201518160010160006101000a81548173ffffffffffffffffffffffffffffffffffffffff021916908373ffffffffffffffffffffffffffffffffffffffff160217905550604082015181600201556060820151816003015590505081601860009054906101000a900473ffffffffffffffffffffffffffffffffffffffff1673ffffffffffffffffffffffffffffffffffffffff1663d6ec761f3433866040518463ffffffff1660e01b8152600401610bf89291906148da565b6020604051808303818588803b158015610c1157600080fd5b505af1158015610c25573d6000803e3d6000fd5b50505050506040513d601f19601f82011682018060405250810190610c4a9190613c2a565b14610c8a576040517f08c379a0000000000000000000000000000000000000000000000000000000008152600401610c8190614c40565b60405180910390fd5b610c9433836120e0565b819050919050565b6060610ca7826117d3565b9050919050565b610cc983838360405180602001604052806000815250611771565b505050565b610cd6611ce5565b73ffffffffffffffffffffffffffffffffffffffff16610cf461169f565b73ffffffffffffffffffffffffffffffffffffffff1614610d4a576040517f08c379a0000000000000000000000000000000000000000000000000000000008152600401610d4190614c20565b60405180910390fd5b8060119080519060200190610d60929190613682565b5050565b816010600082815260200190815260200160002060009054906101000a900473ffffffffffffffffffffffffffffffffffffffff1673ffffffffffffffffffffffffffffffffffffffff163373ffffffffffffffffffffffffffffffffffffffff1614610e06576040517f08c379a0000000000000000000000000000000000000000000000000000000008152600401610dfd90614d20565b60405180910390fd5b6010600082815260200190815260200160002060006101000a81549073ffffffffffffffffffffffffffffffffffffffff0219169055807f7cc135e0cebb02c3480ae5d74d377283180a2601f8f644edf7987b009316c63a60405160405180910390a26013600060146000868152602001908152602001600020548152602001908152602001600020600201548211610ed4576040517f08c379a0000000000000000000000000000000000000000000000000000000008152600401610ecb90614ae0565b60405180910390fd5b600060136000601460008781526020019081526020016000205481526020019081526020016000206002015483610f0b91906150ff565b9050600060125482610f1d91906150a5565b9050806013600060146000898152602001908152602001600020548152602001908152602001600020600301541015610f9b577ff29d2c9f93154379096b093d0d5f6ff0006de86e5bf4f05b0b7497448451fd1a6014600087815260200190815260200160002054604051610f929190614d40565b60405180910390a15b8060136000601460008981526020019081526020016000205481526020019081526020016000206003015410611006576040517f08c379a0000000000000000000000000000000000000000000000000000000008152600401610ffd90614cc0565b60405180910390fd5b806013600060146000898152602001908152602001600020548152602001908152602001600020600301600082825461103f91906150ff565b92505081905550836013600060146000898152602001908152602001600020548152602001908152602001600020600201819055505050505050565b60136020528060005260406000206000915090508060000154908060010160009054906101000a900473ffffffffffffffffffffffffffffffffffffffff16908060020154908060030154905084565b60006110d56109bf565b8210611116576040517f08c379a000000000000000000000000000000000000000000000000000000000815260040161110d90614d00565b60405180910390fd5b60088281548110611150577f4e487b7100000000000000000000000000000000000000000000000000000000600052603260045260246000fd5b90600052602060002001549050919050565b61116a611ce5565b73ffffffffffffffffffffffffffffffffffffffff1661118861169f565b73ffffffffffffffffffffffffffffffffffffffff16146111de576040517f08c379a00000000000000000000000000000000000000000000000000000000081526004016111d590614c20565b60405180910390fd5b8060128190555050565b6000806002600084815260200190815260200160002060009054906101000a900473ffffffffffffffffffffffffffffffffffffffff169050600073ffffffffffffffffffffffffffffffffffffffff168173ffffffffffffffffffffffffffffffffffffffff161415611291576040517f08c379a000000000000000000000000000000000000000000000000000000000815260040161128890614bc0565b60405180910390fd5b80915050919050565b6112a2611ce5565b73ffffffffffffffffffffffffffffffffffffffff166112c061169f565b73ffffffffffffffffffffffffffffffffffffffff1614611316576040517f08c379a000000000000000000000000000000000000000000000000000000000815260040161130d90614c20565b60405180910390fd5b600073ffffffffffffffffffffffffffffffffffffffff168173ffffffffffffffffffffffffffffffffffffffff1614158061137e57503073ffffffffffffffffffffffffffffffffffffffff168173ffffffffffffffffffffffffffffffffffffffff1614155b6113bd576040517f08c379a00000000000000000000000000000000000000000000000000000000081526004016113b490614a40565b60405180910390fd5b80601860006101000a81548173ffffffffffffffffffffffffffffffffffffffff021916908373ffffffffffffffffffffffffffffffffffffffff16021790555050565b60008073ffffffffffffffffffffffffffffffffffffffff168273ffffffffffffffffffffffffffffffffffffffff161415611472576040517f08c379a000000000000000000000000000000000000000000000000000000000815260040161146990614ba0565b60405180910390fd5b600360008373ffffffffffffffffffffffffffffffffffffffff1673ffffffffffffffffffffffffffffffffffffffff168152602001908152602001600020549050919050565b6114c1611ce5565b73ffffffffffffffffffffffffffffffffffffffff166114df61169f565b73ffffffffffffffffffffffffffffffffffffffff1614611535576040517f08c379a000000000000000000000000000000000000000000000000000000000815260040161152c90614c20565b60405180910390fd5b61153f60006120fe565b565b60008061155860165430634a79ddf160e01b6121c4565b90506115cb6040518060400160405280600381526020017f676574000000000000000000000000000000000000000000000000000000000081525061159c856121f5565b6040516020016115ac9190614846565b604051602081830303815290604052836123a29092919063ffffffff16565b61164a6040518060400160405280600481526020017f70617468000000000000000000000000000000000000000000000000000000008152506040518060400160405280600681526020017f636c69636b730000000000000000000000000000000000000000000000000000815250836123a29092919063ffffffff16565b600061167b601560009054906101000a900473ffffffffffffffffffffffffffffffffffffffff16836017546123d5565b90508360146000838152602001908152602001600020819055508092505050919050565b6000600a60009054906101000a900473ffffffffffffffffffffffffffffffffffffffff16905090565b6060600180546116d890615217565b80601f016020809104026020016040519081016040528092919081815260200182805461170490615217565b80156117515780601f1061172657610100808354040283529160200191611751565b820191906000526020600020905b81548152906001019060200180831161173457829003601f168201915b5050505050905090565b61176d611766611ce5565b83836123f5565b5050565b61178261177c611ce5565b83611da6565b6117c1576040517f08c379a00000000000000000000000000000000000000000000000000000000081526004016117b890614ce0565b60405180910390fd5b6117cd84848484612562565b50505050565b60606117de82611c79565b61181d576040517f08c379a000000000000000000000000000000000000000000000000000000000815260040161181490614c80565b60405180910390fd5b60006118276125be565b905060008151116118475760405180602001604052806000815250611872565b80611851846121f5565b604051602001611862929190614822565b6040516020818303038152906040525b915050919050565b606060006118866109bf565b905060008167ffffffffffffffff8111156118ca577f4e487b7100000000000000000000000000000000000000000000000000000000600052604160045260246000fd5b60405190808252806020026020018201604052801561190357816020015b6118f0613708565b8152602001906001900390816118e85790505b50905060005b82811015611a02576013600061191e836110cb565b8152602001908152602001600020604051806080016040529081600082015481526020016001820160009054906101000a900473ffffffffffffffffffffffffffffffffffffffff1673ffffffffffffffffffffffffffffffffffffffff1673ffffffffffffffffffffffffffffffffffffffff168152602001600282015481526020016003820154815250508282815181106119e4577f4e487b7100000000000000000000000000000000000000000000000000000000600052603260045260246000fd5b602002602001018190525080806119fa90615249565b915050611909565b50809250505090565b6000600560008473ffffffffffffffffffffffffffffffffffffffff1673ffffffffffffffffffffffffffffffffffffffff16815260200190815260200160002060008373ffffffffffffffffffffffffffffffffffffffff1673ffffffffffffffffffffffffffffffffffffffff16815260200190815260200160002060009054906101000a900460ff16905092915050565b611aa7611ce5565b73ffffffffffffffffffffffffffffffffffffffff16611ac561169f565b73ffffffffffffffffffffffffffffffffffffffff1614611b1b576040517f08c379a0000000000000000000000000000000000000000000000000000000008152600401611b1290614c20565b60405180910390fd5b600073ffffffffffffffffffffffffffffffffffffffff168173ffffffffffffffffffffffffffffffffffffffff161415611b8b576040517f08c379a0000000000000000000000000000000000000000000000000000000008152600401611b8290614aa0565b60405180910390fd5b611b94816120fe565b50565b60007f80ac58cd000000000000000000000000000000000000000000000000000000007bffffffffffffffffffffffffffffffffffffffffffffffffffffffff1916827bffffffffffffffffffffffffffffffffffffffffffffffffffffffff19161480611c6257507f5b5e139f000000000000000000000000000000000000000000000000000000007bffffffffffffffffffffffffffffffffffffffffffffffffffffffff1916827bffffffffffffffffffffffffffffffffffffffffffffffffffffffff1916145b80611c725750611c7182612650565b5b9050919050565b60008073ffffffffffffffffffffffffffffffffffffffff166002600084815260200190815260200160002060009054906101000a900473ffffffffffffffffffffffffffffffffffffffff1673ffffffffffffffffffffffffffffffffffffffff1614159050919050565b600033905090565b816004600083815260200190815260200160002060006101000a81548173ffffffffffffffffffffffffffffffffffffffff021916908373ffffffffffffffffffffffffffffffffffffffff160217905550808273ffffffffffffffffffffffffffffffffffffffff16611d60836111e8565b73ffffffffffffffffffffffffffffffffffffffff167f8c5be1e5ebec7d5bd14f71427d1e84f3dd0314c0f7b2291e5b200ac8c7c3b92560405160405180910390a45050565b6000611db182611c79565b611df0576040517f08c379a0000000000000000000000000000000000000000000000000000000008152600401611de790614b60565b60405180910390fd5b6000611dfb836111e8565b90508073ffffffffffffffffffffffffffffffffffffffff168473ffffffffffffffffffffffffffffffffffffffff161480611e6a57508373ffffffffffffffffffffffffffffffffffffffff16611e5284610822565b73ffffffffffffffffffffffffffffffffffffffff16145b80611e7b5750611e7a8185611a0b565b5b91505092915050565b8273ffffffffffffffffffffffffffffffffffffffff16611ea4826111e8565b73ffffffffffffffffffffffffffffffffffffffff1614611efa576040517f08c379a0000000000000000000000000000000000000000000000000000000008152600401611ef190614c60565b60405180910390fd5b600073ffffffffffffffffffffffffffffffffffffffff168273ffffffffffffffffffffffffffffffffffffffff161415611f6a576040517f08c379a0000000000000000000000000000000000000000000000000000000008152600401611f6190614b20565b60405180910390fd5b611f758383836126ba565b611f80600082611ced565b6001600360008573ffffffffffffffffffffffffffffffffffffffff1673ffffffffffffffffffffffffffffffffffffffff1681526020019081526020016000206000828254611fd091906150ff565b925050819055506001600360008473ffffffffffffffffffffffffffffffffffffffff1673ffffffffffffffffffffffffffffffffffffffff16815260200190815260200160002060008282546120279190614ead565b92505081905550816002600083815260200190815260200160002060006101000a81548173ffffffffffffffffffffffffffffffffffffffff021916908373ffffffffffffffffffffffffffffffffffffffff160217905550808273ffffffffffffffffffffffffffffffffffffffff168473ffffffffffffffffffffffffffffffffffffffff167fddf252ad1be2c89b69c2b068fc378daa952ba7f163c4a11628f55a4df523b3ef60405160405180910390a4505050565b6120fa8282604051806020016040528060008152506127ce565b5050565b6000600a60009054906101000a900473ffffffffffffffffffffffffffffffffffffffff16905081600a60006101000a81548173ffffffffffffffffffffffffffffffffffffffff021916908373ffffffffffffffffffffffffffffffffffffffff1602179055508173ffffffffffffffffffffffffffffffffffffffff168173ffffffffffffffffffffffffffffffffffffffff167f8be0079c531659141344cd1fd0a4f28419497f9722a3daafe3b4186f6b6457e060405160405180910390a35050565b6121cc613746565b6121d4613746565b6121eb85858584612829909392919063ffffffff16565b9150509392505050565b6060600082141561223d576040518060400160405280600181526020017f3000000000000000000000000000000000000000000000000000000000000000815250905061239d565b600082905060005b6000821461226f57808061225890615249565b915050600a826122689190614f03565b9150612245565b60008167ffffffffffffffff8111156122b1577f4e487b7100000000000000000000000000000000000000000000000000000000600052604160045260246000fd5b6040519080825280601f01601f1916602001820160405280156122e35781602001600182028036833780820191505090505b5090505b60008514612396576001826122fc91906150ff565b9150600a8561230b91906152c0565b60306123179190614ead565b60f81b818381518110612353577f4e487b7100000000000000000000000000000000000000000000000000000000600052603260045260246000fd5b60200101907effffffffffffffffffffffffffffffffffffffffffffffffffffffffffffff1916908160001a905350600a8561238f9190614f03565b94506122e7565b8093505050505b919050565b6123b98284608001516128d990919063ffffffff16565b6123d08184608001516128d990919063ffffffff16565b505050565b60006123ec8484846001634042994660e01b6128fe565b90509392505050565b8173ffffffffffffffffffffffffffffffffffffffff168373ffffffffffffffffffffffffffffffffffffffff161415612464576040517f08c379a000000000000000000000000000000000000000000000000000000000815260040161245b90614b40565b60405180910390fd5b80600560008573ffffffffffffffffffffffffffffffffffffffff1673ffffffffffffffffffffffffffffffffffffffff16815260200190815260200160002060008473ffffffffffffffffffffffffffffffffffffffff1673ffffffffffffffffffffffffffffffffffffffff16815260200190815260200160002060006101000a81548160ff0219169083151502179055508173ffffffffffffffffffffffffffffffffffffffff168373ffffffffffffffffffffffffffffffffffffffff167f17307eab39ab6107e8899845ad3d59bd9653f200f220920489ca2b5937696c318360405161255591906149e8565b60405180910390a3505050565b61256d848484611e84565b61257984848484612b66565b6125b8576040517f08c379a00000000000000000000000000000000000000000000000000000000081526004016125af90614a80565b60405180910390fd5b50505050565b6060601180546125cd90615217565b80601f01602080910402602001604051908101604052809291908181526020018280546125f990615217565b80156126465780601f1061261b57610100808354040283529160200191612646565b820191906000526020600020905b81548152906001019060200180831161262957829003601f168201915b5050505050905090565b60007f01ffc9a7000000000000000000000000000000000000000000000000000000007bffffffffffffffffffffffffffffffffffffffffffffffffffffffff1916827bffffffffffffffffffffffffffffffffffffffffffffffffffffffff1916149050919050565b6126c5838383612cfd565b600073ffffffffffffffffffffffffffffffffffffffff168373ffffffffffffffffffffffffffffffffffffffff1614156127085761270381612d02565b612747565b8173ffffffffffffffffffffffffffffffffffffffff168373ffffffffffffffffffffffffffffffffffffffff1614612746576127458382612d4b565b5b5b600073ffffffffffffffffffffffffffffffffffffffff168273ffffffffffffffffffffffffffffffffffffffff16141561278a5761278581612eb8565b6127c9565b8273ffffffffffffffffffffffffffffffffffffffff168273ffffffffffffffffffffffffffffffffffffffff16146127c8576127c78282612ffb565b5b5b505050565b6127d8838361307a565b6127e56000848484612b66565b612824576040517f08c379a000000000000000000000000000000000000000000000000000000000815260040161281b90614a80565b60405180910390fd5b505050565b612831613746565b6128418560800151610100613248565b508385600001818152505082856020019073ffffffffffffffffffffffffffffffffffffffff16908173ffffffffffffffffffffffffffffffffffffffff16815250508185604001907bffffffffffffffffffffffffffffffffffffffffffffffffffffffff191690817bffffffffffffffffffffffffffffffffffffffffffffffffffffffff191681525050849050949350505050565b6128e682600383516132b2565b6128f981836133f790919063ffffffff16565b505050565b600030600f546040516020016129159291906147f6565b604051602081830303815290604052805190602001209050600f54856060018181525050856010600083815260200190815260200160002060006101000a81548173ffffffffffffffffffffffffffffffffffffffff021916908373ffffffffffffffffffffffffffffffffffffffff160217905550807fb5e6e01e79f91267dc17b4e6314d5d4d03593d2ceee0fbb452b750bd70ea5af960405160405180910390a2600082600080886000015189602001518a604001518b606001518a8d60800151600001516040516024016129f3989796959493929190614903565b604051602081830303815290604052907bffffffffffffffffffffffffffffffffffffffffffffffffffffffff19166020820180517bffffffffffffffffffffffffffffffffffffffffffffffffffffffff83818316178352505050509050600d60009054906101000a900473ffffffffffffffffffffffffffffffffffffffff1673ffffffffffffffffffffffffffffffffffffffff16634000aea08887846040518463ffffffff1660e01b8152600401612ab193929190614988565b602060405180830381600087803b158015612acb57600080fd5b505af1158015612adf573d6000803e3d6000fd5b505050506040513d601f19601f82011682018060405250810190612b039190613b09565b612b42576040517f08c379a0000000000000000000000000000000000000000000000000000000008152600401612b3990614b00565b60405180910390fd5b6001600f6000828254612b559190614ead565b925050819055505095945050505050565b6000612b878473ffffffffffffffffffffffffffffffffffffffff16613419565b15612cf0578373ffffffffffffffffffffffffffffffffffffffff1663150b7a02612bb0611ce5565b8786866040518563ffffffff1660e01b8152600401612bd2949392919061488e565b602060405180830381600087803b158015612bec57600080fd5b505af1925050508015612c1d57506040513d601f19601f82011682018060405250810190612c1a9190613b97565b60015b612ca0573d8060008114612c4d576040519150601f19603f3d011682016040523d82523d6000602084013e612c52565b606091505b50600081511415612c98576040517f08c379a0000000000000000000000000000000000000000000000000000000008152600401612c8f90614a80565b60405180910390fd5b805181602001fd5b63150b7a0260e01b7bffffffffffffffffffffffffffffffffffffffffffffffffffffffff1916817bffffffffffffffffffffffffffffffffffffffffffffffffffffffff191614915050612cf5565b600190505b949350505050565b505050565b6008805490506009600083815260200190815260200160002081905550600881908060018154018082558091505060019003906000526020600020016000909190919091505550565b60006001612d5884611401565b612d6291906150ff565b9050600060076000848152602001908152602001600020549050818114612e47576000600660008673ffffffffffffffffffffffffffffffffffffffff1673ffffffffffffffffffffffffffffffffffffffff168152602001908152602001600020600084815260200190815260200160002054905080600660008773ffffffffffffffffffffffffffffffffffffffff1673ffffffffffffffffffffffffffffffffffffffff168152602001908152602001600020600084815260200190815260200160002081905550816007600083815260200190815260200160002081905550505b6007600084815260200190815260200160002060009055600660008573ffffffffffffffffffffffffffffffffffffffff1673ffffffffffffffffffffffffffffffffffffffff16815260200190815260200160002060008381526020019081526020016000206000905550505050565b60006001600880549050612ecc91906150ff565b9050600060096000848152602001908152602001600020549050600060088381548110612f22577f4e487b7100000000000000000000000000000000000000000000000000000000600052603260045260246000fd5b906000526020600020015490508060088381548110612f6a577f4e487b7100000000000000000000000000000000000000000000000000000000600052603260045260246000fd5b906000526020600020018190555081600960008381526020019081526020016000208190555060096000858152602001908152602001600020600090556008805480612fdf577f4e487b7100000000000000000000000000000000000000000000000000000000600052603160045260246000fd5b6001900381819060005260206000200160009055905550505050565b600061300683611401565b905081600660008573ffffffffffffffffffffffffffffffffffffffff1673ffffffffffffffffffffffffffffffffffffffff168152602001908152602001600020600083815260200190815260200160002081905550806007600084815260200190815260200160002081905550505050565b600073ffffffffffffffffffffffffffffffffffffffff168273ffffffffffffffffffffffffffffffffffffffff1614156130ea576040517f08c379a00000000000000000000000000000000000000000000000000000000081526004016130e190614be0565b60405180910390fd5b6130f381611c79565b15613133576040517f08c379a000000000000000000000000000000000000000000000000000000000815260040161312a90614ac0565b60405180910390fd5b61313f600083836126ba565b6001600360008473ffffffffffffffffffffffffffffffffffffffff1673ffffffffffffffffffffffffffffffffffffffff168152602001908152602001600020600082825461318f9190614ead565b92505081905550816002600083815260200190815260200160002060006101000a81548173ffffffffffffffffffffffffffffffffffffffff021916908373ffffffffffffffffffffffffffffffffffffffff160217905550808273ffffffffffffffffffffffffffffffffffffffff16600073ffffffffffffffffffffffffffffffffffffffff167fddf252ad1be2c89b69c2b068fc378daa952ba7f163c4a11628f55a4df523b3ef60405160405180910390a45050565b6132506137b3565b600060208361325f91906152c0565b1461328b5760208261327191906152c0565b602061327d91906150ff565b826132889190614ead565b91505b81836020018181525050604051808452600081528281016020016040525082905092915050565b601781116132df576132d98160058460ff16901b60ff16178461342c90919063ffffffff16565b506133f2565b60ff811161332157613304601860058460ff16901b178461342c90919063ffffffff16565b5061331b8160018561344c9092919063ffffffff16565b506133f1565b61ffff811161336457613347601960058460ff16901b178461342c90919063ffffffff16565b5061335e8160028561344c9092919063ffffffff16565b506133f0565b63ffffffff81116133a95761338c601a60058460ff16901b178461342c90919063ffffffff16565b506133a38160048561344c9092919063ffffffff16565b506133ef565b67ffffffffffffffff81116133ee576133d5601b60058460ff16901b178461342c90919063ffffffff16565b506133ec8160088561344c9092919063ffffffff16565b505b5b5b5b5b505050565b6133ff6137b3565b6134118384600001515184855161346e565b905092915050565b600080823b905060008111915050919050565b6134346137b3565b613444838460000151518461355d565b905092915050565b6134546137b3565b6134658485600001515185856135b4565b90509392505050565b6134766137b3565b825182111561348457600080fd5b846020015182856134959190614ead565b11156134ca576134c98560026134ba886020015188876134b59190614ead565b613642565b6134c491906150a5565b61365e565b5b6000808651805187602083010193508088870111156134e95787860182525b60208701925050505b60208410613530578051825260208261350b9190614ead565b915060208161351a9190614ead565b905060208461352991906150ff565b93506134f2565b60006001856020036101000a03905080198251168184511681811785525050508692505050949350505050565b6135656137b3565b8360200151831061358b5761358a846002866020015161358591906150a5565b61365e565b5b83518051602085830101848153818614156135a7576001820183525b5050508390509392505050565b6135bc6137b3565b846020015184836135cd9190614ead565b11156135f5576135f485600286856135e59190614ead565b6135ef91906150a5565b61365e565b5b60006001836101006136079190614f87565b61361191906150ff565b905085518386820101858319825116178152815185880111156136345784870182525b505085915050949350505050565b60008183111561365457829050613658565b8190505b92915050565b6000826000015190506136718383613248565b5061367c83826133f7565b50505050565b82805461368e90615217565b90600052602060002090601f0160209004810192826136b057600085556136f7565b82601f106136c957805160ff19168380011785556136f7565b828001600101855582156136f7579182015b828111156136f65782518255916020019190600101906136db565b5b50905061370491906137cd565b5090565b604051806080016040528060008152602001600073ffffffffffffffffffffffffffffffffffffffff16815260200160008152602001600081525090565b6040518060a0016040528060008019168152602001600073ffffffffffffffffffffffffffffffffffffffff16815260200160007bffffffffffffffffffffffffffffffffffffffffffffffffffffffff19168152602001600081526020016137ad6137b3565b81525090565b604051806040016040528060608152602001600081525090565b5b808211156137e65760008160009055506001016137ce565b5090565b60006137fd6137f884614dd1565b614da0565b90508281526020810184848401111561381557600080fd5b6138208482856151d5565b509392505050565b600061383b61383684614e01565b614da0565b90508281526020810184848401111561385357600080fd5b61385e8482856151d5565b509392505050565b600081359050613875816153d8565b92915050565b60008135905061388a816153ef565b92915050565b60008151905061389f816153ef565b92915050565b6000813590506138b481615406565b92915050565b6000813590506138c98161541d565b92915050565b6000815190506138de8161541d565b92915050565b600082601f8301126138f557600080fd5b81356139058482602086016137ea565b91505092915050565b600082601f83011261391f57600080fd5b813561392f848260208601613828565b91505092915050565b60008135905061394781615434565b92915050565b60008151905061395c81615434565b92915050565b60006020828403121561397457600080fd5b600061398284828501613866565b91505092915050565b6000806040838503121561399e57600080fd5b60006139ac85828601613866565b92505060206139bd85828601613866565b9150509250929050565b6000806000606084860312156139dc57600080fd5b60006139ea86828701613866565b93505060206139fb86828701613866565b9250506040613a0c86828701613938565b9150509250925092565b60008060008060808587031215613a2c57600080fd5b6000613a3a87828801613866565b9450506020613a4b87828801613866565b9350506040613a5c87828801613938565b925050606085013567ffffffffffffffff811115613a7957600080fd5b613a85878288016138e4565b91505092959194509250565b60008060408385031215613aa457600080fd5b6000613ab285828601613866565b9250506020613ac38582860161387b565b9150509250929050565b60008060408385031215613ae057600080fd5b6000613aee85828601613866565b9250506020613aff85828601613938565b9150509250929050565b600060208284031215613b1b57600080fd5b6000613b2984828501613890565b91505092915050565b60008060408385031215613b4557600080fd5b6000613b53858286016138a5565b9250506020613b6485828601613938565b9150509250929050565b600060208284031215613b8057600080fd5b6000613b8e848285016138ba565b91505092915050565b600060208284031215613ba957600080fd5b6000613bb7848285016138cf565b91505092915050565b600060208284031215613bd257600080fd5b600082013567ffffffffffffffff811115613bec57600080fd5b613bf88482850161390e565b91505092915050565b600060208284031215613c1357600080fd5b6000613c2184828501613938565b91505092915050565b600060208284031215613c3c57600080fd5b6000613c4a8482850161394d565b91505092915050565b6000613c5f838361476c565b60808301905092915050565b613c7481615133565b82525050565b613c8381615133565b82525050565b6000613c9482614e41565b613c9e8185614e6f565b9350613ca983614e31565b8060005b83811015613cda578151613cc18882613c53565b9750613ccc83614e62565b925050600181019050613cad565b5085935050505092915050565b613cf081615145565b82525050565b613cff81615151565b82525050565b613d0e8161515b565b82525050565b6000613d1f82614e4c565b613d298185614e80565b9350613d398185602086016151e4565b613d42816153ad565b840191505092915050565b613d5e613d59826151b1565b615292565b82525050565b6000613d6f82614e57565b613d798185614e91565b9350613d898185602086016151e4565b613d92816153ad565b840191505092915050565b6000613da882614e57565b613db28185614ea2565b9350613dc28185602086016151e4565b80840191505092915050565b6000613ddb602a83614e91565b91507f43616e6e6f742075706461746520746865207061796d656e742073706c69747460008301527f65722061646472657373000000000000000000000000000000000000000000006020830152604082019050919050565b6000613e41602b83614e91565b91507f455243373231456e756d657261626c653a206f776e657220696e646578206f7560008301527f74206f6620626f756e64730000000000000000000000000000000000000000006020830152604082019050919050565b6000613ea7603283614e91565b91507f4552433732313a207472616e7366657220746f206e6f6e20455243373231526560008301527f63656976657220696d706c656d656e74657200000000000000000000000000006020830152604082019050919050565b6000613f0d600983614ea2565b91507f2f636c69636b732f3000000000000000000000000000000000000000000000006000830152600982019050919050565b6000613f4d602683614e91565b91507f4f776e61626c653a206e6577206f776e657220697320746865207a65726f206160008301527f64647265737300000000000000000000000000000000000000000000000000006020830152604082019050919050565b6000613fb3601c83614e91565b91507f4552433732313a20746f6b656e20616c7265616479206d696e746564000000006000830152602082019050919050565b6000613ff3602983614e91565b91507f436c69636b732073686f756c642062652067726561746572207468616e20707260008301527f657620636c69636b7300000000000000000000000000000000000000000000006020830152604082019050919050565b6000614059602383614e91565b91507f756e61626c6520746f207472616e73666572416e6443616c6c20746f206f726160008301527f636c6500000000000000000000000000000000000000000000000000000000006020830152604082019050919050565b60006140bf602483614e91565b91507f4552433732313a207472616e7366657220746f20746865207a65726f2061646460008301527f72657373000000000000000000000000000000000000000000000000000000006020830152604082019050919050565b6000614125601983614e91565b91507f4552433732313a20617070726f766520746f2063616c6c6572000000000000006000830152602082019050919050565b6000614165602c83614e91565b91507f4552433732313a206f70657261746f7220717565727920666f72206e6f6e657860008301527f697374656e7420746f6b656e00000000000000000000000000000000000000006020830152604082019050919050565b60006141cb603883614e91565b91507f4552433732313a20617070726f76652063616c6c6572206973206e6f74206f7760008301527f6e6572206e6f7220617070726f76656420666f7220616c6c00000000000000006020830152604082019050919050565b6000614231602a83614e91565b91507f4552433732313a2062616c616e636520717565727920666f7220746865207a6560008301527f726f2061646472657373000000000000000000000000000000000000000000006020830152604082019050919050565b6000614297602983614e91565b91507f4552433732313a206f776e657220717565727920666f72206e6f6e657869737460008301527f656e7420746f6b656e00000000000000000000000000000000000000000000006020830152604082019050919050565b60006142fd602783614ea2565b91507f68747470733a2f2f6e66746d61726174686f6e2e78797a2f6170692f6f72616360008301527f6c652f6164732f000000000000000000000000000000000000000000000000006020830152602782019050919050565b6000614363602083614e91565b91507f4552433732313a206d696e7420746f20746865207a65726f20616464726573736000830152602082019050919050565b60006143a3602c83614e91565b91507f4552433732313a20617070726f76656420717565727920666f72206e6f6e657860008301527f697374656e7420746f6b656e00000000000000000000000000000000000000006020830152604082019050919050565b6000614409602083614e91565b91507f4f776e61626c653a2063616c6c6572206973206e6f7420746865206f776e65726000830152602082019050919050565b6000614449602583614e91565b91507f4572726f7220696e206372656174696e67206163636f756e7420696e2070617960008301527f6d656e74730000000000000000000000000000000000000000000000000000006020830152604082019050919050565b60006144af602983614e91565b91507f4552433732313a207472616e73666572206f6620746f6b656e2074686174206960008301527f73206e6f74206f776e00000000000000000000000000000000000000000000006020830152604082019050919050565b6000614515602f83614e91565b91507f4552433732314d657461646174613a2055524920717565727920666f72206e6f60008301527f6e6578697374656e7420746f6b656e00000000000000000000000000000000006020830152604082019050919050565b600061457b602183614e91565b91507f4552433732313a20617070726f76616c20746f2063757272656e74206f776e6560008301527f72000000000000000000000000000000000000000000000000000000000000006020830152604082019050919050565b60006145e1602183614e91565b91507f416d6f756e742065786861757374656420666f722074686520416420746f6b6560008301527f6e000000000000000000000000000000000000000000000000000000000000006020830152604082019050919050565b6000614647603183614e91565b91507f4552433732313a207472616e736665722063616c6c6572206973206e6f74206f60008301527f776e6572206e6f7220617070726f7665640000000000000000000000000000006020830152604082019050919050565b60006146ad602c83614e91565b91507f455243373231456e756d657261626c653a20676c6f62616c20696e646578206f60008301527f7574206f6620626f756e647300000000000000000000000000000000000000006020830152604082019050919050565b6000614713602883614e91565b91507f536f75726365206d75737420626520746865206f7261636c65206f662074686560008301527f20726571756573740000000000000000000000000000000000000000000000006020830152604082019050919050565b60808201600082015161478260008501826147c1565b5060208201516147956020850182613c6b565b5060408201516147a860408501826147c1565b5060608201516147bb60608501826147c1565b50505050565b6147ca816151a7565b82525050565b6147d9816151a7565b82525050565b6147f06147eb826151a7565b6152b6565b82525050565b60006148028285613d4d565b60148201915061481282846147df565b6020820191508190509392505050565b600061482e8285613d9d565b915061483a8284613d9d565b91508190509392505050565b6000614851826142f0565b915061485d8284613d9d565b915061486882613f00565b915081905092915050565b60006020820190506148886000830184613c7a565b92915050565b60006080820190506148a36000830187613c7a565b6148b06020830186613c7a565b6148bd60408301856147d0565b81810360608301526148cf8184613d14565b905095945050505050565b60006040820190506148ef6000830185613c7a565b6148fc60208301846147d0565b9392505050565b600061010082019050614919600083018b613c7a565b614926602083018a6147d0565b6149336040830189613cf6565b6149406060830188613c7a565b61494d6080830187613d05565b61495a60a08301866147d0565b61496760c08301856147d0565b81810360e08301526149798184613d14565b90509998505050505050505050565b600060608201905061499d6000830186613c7a565b6149aa60208301856147d0565b81810360408301526149bc8184613d14565b9050949350505050565b600060208201905081810360008301526149e08184613c89565b905092915050565b60006020820190506149fd6000830184613ce7565b92915050565b6000602082019050614a186000830184613cf6565b92915050565b60006020820190508181036000830152614a388184613d64565b905092915050565b60006020820190508181036000830152614a5981613dce565b9050919050565b60006020820190508181036000830152614a7981613e34565b9050919050565b60006020820190508181036000830152614a9981613e9a565b9050919050565b60006020820190508181036000830152614ab981613f40565b9050919050565b60006020820190508181036000830152614ad981613fa6565b9050919050565b60006020820190508181036000830152614af981613fe6565b9050919050565b60006020820190508181036000830152614b198161404c565b9050919050565b60006020820190508181036000830152614b39816140b2565b9050919050565b60006020820190508181036000830152614b5981614118565b9050919050565b60006020820190508181036000830152614b7981614158565b9050919050565b60006020820190508181036000830152614b99816141be565b9050919050565b60006020820190508181036000830152614bb981614224565b9050919050565b60006020820190508181036000830152614bd98161428a565b9050919050565b60006020820190508181036000830152614bf981614356565b9050919050565b60006020820190508181036000830152614c1981614396565b9050919050565b60006020820190508181036000830152614c39816143fc565b9050919050565b60006020820190508181036000830152614c598161443c565b9050919050565b60006020820190508181036000830152614c79816144a2565b9050919050565b60006020820190508181036000830152614c9981614508565b9050919050565b60006020820190508181036000830152614cb98161456e565b9050919050565b60006020820190508181036000830152614cd9816145d4565b9050919050565b60006020820190508181036000830152614cf98161463a565b9050919050565b60006020820190508181036000830152614d19816146a0565b9050919050565b60006020820190508181036000830152614d3981614706565b9050919050565b6000602082019050614d5560008301846147d0565b92915050565b6000608082019050614d7060008301876147d0565b614d7d6020830186613c7a565b614d8a60408301856147d0565b614d9760608301846147d0565b95945050505050565b6000604051905081810181811067ffffffffffffffff82111715614dc757614dc661537e565b5b8060405250919050565b600067ffffffffffffffff821115614dec57614deb61537e565b5b601f19601f8301169050602081019050919050565b600067ffffffffffffffff821115614e1c57614e1b61537e565b5b601f19601f8301169050602081019050919050565b6000819050602082019050919050565b600081519050919050565b600081519050919050565b600081519050919050565b6000602082019050919050565b600082825260208201905092915050565b600082825260208201905092915050565b600082825260208201905092915050565b600081905092915050565b6000614eb8826151a7565b9150614ec3836151a7565b9250827fffffffffffffffffffffffffffffffffffffffffffffffffffffffffffffffff03821115614ef857614ef76152f1565b5b828201905092915050565b6000614f0e826151a7565b9150614f19836151a7565b925082614f2957614f28615320565b5b828204905092915050565b6000808291508390505b6001851115614f7e57808604811115614f5a57614f596152f1565b5b6001851615614f695780820291505b8081029050614f77856153cb565b9450614f3e565b94509492505050565b6000614f92826151a7565b9150614f9d836151a7565b9250614fca7fffffffffffffffffffffffffffffffffffffffffffffffffffffffffffffffff8484614fd2565b905092915050565b600082614fe2576001905061509e565b81614ff0576000905061509e565b816001811461500657600281146150105761503f565b600191505061509e565b60ff841115615022576150216152f1565b5b8360020a915084821115615039576150386152f1565b5b5061509e565b5060208310610133831016604e8410600b84101617156150745782820a90508381111561506f5761506e6152f1565b5b61509e565b6150818484846001614f34565b92509050818404811115615098576150976152f1565b5b81810290505b9392505050565b60006150b0826151a7565b91506150bb836151a7565b9250817fffffffffffffffffffffffffffffffffffffffffffffffffffffffffffffffff04831182151516156150f4576150f36152f1565b5b828202905092915050565b600061510a826151a7565b9150615115836151a7565b925082821015615128576151276152f1565b5b828203905092915050565b600061513e82615187565b9050919050565b60008115159050919050565b6000819050919050565b60007fffffffff0000000000000000000000000000000000000000000000000000000082169050919050565b600073ffffffffffffffffffffffffffffffffffffffff82169050919050565b6000819050919050565b60006151bc826151c3565b9050919050565b60006151ce82615187565b9050919050565b82818337600083830152505050565b60005b838110156152025780820151818401526020810190506151e7565b83811115615211576000848401525b50505050565b6000600282049050600182168061522f57607f821691505b602082108114156152435761524261534f565b5b50919050565b6000615254826151a7565b91507fffffffffffffffffffffffffffffffffffffffffffffffffffffffffffffffff821415615287576152866152f1565b5b600182019050919050565b600061529d826152a4565b9050919050565b60006152af826153be565b9050919050565b6000819050919050565b60006152cb826151a7565b91506152d6836151a7565b9250826152e6576152e5615320565b5b828206905092915050565b7f4e487b7100000000000000000000000000000000000000000000000000000000600052601160045260246000fd5b7f4e487b7100000000000000000000000000000000000000000000000000000000600052601260045260246000fd5b7f4e487b7100000000000000000000000000000000000000000000000000000000600052602260045260246000fd5b7f4e487b7100000000000000000000000000000000000000000000000000000000600052604160045260246000fd5b6000601f19601f8301169050919050565b60008160601b9050919050565b60008160011c9050919050565b6153e181615133565b81146153ec57600080fd5b50565b6153f881615145565b811461540357600080fd5b50565b61540f81615151565b811461541a57600080fd5b50565b6154268161515b565b811461543157600080fd5b50565b61543d816151a7565b811461544857600080fd5b5056fea2646970667358221220bfdae65e16c544cac303e9345268be2a67bebf400a9f140c1707a15a1174afa264736f6c63430008000033",
  "immutableReferences": {},
  "source": "//SPDX-License-Identifier: MIT\r\npragma solidity ^0.8.0;\r\n\r\nimport \"@openzeppelin/contracts/token/ERC721/ERC721.sol\";\r\nimport \"@openzeppelin/contracts/access/Ownable.sol\";\r\nimport \"@chainlink/contracts/src/v0.8/ChainlinkClient.sol\";\r\nimport \"@openzeppelin/contracts/utils/Counters.sol\";\r\nimport \"@openzeppelin/contracts/utils/Strings.sol\";\r\nimport \"@openzeppelin/contracts/token/ERC721/extensions/ERC721Enumerable.sol\";\r\nimport \"./interfaces/IPaymentSplitter.sol\";\r\n\r\ncontract AdBasedNFTs is ERC721Enumerable, Ownable, ChainlinkClient {\r\n    event AdAmountExhausted(uint256 tokenId);\r\n    using Chainlink for Chainlink.Request;\r\n    using Strings for uint256;\r\n    string baseURI = \"\";\r\n    uint256 DIV_MULTIPLIER_PER_CLICK = 0.001 ether;\r\n    mapping(uint256 => metadata) public _tokenInfo;\r\n    mapping(bytes32 => uint256) _requestedData;\r\n    address private oracle;\r\n    bytes32 private jobId;\r\n    uint256 private fee;\r\n    address private _paymentSplitter;\r\n    struct metadata {\r\n        uint256 tokenId;\r\n        address ownerOfWebsite;\r\n        uint256 clicks;\r\n        uint256 amount;\r\n    }\r\n\r\n    constructor(string memory _baseTokenURI, address paymentSplitter, address _link)\r\n    ERC721(\"Ad Tokertize\", \"aTKTZ\")\r\n    {\r\n        setPaymentSplitter(paymentSplitter);\r\n        setbaseURI(_baseTokenURI);\r\n        if(_link == address(0)) {\r\n            setPublicChainlinkToken();\r\n        } else {\r\n            setChainlinkToken(_link);\r\n        }\r\n        oracle = 0xc57B33452b4F7BB189bB5AfaE9cc4aBa1f7a4FD8;\r\n        jobId = \"d5270d1c311941d0b08bead21fea7747\";\r\n        fee = 0.1 * 10**18;\r\n    }\r\n\r\n    function mintAdToken(\r\n        uint256 _adCode\r\n    ) public payable returns (uint256) {\r\n        require(!_exists(_adCode));\r\n        _tokenInfo[_adCode] = metadata(_adCode, msg.sender, 0, msg.value);\r\n        require(IPaymentSplitter(_paymentSplitter).addAdAccount{value: msg.value}(msg.sender, _adCode) == _adCode,\"Error in creating account in payments\");\r\n        _safeMint(msg.sender, _adCode);\r\n        return _adCode;\r\n    }\r\n\r\n    function _baseURI() internal view virtual override returns (string memory) {\r\n        return baseURI;\r\n    }\r\n\r\n    function getTokenURI(uint256 tokenId) public view returns (string memory) {\r\n        return tokenURI(tokenId);\r\n    }\r\n\r\n    function setbaseURI(string memory _tokenURI) public onlyOwner {\r\n        baseURI = _tokenURI;\r\n    }\r\n    \r\n    function getTokenData() public view returns (metadata[] memory) {\r\n        uint256 lastTokenIndex = totalSupply();\r\n        metadata[] memory ret = new metadata[](lastTokenIndex);\r\n        for (uint256 i = 0; i < lastTokenIndex; i++) {\r\n            ret[i] = _tokenInfo[tokenByIndex(i)];\r\n        }\r\n        return ret;\r\n    }\r\n\r\n    function setPaymentSplitter(address paymentSplitter) public onlyOwner {\r\n        require(\r\n            address(paymentSplitter) != address(0) ||\r\n            address(paymentSplitter) != address(this),\r\n            \"Cannot update the payment splitter address\"\r\n        );\r\n        _paymentSplitter = paymentSplitter;\r\n    }\r\n\r\n    function updateDivMultiplier(uint256 minAmount) external onlyOwner {\r\n        DIV_MULTIPLIER_PER_CLICK = minAmount;\r\n    }\r\n\r\n    function requestTokenData(uint256 tokenId) public returns (bytes32) {\r\n        Chainlink.Request memory request = buildChainlinkRequest(\r\n            jobId,\r\n            address(this),\r\n            this.updateTokenData.selector\r\n        );\r\n\r\n        // Set the URL to perform the GET request on\r\n\r\n        request.add(\r\n            \"get\",\r\n            string(\r\n                abi.encodePacked(\r\n                    \"https://nftmarathon.xyz/api/oracle/ads/\",\r\n                    tokenId.toString(),\r\n                    \"/clicks/0\"\r\n                )\r\n            )\r\n        );\r\n\r\n        request.add(\"path\", \"clicks\");\r\n        bytes32 requestId = sendChainlinkRequestTo(oracle, request, fee);\r\n        _requestedData[requestId] = tokenId;\r\n\r\n        // Sends the request\r\n        return requestId;\r\n    }\r\n\r\n    function updateTokenData(bytes32 _requestId, uint256 _clicks)\r\n    public\r\n    recordChainlinkFulfillment(_requestId)\r\n    {\r\n        require(\r\n            _clicks > _tokenInfo[_requestedData[_requestId]].clicks,\r\n            \"Clicks should be greater than prev clicks\"\r\n        );\r\n        uint256 updatedNumber = _clicks -\r\n        _tokenInfo[_requestedData[_requestId]].clicks;\r\n        uint256 payment = (updatedNumber * DIV_MULTIPLIER_PER_CLICK);\r\n        if(_tokenInfo[_requestedData[_requestId]].amount < payment){\r\n            emit AdAmountExhausted(_requestedData[_requestId]);\r\n        }\r\n        require(_tokenInfo[_requestedData[_requestId]].amount < payment, \"Amount exhausted for the Ad token\");\r\n        _tokenInfo[_requestedData[_requestId]].amount -= payment;\r\n        _tokenInfo[_requestedData[_requestId]].clicks = _clicks;\r\n    }\r\n}\r\n",
  "sourcePath": "C:\\git2021\\nftmarathon\\src\\smart-contract\\contracts\\AdBasedNFTs.sol",
  "compiler": {
    "name": "solc",
    "version": "0.8.0+commit.c7dfd78e.Emscripten.clang"
  },
  "schemaVersion": "3.4.3",
  "updatedAt": "2021-11-28T16:23:44.506Z",
  "networkType": "ethereum",
  "devdoc": {
    "kind": "dev",
    "methods": {
      "approve(address,uint256)": {
        "details": "See {IERC721-approve}."
      },
      "balanceOf(address)": {
        "details": "See {IERC721-balanceOf}."
      },
      "getApproved(uint256)": {
        "details": "See {IERC721-getApproved}."
      },
      "isApprovedForAll(address,address)": {
        "details": "See {IERC721-isApprovedForAll}."
      },
      "name()": {
        "details": "See {IERC721Metadata-name}."
      },
      "owner()": {
        "details": "Returns the address of the current owner."
      },
      "ownerOf(uint256)": {
        "details": "See {IERC721-ownerOf}."
      },
      "renounceOwnership()": {
        "details": "Leaves the contract without owner. It will not be possible to call `onlyOwner` functions anymore. Can only be called by the current owner. NOTE: Renouncing ownership will leave the contract without an owner, thereby removing any functionality that is only available to the owner."
      },
      "safeTransferFrom(address,address,uint256)": {
        "details": "See {IERC721-safeTransferFrom}."
      },
      "safeTransferFrom(address,address,uint256,bytes)": {
        "details": "See {IERC721-safeTransferFrom}."
      },
      "setApprovalForAll(address,bool)": {
        "details": "See {IERC721-setApprovalForAll}."
      },
      "supportsInterface(bytes4)": {
        "details": "See {IERC165-supportsInterface}."
      },
      "symbol()": {
        "details": "See {IERC721Metadata-symbol}."
      },
      "tokenByIndex(uint256)": {
        "details": "See {IERC721Enumerable-tokenByIndex}."
      },
      "tokenOfOwnerByIndex(address,uint256)": {
        "details": "See {IERC721Enumerable-tokenOfOwnerByIndex}."
      },
      "tokenURI(uint256)": {
        "details": "See {IERC721Metadata-tokenURI}."
      },
      "totalSupply()": {
        "details": "See {IERC721Enumerable-totalSupply}."
      },
      "transferFrom(address,address,uint256)": {
        "details": "See {IERC721-transferFrom}."
      },
      "transferOwnership(address)": {
        "details": "Transfers ownership of the contract to a new account (`newOwner`). Can only be called by the current owner."
      }
    },
    "version": 1
  },
  "userdoc": {
    "kind": "user",
    "methods": {},
    "version": 1
  }
}