{
  "contractName": "PaySplitter",
  "abi": [
    {
      "inputs": [
        {
          "internalType": "address",
          "name": "_link",
          "type": "address"
        }
      ],
      "stateMutability": "nonpayable",
      "type": "constructor"
    },
    {
      "anonymous": false,
      "inputs": [
        {
          "indexed": true,
          "internalType": "bytes32",
          "name": "id",
          "type": "bytes32"
        }
      ],
      "name": "ChainlinkCancelled",
      "type": "event"
    },
    {
      "anonymous": false,
      "inputs": [
        {
          "indexed": true,
          "internalType": "bytes32",
          "name": "id",
          "type": "bytes32"
        }
      ],
      "name": "ChainlinkFulfilled",
      "type": "event"
    },
    {
      "anonymous": false,
      "inputs": [
        {
          "indexed": true,
          "internalType": "bytes32",
          "name": "id",
          "type": "bytes32"
        }
      ],
      "name": "ChainlinkRequested",
      "type": "event"
    },
    {
      "anonymous": false,
      "inputs": [
        {
          "indexed": true,
          "internalType": "address",
          "name": "previousOwner",
          "type": "address"
        },
        {
          "indexed": true,
          "internalType": "address",
          "name": "newOwner",
          "type": "address"
        }
      ],
      "name": "OwnershipTransferred",
      "type": "event"
    },
    {
      "anonymous": false,
      "inputs": [
        {
          "indexed": false,
          "internalType": "address",
          "name": "account",
          "type": "address"
        },
        {
          "indexed": false,
          "internalType": "uint256",
          "name": "amount",
          "type": "uint256"
        },
        {
          "indexed": false,
          "internalType": "uint256",
          "name": "tokenId",
          "type": "uint256"
        }
      ],
      "name": "PayeeAdded",
      "type": "event"
    },
    {
      "anonymous": false,
      "inputs": [
        {
          "indexed": false,
          "internalType": "address",
          "name": "from",
          "type": "address"
        },
        {
          "indexed": false,
          "internalType": "uint256",
          "name": "amount",
          "type": "uint256"
        }
      ],
      "name": "PaymentReceived",
      "type": "event"
    },
    {
      "anonymous": false,
      "inputs": [
        {
          "indexed": false,
          "internalType": "address",
          "name": "from",
          "type": "address"
        },
        {
          "indexed": false,
          "internalType": "uint256",
          "name": "amount",
          "type": "uint256"
        },
        {
          "indexed": false,
          "internalType": "uint256",
          "name": "tokenId",
          "type": "uint256"
        }
      ],
      "name": "PaymentReceivedByAddress",
      "type": "event"
    },
    {
      "anonymous": false,
      "inputs": [
        {
          "indexed": false,
          "internalType": "address",
          "name": "to",
          "type": "address"
        },
        {
          "indexed": false,
          "internalType": "uint256",
          "name": "amount",
          "type": "uint256"
        }
      ],
      "name": "PaymentReleased",
      "type": "event"
    },
    {
      "stateMutability": "payable",
      "type": "fallback",
      "payable": true
    },
    {
      "inputs": [],
      "name": "MIN_AMOUNT_ETHER",
      "outputs": [
        {
          "internalType": "uint256",
          "name": "",
          "type": "uint256"
        }
      ],
      "stateMutability": "view",
      "type": "function",
      "constant": true
    },
    {
      "inputs": [],
      "name": "owner",
      "outputs": [
        {
          "internalType": "address",
          "name": "",
          "type": "address"
        }
      ],
      "stateMutability": "view",
      "type": "function",
      "constant": true
    },
    {
      "inputs": [],
      "name": "renounceOwnership",
      "outputs": [],
      "stateMutability": "nonpayable",
      "type": "function"
    },
    {
      "inputs": [
        {
          "internalType": "address",
          "name": "newOwner",
          "type": "address"
        }
      ],
      "name": "transferOwnership",
      "outputs": [],
      "stateMutability": "nonpayable",
      "type": "function"
    },
    {
      "stateMutability": "payable",
      "type": "receive",
      "payable": true
    },
    {
      "inputs": [
        {
          "internalType": "uint256",
          "name": "tokenId",
          "type": "uint256"
        }
      ],
      "name": "emergencyRefund",
      "outputs": [],
      "stateMutability": "nonpayable",
      "type": "function"
    },
    {
      "inputs": [
        {
          "internalType": "address",
          "name": "_webOwner",
          "type": "address"
        },
        {
          "internalType": "uint256",
          "name": "tokenId",
          "type": "uint256"
        }
      ],
      "name": "addWebAccount",
      "outputs": [
        {
          "internalType": "uint256",
          "name": "",
          "type": "uint256"
        }
      ],
      "stateMutability": "nonpayable",
      "type": "function"
    },
    {
      "inputs": [
        {
          "internalType": "address",
          "name": "_adOwner",
          "type": "address"
        },
        {
          "internalType": "uint256",
          "name": "tokenId",
          "type": "uint256"
        }
      ],
      "name": "addAdAccount",
      "outputs": [
        {
          "internalType": "uint256",
          "name": "",
          "type": "uint256"
        }
      ],
      "stateMutability": "payable",
      "type": "function",
      "payable": true
    },
    {
      "inputs": [
        {
          "internalType": "uint256",
          "name": "minAmount",
          "type": "uint256"
        }
      ],
      "name": "updateDivMultiplier",
      "outputs": [],
      "stateMutability": "nonpayable",
      "type": "function"
    },
    {
      "inputs": [],
      "name": "totalShares",
      "outputs": [
        {
          "internalType": "uint256",
          "name": "",
          "type": "uint256"
        }
      ],
      "stateMutability": "view",
      "type": "function",
      "constant": true
    },
    {
      "inputs": [],
      "name": "totalReleased",
      "outputs": [
        {
          "internalType": "uint256",
          "name": "",
          "type": "uint256"
        }
      ],
      "stateMutability": "view",
      "type": "function",
      "constant": true
    },
    {
      "inputs": [
        {
          "internalType": "address",
          "name": "account",
          "type": "address"
        }
      ],
      "name": "shares",
      "outputs": [
        {
          "internalType": "uint256",
          "name": "",
          "type": "uint256"
        }
      ],
      "stateMutability": "view",
      "type": "function",
      "constant": true
    },
    {
      "inputs": [
        {
          "internalType": "address",
          "name": "account",
          "type": "address"
        }
      ],
      "name": "released",
      "outputs": [
        {
          "internalType": "uint256",
          "name": "",
          "type": "uint256"
        }
      ],
      "stateMutability": "view",
      "type": "function",
      "constant": true
    },
    {
      "inputs": [
        {
          "internalType": "uint256",
          "name": "index",
          "type": "uint256"
        }
      ],
      "name": "adPayee",
      "outputs": [
        {
          "internalType": "uint256",
          "name": "",
          "type": "uint256"
        }
      ],
      "stateMutability": "view",
      "type": "function",
      "constant": true
    },
    {
      "inputs": [
        {
          "internalType": "uint256",
          "name": "index",
          "type": "uint256"
        }
      ],
      "name": "webPayee",
      "outputs": [
        {
          "internalType": "uint256",
          "name": "",
          "type": "uint256"
        }
      ],
      "stateMutability": "view",
      "type": "function",
      "constant": true
    },
    {
      "inputs": [
        {
          "internalType": "uint256",
          "name": "tokenId",
          "type": "uint256"
        }
      ],
      "name": "releaseAdPayment",
      "outputs": [],
      "stateMutability": "nonpayable",
      "type": "function"
    },
    {
      "inputs": [
        {
          "internalType": "uint256",
          "name": "tokenId",
          "type": "uint256"
        }
      ],
      "name": "withdrawWebAmount",
      "outputs": [
        {
          "internalType": "bytes32",
          "name": "",
          "type": "bytes32"
        }
      ],
      "stateMutability": "nonpayable",
      "type": "function"
    },
    {
      "inputs": [
        {
          "internalType": "bytes32",
          "name": "_requestId",
          "type": "bytes32"
        },
        {
          "internalType": "uint256",
          "name": "clicks",
          "type": "uint256"
        }
      ],
      "name": "updateWebTokenAmount",
      "outputs": [],
      "stateMutability": "nonpayable",
      "type": "function"
    }
  ],
  "bytecode": "0x6080604052600160055566038d7ea4c6800060075566038d7ea4c68000600b553480156200002c57600080fd5b506040516200344438038062003444833981810160405281019062000052919062000331565b62000072620000666200016260201b60201c565b6200016a60201b60201c565b600073ffffffffffffffffffffffffffffffffffffffff168173ffffffffffffffffffffffffffffffffffffffff161415620000be57620000b86200022e60201b60201c565b620000d0565b620000cf81620002d660201b60201c565b5b73c57b33452b4f7bb189bb5afae9cc4aba1f7a4fd8601360006101000a81548173ffffffffffffffffffffffffffffffffffffffff021916908373ffffffffffffffffffffffffffffffffffffffff1602179055507f643532373064316333313139343164306230386265616432316665613737343760148190555067016345785d8a000060158190555050620003ab565b600033905090565b60008060009054906101000a900473ffffffffffffffffffffffffffffffffffffffff169050816000806101000a81548173ffffffffffffffffffffffffffffffffffffffff021916908373ffffffffffffffffffffffffffffffffffffffff1602179055508173ffffffffffffffffffffffffffffffffffffffff168173ffffffffffffffffffffffffffffffffffffffff167f8be0079c531659141344cd1fd0a4f28419497f9722a3daafe3b4186f6b6457e060405160405180910390a35050565b620002d473c89bd4e1632d3a43cb03aaad5262cbe4038bc57173ffffffffffffffffffffffffffffffffffffffff166338cc48316040518163ffffffff1660e01b815260040160206040518083038186803b1580156200028d57600080fd5b505afa158015620002a2573d6000803e3d6000fd5b505050506040513d601f19601f82011682018060405250810190620002c8919062000331565b620002d660201b60201c565b565b80600360006101000a81548173ffffffffffffffffffffffffffffffffffffffff021916908373ffffffffffffffffffffffffffffffffffffffff16021790555050565b6000815190506200032b8162000391565b92915050565b6000602082840312156200034457600080fd5b600062000354848285016200031a565b91505092915050565b60006200036a8262000371565b9050919050565b600073ffffffffffffffffffffffffffffffffffffffff82169050919050565b6200039c816200035d565b8114620003a857600080fd5b50565b61308980620003bb6000396000f3fe6080604052600436106101025760003560e01c80638da5cb5b11610095578063c865196411610064578063c86519641461037b578063ce7c2ac2146103b8578063d6ec761f146103f5578063e33b7de314610425578063f2fde38b1461045057610149565b80638da5cb5b146102ab5780639852595c146102d6578063a79b9a0214610313578063c695b6b81461033e57610149565b8063545b3d09116100d1578063545b3d09146102195780635efe71b61461024257806370e5deb91461026b578063715018a61461029457610149565b806312890b9d1461014b57806315ba3b201461018857806327c5d07b146101b15780633a98ef39146101ee57610149565b36610149577f6ef95f06320e7a25a04a175ca677b7052bdd97131872c2192525a629f51be770610130610479565b3460405161013f9291906127fc565b60405180910390a1005b005b34801561015757600080fd5b50610172600480360381019061016d919061212d565b610481565b60405161017f9190612aba565b60405180910390f35b34801561019457600080fd5b506101af60048036038101906101aa91906120f1565b6104cf565b005b3480156101bd57600080fd5b506101d860048036038101906101d3919061212d565b6106ff565b6040516101e59190612aba565b60405180910390f35b3480156101fa57600080fd5b5061020361074d565b6040516102109190612aba565b60405180910390f35b34801561022557600080fd5b50610240600480360381019061023b919061212d565b610757565b005b34801561024e57600080fd5b506102696004803603810190610264919061212d565b6109b2565b005b34801561027757600080fd5b50610292600480360381019061028d919061212d565b610a38565b005b3480156102a057600080fd5b506102a9610a3b565b005b3480156102b757600080fd5b506102c0610ac3565b6040516102cd9190612781565b60405180910390f35b3480156102e257600080fd5b506102fd60048036038101906102f89190612063565b610aec565b60405161030a9190612aba565b60405180910390f35b34801561031f57600080fd5b50610328610b35565b6040516103359190612aba565b60405180910390f35b34801561034a57600080fd5b506103656004803603810190610360919061212d565b610b3b565b604051610372919061291f565b60405180910390f35b34801561038757600080fd5b506103a2600480360381019061039d919061208c565b610def565b6040516103af9190612aba565b60405180910390f35b3480156103c457600080fd5b506103df60048036038101906103da9190612063565b61107f565b6040516103ec9190612aba565b60405180910390f35b61040f600480360381019061040a919061208c565b6110c8565b60405161041c9190612aba565b60405180910390f35b34801561043157600080fd5b5061043a611339565b6040516104479190612aba565b60405180910390f35b34801561045c57600080fd5b5061047760048036038101906104729190612063565b611343565b005b600033905090565b6000601282815481106104bd577f4e487b7100000000000000000000000000000000000000000000000000000000600052603260045260246000fd5b90600052602060002001549050919050565b816006600082815260200190815260200160002060009054906101000a900473ffffffffffffffffffffffffffffffffffffffff1673ffffffffffffffffffffffffffffffffffffffff163373ffffffffffffffffffffffffffffffffffffffff1614610571576040517f08c379a000000000000000000000000000000000000000000000000000000000815260040161056890612a7a565b60405180910390fd5b6006600082815260200190815260200160002060006101000a81549073ffffffffffffffffffffffffffffffffffffffff0219169055807f7cc135e0cebb02c3480ae5d74d377283180a2601f8f644edf7987b009316c63a60405160405180910390a260166000600f600086815260200190815260200160002054815260200190815260200160002060050154821161063f576040517f08c379a00000000000000000000000000000000000000000000000000000000081526004016106369061299a565b60405180910390fd5b600060166000600f600087815260200190815260200160002054815260200190815260200160002060050154836106769190612d75565b90506000600754826106889190612d1b565b90508060166000600f600089815260200190815260200160002054815260200190815260200160002060040160008282546106c39190612b23565b925050819055508360166000600f6000898152602001908152602001600020548152602001908152602001600020600501819055505050505050565b60006011828154811061073b577f4e487b7100000000000000000000000000000000000000000000000000000000600052603260045260246000fd5b90600052602060002001549050919050565b6000600854905090565b60006016600083815260200190815260200160002060010160009054906101000a900473ffffffffffffffffffffffffffffffffffffffff169050600060166000848152602001908152602001600020600401549050600060166000858152602001908152602001600020600401819055506000811161080c576040517f08c379a000000000000000000000000000000000000000000000000000000000815260040161080390612a1a565b60405180910390fd5b60405180604001604052808373ffffffffffffffffffffffffffffffffffffffff168152602001828152506010600085815260200190815260200160002060008201518160000160006101000a81548173ffffffffffffffffffffffffffffffffffffffff021916908373ffffffffffffffffffffffffffffffffffffffff1602179055506020820151816001015590505080600d60008473ffffffffffffffffffffffffffffffffffffffff1673ffffffffffffffffffffffffffffffffffffffff168152602001908152602001600020546108e99190612b23565b600d60008473ffffffffffffffffffffffffffffffffffffffff1673ffffffffffffffffffffffffffffffffffffffff1681526020019081526020016000208190555080600e6000858152602001908152602001600020600082825461094f9190612b23565b92505081905550806009546109649190612b23565b600981905550610974828261143b565b7fdf20fd1e76bc69d672e4814fafb2c449bba3a5369d8359adf9e05e6fde87b05682826040516109a592919061279c565b60405180910390a1505050565b6109ba610479565b73ffffffffffffffffffffffffffffffffffffffff166109d8610ac3565b73ffffffffffffffffffffffffffffffffffffffff1614610a2e576040517f08c379a0000000000000000000000000000000000000000000000000000000008152600401610a2590612a3a565b60405180910390fd5b8060078190555050565b50565b610a43610479565b73ffffffffffffffffffffffffffffffffffffffff16610a61610ac3565b73ffffffffffffffffffffffffffffffffffffffff1614610ab7576040517f08c379a0000000000000000000000000000000000000000000000000000000008152600401610aae90612a3a565b60405180910390fd5b610ac1600061152f565b565b60008060009054906101000a900473ffffffffffffffffffffffffffffffffffffffff16905090565b6000600d60008373ffffffffffffffffffffffffffffffffffffffff1673ffffffffffffffffffffffffffffffffffffffff168152602001908152602001600020549050919050565b600b5481565b60003382610b47610479565b73ffffffffffffffffffffffffffffffffffffffff166016600083815260200190815260200160002060010160009054906101000a900473ffffffffffffffffffffffffffffffffffffffff1673ffffffffffffffffffffffffffffffffffffffff1614610bea576040517f08c379a0000000000000000000000000000000000000000000000000000000008152600401610be190612a5a565b60405180910390fd5b600073ffffffffffffffffffffffffffffffffffffffff166016600086815260200190815260200160002060010160009054906101000a900473ffffffffffffffffffffffffffffffffffffffff1673ffffffffffffffffffffffffffffffffffffffff161415610c90576040517f08c379a0000000000000000000000000000000000000000000000000000000008152600401610c879061293a565b60405180910390fd5b6000610ca6601454306315ba3b2060e01b6115f3565b9050610d196040518060400160405280600381526020017f6765740000000000000000000000000000000000000000000000000000000000815250610cea87611624565b604051602001610cfa919061274a565b604051602081830303815290604052836117d19092919063ffffffff16565b610d986040518060400160405280600481526020017f70617468000000000000000000000000000000000000000000000000000000008152506040518060400160405280600681526020017f636c69636b730000000000000000000000000000000000000000000000000000815250836117d19092919063ffffffff16565b6000610dc9601360009054906101000a900473ffffffffffffffffffffffffffffffffffffffff1683601554611804565b905085600f60008381526020019081526020016000208190555080945050505050919050565b60008073ffffffffffffffffffffffffffffffffffffffff166016600084815260200190815260200160002060010160009054906101000a900473ffffffffffffffffffffffffffffffffffffffff1673ffffffffffffffffffffffffffffffffffffffff1614610e95576040517f08c379a0000000000000000000000000000000000000000000000000000000008152600401610e8c9061295a565b60405180910390fd5b60128290806001815401808255809150506001900390600052602060002001600090919091909150556040518060c0016040528060126001601280549050610edd9190612d75565b81548110610f14577f4e487b7100000000000000000000000000000000000000000000000000000000600052603260045260246000fd5b906000526020600020015481526020018473ffffffffffffffffffffffffffffffffffffffff1681526020018381526020018473ffffffffffffffffffffffffffffffffffffffff168152602001600081526020016000815250601660008481526020019081526020016000206000820151816000015560208201518160010160006101000a81548173ffffffffffffffffffffffffffffffffffffffff021916908373ffffffffffffffffffffffffffffffffffffffff1602179055506040820151816002015560608201518160030160006101000a81548173ffffffffffffffffffffffffffffffffffffffff021916908373ffffffffffffffffffffffffffffffffffffffff1602179055506080820151816004015560a082015181600501559050507fb3c52e7e1d58db9d4d5f530a5a71ac54a2fd63e3fcaed60f24c35adf352c21e18360008460405161106e939291906127c5565b60405180910390a181905092915050565b6000600c60008373ffffffffffffffffffffffffffffffffffffffff1673ffffffffffffffffffffffffffffffffffffffff168152602001908152602001600020549050919050565b6000600b5434101561110f576040517f08c379a000000000000000000000000000000000000000000000000000000000815260040161110690612a9a565b60405180910390fd5b600073ffffffffffffffffffffffffffffffffffffffff166017600084815260200190815260200160002060010160009054906101000a900473ffffffffffffffffffffffffffffffffffffffff1673ffffffffffffffffffffffffffffffffffffffff16146111b4576040517f08c379a00000000000000000000000000000000000000000000000000000000081526004016111ab9061295a565b60405180910390fd5b60118290806001815401808255809150506001900390600052602060002001600090919091909150556040518060a00160405280601160016011805490506111fc9190612d75565b81548110611233577f4e487b7100000000000000000000000000000000000000000000000000000000600052603260045260246000fd5b906000526020600020015481526020018473ffffffffffffffffffffffffffffffffffffffff1681526020018381526020013481526020016000815250601760008481526020019081526020016000206000820151816000015560208201518160010160006101000a81548173ffffffffffffffffffffffffffffffffffffffff021916908373ffffffffffffffffffffffffffffffffffffffff1602179055506040820151816002015560608201518160030155608082015181600401559050507fb3c52e7e1d58db9d4d5f530a5a71ac54a2fd63e3fcaed60f24c35adf352c21e1833484604051611328939291906128e8565b60405180910390a181905092915050565b6000600954905090565b61134b610479565b73ffffffffffffffffffffffffffffffffffffffff16611369610ac3565b73ffffffffffffffffffffffffffffffffffffffff16146113bf576040517f08c379a00000000000000000000000000000000000000000000000000000000081526004016113b690612a3a565b60405180910390fd5b600073ffffffffffffffffffffffffffffffffffffffff168173ffffffffffffffffffffffffffffffffffffffff16141561142f576040517f08c379a00000000000000000000000000000000000000000000000000000000081526004016114269061297a565b60405180910390fd5b6114388161152f565b50565b8047101561147e576040517f08c379a0000000000000000000000000000000000000000000000000000000008152600401611475906129fa565b60405180910390fd5b60008273ffffffffffffffffffffffffffffffffffffffff16826040516114a49061276c565b60006040518083038185875af1925050503d80600081146114e1576040519150601f19603f3d011682016040523d82523d6000602084013e6114e6565b606091505b505090508061152a576040517f08c379a0000000000000000000000000000000000000000000000000000000008152600401611521906129da565b60405180910390fd5b505050565b60008060009054906101000a900473ffffffffffffffffffffffffffffffffffffffff169050816000806101000a81548173ffffffffffffffffffffffffffffffffffffffff021916908373ffffffffffffffffffffffffffffffffffffffff1602179055508173ffffffffffffffffffffffffffffffffffffffff168173ffffffffffffffffffffffffffffffffffffffff167f8be0079c531659141344cd1fd0a4f28419497f9722a3daafe3b4186f6b6457e060405160405180910390a35050565b6115fb611f88565b611603611f88565b61161a85858584611824909392919063ffffffff16565b9150509392505050565b6060600082141561166c576040518060400160405280600181526020017f300000000000000000000000000000000000000000000000000000000000000081525090506117cc565b600082905060005b6000821461169e57808061168790612ec6565b915050600a826116979190612b79565b9150611674565b60008167ffffffffffffffff8111156116e0577f4e487b7100000000000000000000000000000000000000000000000000000000600052604160045260246000fd5b6040519080825280601f01601f1916602001820160405280156117125781602001600182028036833780820191505090505b5090505b600085146117c55760018261172b9190612d75565b9150600a8561173a9190612f3d565b60306117469190612b23565b60f81b818381518110611782577f4e487b7100000000000000000000000000000000000000000000000000000000600052603260045260246000fd5b60200101907effffffffffffffffffffffffffffffffffffffffffffffffffffffffffffff1916908160001a905350600a856117be9190612b79565b9450611716565b8093505050505b919050565b6117e88284608001516118d490919063ffffffff16565b6117ff8184608001516118d490919063ffffffff16565b505050565b600061181b8484846001634042994660e01b6118f9565b90509392505050565b61182c611f88565b61183c8560800151610100611b61565b508385600001818152505082856020019073ffffffffffffffffffffffffffffffffffffffff16908173ffffffffffffffffffffffffffffffffffffffff16815250508185604001907bffffffffffffffffffffffffffffffffffffffffffffffffffffffff191690817bffffffffffffffffffffffffffffffffffffffffffffffffffffffff191681525050849050949350505050565b6118e18260038351611bcb565b6118f48183611d1090919063ffffffff16565b505050565b60003060055460405160200161191092919061271e565b604051602081830303815290604052805190602001209050600554856060018181525050856006600083815260200190815260200160002060006101000a81548173ffffffffffffffffffffffffffffffffffffffff021916908373ffffffffffffffffffffffffffffffffffffffff160217905550807fb5e6e01e79f91267dc17b4e6314d5d4d03593d2ceee0fbb452b750bd70ea5af960405160405180910390a2600082600080886000015189602001518a604001518b606001518a8d60800151600001516040516024016119ee989796959493929190612825565b604051602081830303815290604052907bffffffffffffffffffffffffffffffffffffffffffffffffffffffff19166020820180517bffffffffffffffffffffffffffffffffffffffffffffffffffffffff83818316178352505050509050600360009054906101000a900473ffffffffffffffffffffffffffffffffffffffff1673ffffffffffffffffffffffffffffffffffffffff16634000aea08887846040518463ffffffff1660e01b8152600401611aac939291906128aa565b602060405180830381600087803b158015611ac657600080fd5b505af1158015611ada573d6000803e3d6000fd5b505050506040513d601f19601f82011682018060405250810190611afe91906120c8565b611b3d576040517f08c379a0000000000000000000000000000000000000000000000000000000008152600401611b34906129ba565b60405180910390fd5b600160056000828254611b509190612b23565b925050819055505095945050505050565b611b69611ff5565b6000602083611b789190612f3d565b14611ba457602082611b8a9190612f3d565b6020611b969190612d75565b82611ba19190612b23565b91505b81836020018181525050604051808452600081528281016020016040525082905092915050565b60178111611bf857611bf28160058460ff16901b60ff161784611d3290919063ffffffff16565b50611d0b565b60ff8111611c3a57611c1d601860058460ff16901b1784611d3290919063ffffffff16565b50611c3481600185611d529092919063ffffffff16565b50611d0a565b61ffff8111611c7d57611c60601960058460ff16901b1784611d3290919063ffffffff16565b50611c7781600285611d529092919063ffffffff16565b50611d09565b63ffffffff8111611cc257611ca5601a60058460ff16901b1784611d3290919063ffffffff16565b50611cbc81600485611d529092919063ffffffff16565b50611d08565b67ffffffffffffffff8111611d0757611cee601b60058460ff16901b1784611d3290919063ffffffff16565b50611d0581600885611d529092919063ffffffff16565b505b5b5b5b5b505050565b611d18611ff5565b611d2a83846000015151848551611d74565b905092915050565b611d3a611ff5565b611d4a8384600001515184611e63565b905092915050565b611d5a611ff5565b611d6b848560000151518585611eba565b90509392505050565b611d7c611ff5565b8251821115611d8a57600080fd5b84602001518285611d9b9190612b23565b1115611dd057611dcf856002611dc088602001518887611dbb9190612b23565b611f48565b611dca9190612d1b565b611f64565b5b600080865180518760208301019350808887011115611def5787860182525b60208701925050505b60208410611e365780518252602082611e119190612b23565b9150602081611e209190612b23565b9050602084611e2f9190612d75565b9350611df8565b60006001856020036101000a03905080198251168184511681811785525050508692505050949350505050565b611e6b611ff5565b83602001518310611e9157611e908460028660200151611e8b9190612d1b565b611f64565b5b8351805160208583010184815381861415611ead576001820183525b5050508390509392505050565b611ec2611ff5565b84602001518483611ed39190612b23565b1115611efb57611efa8560028685611eeb9190612b23565b611ef59190612d1b565b611f64565b5b6000600183610100611f0d9190612bfd565b611f179190612d75565b90508551838682010185831982511617815281518588011115611f3a5784870182525b505085915050949350505050565b600081831115611f5a57829050611f5e565b8190505b92915050565b600082600001519050611f778383611b61565b50611f828382611d10565b50505050565b6040518060a0016040528060008019168152602001600073ffffffffffffffffffffffffffffffffffffffff16815260200160007bffffffffffffffffffffffffffffffffffffffffffffffffffffffff1916815260200160008152602001611fef611ff5565b81525090565b604051806040016040528060608152602001600081525090565b60008135905061201e81612ff7565b92915050565b6000815190506120338161300e565b92915050565b60008135905061204881613025565b92915050565b60008135905061205d8161303c565b92915050565b60006020828403121561207557600080fd5b60006120838482850161200f565b91505092915050565b6000806040838503121561209f57600080fd5b60006120ad8582860161200f565b92505060206120be8582860161204e565b9150509250929050565b6000602082840312156120da57600080fd5b60006120e884828501612024565b91505092915050565b6000806040838503121561210457600080fd5b600061211285828601612039565b92505060206121238582860161204e565b9150509250929050565b60006020828403121561213f57600080fd5b600061214d8482850161204e565b91505092915050565b61215f81612e27565b82525050565b61216e81612da9565b82525050565b61217d81612dc7565b82525050565b61218c81612dd1565b82525050565b600061219d82612ad5565b6121a78185612aeb565b93506121b7818560208601612e93565b6121c081612fcc565b840191505092915050565b6121dc6121d782612e39565b612f0f565b82525050565b6121eb81612e5d565b82525050565b60006121fc82612ae0565b6122068185612b18565b9350612216818560208601612e93565b80840191505092915050565b600061222f601883612b07565b91507f6e6f20737563682077656220746f6b656e2065786973747300000000000000006000830152602082019050919050565b600061226f601683612b07565b91507f6163636f756e7420616c726561647920657869737473000000000000000000006000830152602082019050919050565b60006122af602683612b07565b91507f4f776e61626c653a206e6577206f776e657220697320746865207a65726f206160008301527f64647265737300000000000000000000000000000000000000000000000000006020830152604082019050919050565b6000612315602983612b07565b91507f436c69636b732073686f756c642062652067726561746572207468616e20707260008301527f657620636c69636b7300000000000000000000000000000000000000000000006020830152604082019050919050565b600061237b602383612b07565b91507f756e61626c6520746f207472616e73666572416e6443616c6c20746f206f726160008301527f636c6500000000000000000000000000000000000000000000000000000000006020830152604082019050919050565b60006123e1603a83612b07565b91507f416464726573733a20756e61626c6520746f2073656e642076616c75652c207260008301527f6563697069656e74206d617920686176652072657665727465640000000000006020830152604082019050919050565b6000612447601d83612b07565b91507f416464726573733a20696e73756666696369656e742062616c616e63650000006000830152602082019050919050565b6000612487604a83612b18565b91507f68747470733a2f2f6d696e2d6170692e63727970746f636f6d706172652e636f60008301527f6d2f646174612f70726963656d756c746966756c6c3f6673796d733d4554482660208301527f7473796d733d5553442f000000000000000000000000000000000000000000006040830152604a82019050919050565b6000612513603683612b07565b91507f5061796d656e7453706c69747465723a20746f6b656e20686173206e6f20706560008301527f6e64696e672073686172657320746f2072656465656d000000000000000000006020830152604082019050919050565b6000612579602083612b07565b91507f4f776e61626c653a2063616c6c6572206973206e6f7420746865206f776e65726000830152602082019050919050565b60006125b9602d83612b07565b91507f4f776e61626c653a2063616c6c6572206973206e6f7420746865206f776e657260008301527f206f662074686520746f6b656e000000000000000000000000000000000000006020830152604082019050919050565b600061261f600083612afc565b9150600082019050919050565b6000612639602883612b07565b91507f536f75726365206d75737420626520746865206f7261636c65206f662074686560008301527f20726571756573740000000000000000000000000000000000000000000000006020830152604082019050919050565b600061269f602683612b07565b91507f6d696e696d756d20616d6f756e74206f662065746865722073686f756c64206260008301527f652073656e7400000000000000000000000000000000000000000000000000006020830152604082019050919050565b61270181612e1d565b82525050565b61271861271382612e1d565b612f33565b82525050565b600061272a82856121cb565b60148201915061273a8284612707565b6020820191508190509392505050565b60006127558261247a565b915061276182846121f1565b915081905092915050565b600061277782612612565b9150819050919050565b60006020820190506127966000830184612165565b92915050565b60006040820190506127b16000830185612156565b6127be60208301846126f8565b9392505050565b60006060820190506127da6000830186612165565b6127e760208301856121e2565b6127f460408301846126f8565b949350505050565b60006040820190506128116000830185612165565b61281e60208301846126f8565b9392505050565b60006101008201905061283b600083018b612165565b612848602083018a6126f8565b6128556040830189612174565b6128626060830188612165565b61286f6080830187612183565b61287c60a08301866126f8565b61288960c08301856126f8565b81810360e083015261289b8184612192565b90509998505050505050505050565b60006060820190506128bf6000830186612165565b6128cc60208301856126f8565b81810360408301526128de8184612192565b9050949350505050565b60006060820190506128fd6000830186612165565b61290a60208301856126f8565b61291760408301846126f8565b949350505050565b60006020820190506129346000830184612174565b92915050565b6000602082019050818103600083015261295381612222565b9050919050565b6000602082019050818103600083015261297381612262565b9050919050565b60006020820190508181036000830152612993816122a2565b9050919050565b600060208201905081810360008301526129b381612308565b9050919050565b600060208201905081810360008301526129d38161236e565b9050919050565b600060208201905081810360008301526129f3816123d4565b9050919050565b60006020820190508181036000830152612a138161243a565b9050919050565b60006020820190508181036000830152612a3381612506565b9050919050565b60006020820190508181036000830152612a538161256c565b9050919050565b60006020820190508181036000830152612a73816125ac565b9050919050565b60006020820190508181036000830152612a938161262c565b9050919050565b60006020820190508181036000830152612ab381612692565b9050919050565b6000602082019050612acf60008301846126f8565b92915050565b600081519050919050565b600081519050919050565b600082825260208201905092915050565b600081905092915050565b600082825260208201905092915050565b600081905092915050565b6000612b2e82612e1d565b9150612b3983612e1d565b9250827fffffffffffffffffffffffffffffffffffffffffffffffffffffffffffffffff03821115612b6e57612b6d612f6e565b5b828201905092915050565b6000612b8482612e1d565b9150612b8f83612e1d565b925082612b9f57612b9e612f9d565b5b828204905092915050565b6000808291508390505b6001851115612bf457808604811115612bd057612bcf612f6e565b5b6001851615612bdf5780820291505b8081029050612bed85612fea565b9450612bb4565b94509492505050565b6000612c0882612e1d565b9150612c1383612e1d565b9250612c407fffffffffffffffffffffffffffffffffffffffffffffffffffffffffffffffff8484612c48565b905092915050565b600082612c585760019050612d14565b81612c665760009050612d14565b8160018114612c7c5760028114612c8657612cb5565b6001915050612d14565b60ff841115612c9857612c97612f6e565b5b8360020a915084821115612caf57612cae612f6e565b5b50612d14565b5060208310610133831016604e8410600b8410161715612cea5782820a905083811115612ce557612ce4612f6e565b5b612d14565b612cf78484846001612baa565b92509050818404811115612d0e57612d0d612f6e565b5b81810290505b9392505050565b6000612d2682612e1d565b9150612d3183612e1d565b9250817fffffffffffffffffffffffffffffffffffffffffffffffffffffffffffffffff0483118215151615612d6a57612d69612f6e565b5b828202905092915050565b6000612d8082612e1d565b9150612d8b83612e1d565b925082821015612d9e57612d9d612f6e565b5b828203905092915050565b6000612db482612dfd565b9050919050565b60008115159050919050565b6000819050919050565b60007fffffffff0000000000000000000000000000000000000000000000000000000082169050919050565b600073ffffffffffffffffffffffffffffffffffffffff82169050919050565b6000819050919050565b6000612e3282612e6f565b9050919050565b6000612e4482612e4b565b9050919050565b6000612e5682612dfd565b9050919050565b6000612e6882612e1d565b9050919050565b6000612e7a82612e81565b9050919050565b6000612e8c82612dfd565b9050919050565b60005b83811015612eb1578082015181840152602081019050612e96565b83811115612ec0576000848401525b50505050565b6000612ed182612e1d565b91507fffffffffffffffffffffffffffffffffffffffffffffffffffffffffffffffff821415612f0457612f03612f6e565b5b600182019050919050565b6000612f1a82612f21565b9050919050565b6000612f2c82612fdd565b9050919050565b6000819050919050565b6000612f4882612e1d565b9150612f5383612e1d565b925082612f6357612f62612f9d565b5b828206905092915050565b7f4e487b7100000000000000000000000000000000000000000000000000000000600052601160045260246000fd5b7f4e487b7100000000000000000000000000000000000000000000000000000000600052601260045260246000fd5b6000601f19601f8301169050919050565b60008160601b9050919050565b60008160011c9050919050565b61300081612da9565b811461300b57600080fd5b50565b61301781612dbb565b811461302257600080fd5b50565b61302e81612dc7565b811461303957600080fd5b50565b61304581612e1d565b811461305057600080fd5b5056fea26469706673582212202ecfed56905c0841fdb99e5f2d108fe139b09e0cce4e4f7848076a630c3e610464736f6c63430008000033",
  "immutableReferences": {},
  "source": "//SPDX-License-Identifier: MIT\r\npragma solidity ^0.8.0;\r\nimport \"@openzeppelin/contracts/utils/Context.sol\";\r\nimport \"@openzeppelin/contracts/utils/Address.sol\";\r\nimport \"@chainlink/contracts/src/v0.8/ChainlinkClient.sol\";\r\nimport \"@openzeppelin/contracts/access/Ownable.sol\";\r\nimport \"@openzeppelin/contracts/utils/Strings.sol\";\r\n\r\ncontract PaySplitter is Context, Ownable, ChainlinkClient {\r\n    event PayeeAdded(address account, uint256 amount, uint256 tokenId);\r\n    event PaymentReleased(address to, uint256 amount);\r\n    event PaymentReceived(address from, uint256 amount);\r\n    event PaymentReceivedByAddress(\r\n        address from,\r\n        uint256 amount,\r\n        uint256 tokenId\r\n    );\r\n    using Strings for uint256;\r\n    using Chainlink for Chainlink.Request;\r\n    uint256 DIV_MULTIPLIER_PER_CLICK = 0.001 ether;\r\n    uint256 private _totalShares;\r\n    uint256 private _totalReleased;\r\n    address private _owner;\r\n    uint256 public MIN_AMOUNT_ETHER = 0.001 ether;\r\n    mapping(address => uint256) private _shares;\r\n    mapping(address => uint256) private _released;\r\n    mapping(uint256 => uint256) private _releasedPerToken;\r\n    mapping(bytes32 => uint256) private _requestedData;\r\n    mapping(uint256 => paymentRecord) private _paymentData;\r\n    uint[] private _adTokens;\r\n    uint[] private _webTokens;\r\n    address private oracle;\r\n    bytes32 private jobId;\r\n    uint256 private fee;\r\n    //ad token owner\r\n\r\n    //mapping(uint256 => address) private _tokenPayees;\r\n    // website owner\r\n    // mapping(uint256 => address) private _adPayees;\r\n    //\r\n    struct _webPayees {\r\n        uint index;\r\n        address owner;\r\n        uint256 tokenId;\r\n        address currentOwner;\r\n        uint256 amount;\r\n        uint256 clicks;\r\n    }\r\n\r\n    struct paymentRecord {\r\n        address payable account;\r\n        uint256 amount;\r\n    }\r\n\r\n    struct _adPayees {\r\n        uint index;\r\n        address owner;\r\n        uint256 tokenId;\r\n        uint256 amount;\r\n        uint256 clicks;\r\n    }\r\n\r\n    mapping(uint256 => _webPayees) private _webMapping;\r\n\r\n    mapping(uint256 => _adPayees) private _adMapping;\r\n\r\n    modifier _isWebTokenOwner(address account, uint256 tokenId) {\r\n        require(\r\n            _webMapping[tokenId].owner == _msgSender(),\r\n            \"Ownable: caller is not the owner of the token\"\r\n        );\r\n        _;\r\n    }\r\n\r\n    modifier _isAdTokenOwner(address account, uint256 tokenId) {\r\n        require(\r\n            _adMapping[tokenId].owner == _msgSender(),\r\n            \"Ownable: caller is not the owner of the token\"\r\n        );\r\n        _;\r\n    }\r\n\r\n\r\n    /**\r\n     * @dev Creates an instance of `PaymentSplitter` where each account in `payees` is assigned the number of shares at\r\n     * the matching position in the `shares` array.\r\n     *\r\n     * All addresses in `payees` must be non-zero. Both arrays must have the same non-zero length, and there must be no\r\n     * duplicates in `payees`.\r\n     */\r\n    // constructor(address[] memory payees, uint256[] memory shares_) payable {\r\n    //     require(payees.length == shares_.length, \"PaymentSplitter: payees and shares length mismatch\");\r\n    //     require(payees.length > 0, \"PaymentSplitter: no payees\");\r\n\r\n    //     for (uint256 i = 0; i < payees.length; i++) {\r\n    //         _addPayee(payees[i], shares_[i]);\r\n    //     }\r\n    // }\r\n\r\n    constructor(address _link) {\r\n        if(_link == address(0)) {\r\n            setPublicChainlinkToken();\r\n        } else {\r\n            setChainlinkToken(_link);\r\n        }\r\n        oracle = 0xc57B33452b4F7BB189bB5AfaE9cc4aBa1f7a4FD8;\r\n        jobId = \"d5270d1c311941d0b08bead21fea7747\";\r\n        fee = 0.1 * 10**18;\r\n    }\r\n\r\n    /**\r\n     * @dev The Ether received will be logged with {PaymentReceived} events. Note that these events are not fully\r\n     * reliable: it's possible for a contract to receive Ether without triggering this function. This only affects the\r\n     * reliability of the events, and not the actual splitting of Ether.\r\n     *\r\n     * To learn more about this see the Solidity documentation for\r\n     * https://solidity.readthedocs.io/en/latest/contracts.html#fallback-function[fallback\r\n     * functions].\r\n     */\r\n    receive() external payable virtual {\r\n        emit PaymentReceived(_msgSender(), msg.value);\r\n    }\r\n\r\n    fallback() external payable {}\r\n\r\n    function emergencyRefund(uint tokenId) external {\r\n\r\n    }\r\n\r\n    function addWebAccount(address _webOwner, uint256 tokenId) external returns (uint256){\r\n        require(\r\n            _webMapping[tokenId].owner == address(0),\r\n            \"account already exists\"\r\n        );\r\n        _webTokens.push(tokenId);\r\n        _webMapping[tokenId] = _webPayees(_webTokens[_webTokens.length - 1], _webOwner, tokenId, _webOwner, 0, 0);\r\n        emit PayeeAdded(_webOwner, 0, tokenId);\r\n        return tokenId;\r\n    }\r\n\r\n    function addAdAccount(address _adOwner, uint256 tokenId) external payable returns (uint256){\r\n        require(\r\n            msg.value >= MIN_AMOUNT_ETHER,\r\n            \"minimum amount of ether should be sent\"\r\n        );\r\n        require(\r\n\r\n            _adMapping[tokenId].owner == address(0),\r\n            \"account already exists\"\r\n        );\r\n        _adTokens.push(tokenId);\r\n        _adMapping[tokenId] = _adPayees(_adTokens[_adTokens.length - 1], _adOwner, tokenId, msg.value, 0);\r\n        emit PayeeAdded(_adOwner, msg.value, tokenId);\r\n        return tokenId;\r\n    }\r\n\r\n    function updateDivMultiplier(uint256 minAmount) external onlyOwner {\r\n        DIV_MULTIPLIER_PER_CLICK = minAmount;\r\n    }\r\n\r\n    /**\r\n     * @dev Getter for the total shares held by payees.\r\n     */\r\n    function totalShares() public view returns (uint256) {\r\n        return _totalShares;\r\n    }\r\n\r\n    /**\r\n     * @dev Getter for the total amount of Ether already released.\r\n     */\r\n    function totalReleased() public view returns (uint256) {\r\n        return _totalReleased;\r\n    }\r\n\r\n    /**\r\n     * @dev Getter for the amount of shares held by an account.\r\n     */\r\n    function shares(address account) public view returns (uint256) {\r\n        return _shares[account];\r\n    }\r\n\r\n    /**\r\n     * @dev Getter for the amount of Ether already released to a payee.\r\n     */\r\n    function released(address account) public view returns (uint256) {\r\n        return _released[account];\r\n    }\r\n\r\n    /**\r\n     * @dev Getter for the address of the payee number `index`.\r\n     */\r\n    function adPayee(uint256 index) public view returns (uint) {\r\n        return _adTokens[index];\r\n    }\r\n\r\n    /**\r\n     * @dev Getter for the address of the payee number `index`.\r\n     */\r\n    function webPayee(uint256 index) public view returns (uint) {\r\n        return _webTokens[index];\r\n    }\r\n\r\n    /**\r\n     * @dev Triggers a transfer to `account` of the amount of Ether they are owed, according to their percentage of the\r\n     * total shares and their previous withdrawals.\r\n     */\r\n    function releaseAdPayment(uint256 tokenId) public virtual {\r\n        address payable account = payable(_webMapping[tokenId].owner);\r\n        uint256 payment = _webMapping[tokenId].amount;\r\n        _webMapping[tokenId].amount = 0;\r\n        require(\r\n            payment > 0,\r\n            \"PaymentSplitter: token has no pending shares to redeem\"\r\n        );\r\n        _paymentData[tokenId] = paymentRecord(account, payment);\r\n        _released[account] = _released[account] + payment;\r\n        _releasedPerToken[tokenId] += payment;\r\n        _totalReleased = _totalReleased + payment;\r\n        Address.sendValue(account, payment);\r\n        emit PaymentReleased(account, payment);\r\n    }\r\n\r\n    function withdrawWebAmount(uint256 tokenId)\r\n    external\r\n    _isWebTokenOwner(msg.sender, tokenId)\r\n    returns (bytes32)\r\n    {\r\n        require(_webMapping[tokenId].owner != address(0),\"no such web token exists\");\r\n        Chainlink.Request memory request = buildChainlinkRequest(\r\n            jobId,\r\n            address(this),\r\n            this.updateWebTokenAmount.selector\r\n        );\r\n\r\n        // Set the URL to perform the GET request on\r\n\r\n        request.add(\r\n            \"get\",\r\n            string(\r\n                abi.encodePacked(\r\n                    \"https://min-api.cryptocompare.com/data/pricemultifull?fsyms=ETH&tsyms=USD/\",\r\n                    tokenId.toString()\r\n                )\r\n            )\r\n        );\r\n        request.add(\"path\", \"clicks\");\r\n\r\n        bytes32 requestId = sendChainlinkRequestTo(oracle, request, fee);\r\n        _requestedData[requestId] = tokenId;\r\n\r\n        // Sends the request\r\n        return requestId;\r\n    }\r\n\r\n    function updateWebTokenAmount(bytes32 _requestId, uint256 clicks)\r\n    public\r\n    recordChainlinkFulfillment(_requestId)\r\n    {\r\n        require(\r\n            clicks > _webMapping[_requestedData[_requestId]].clicks,\r\n            \"Clicks should be greater than prev clicks\"\r\n        );\r\n        uint256 updatedNumber = clicks -\r\n        _webMapping[_requestedData[_requestId]].clicks;\r\n        uint256 payment = (updatedNumber * DIV_MULTIPLIER_PER_CLICK);\r\n        _webMapping[_requestedData[_requestId]].amount += payment;\r\n        _webMapping[_requestedData[_requestId]].clicks = clicks;\r\n    }\r\n}\r\n",
  "sourcePath": "C:\\git2021\\nftmarathon\\src\\smart-contract\\contracts\\PaySplitter.sol",
  "compiler": {
    "name": "solc",
    "version": "0.8.0+commit.c7dfd78e.Emscripten.clang"
  },
  "schemaVersion": "3.4.3",
  "updatedAt": "2021-11-28T16:23:44.488Z",
  "networkType": "ethereum",
  "devdoc": {
    "kind": "dev",
    "methods": {
      "adPayee(uint256)": {
        "details": "Getter for the address of the payee number `index`."
      },
      "constructor": {
        "details": "Creates an instance of `PaymentSplitter` where each account in `payees` is assigned the number of shares at the matching position in the `shares` array. All addresses in `payees` must be non-zero. Both arrays must have the same non-zero length, and there must be no duplicates in `payees`."
      },
      "owner()": {
        "details": "Returns the address of the current owner."
      },
      "releaseAdPayment(uint256)": {
        "details": "Triggers a transfer to `account` of the amount of Ether they are owed, according to their percentage of the total shares and their previous withdrawals."
      },
      "released(address)": {
        "details": "Getter for the amount of Ether already released to a payee."
      },
      "renounceOwnership()": {
        "details": "Leaves the contract without owner. It will not be possible to call `onlyOwner` functions anymore. Can only be called by the current owner. NOTE: Renouncing ownership will leave the contract without an owner, thereby removing any functionality that is only available to the owner."
      },
      "shares(address)": {
        "details": "Getter for the amount of shares held by an account."
      },
      "totalReleased()": {
        "details": "Getter for the total amount of Ether already released."
      },
      "totalShares()": {
        "details": "Getter for the total shares held by payees."
      },
      "transferOwnership(address)": {
        "details": "Transfers ownership of the contract to a new account (`newOwner`). Can only be called by the current owner."
      },
      "webPayee(uint256)": {
        "details": "Getter for the address of the payee number `index`."
      }
    },
    "version": 1
  },
  "userdoc": {
    "kind": "user",
    "methods": {},
    "version": 1
  }
}