{
  "contractName": "WebBasedNFTs",
  "abi": [
    {
      "inputs": [
        {
          "internalType": "string",
          "name": "_baseTokenURI",
          "type": "string"
        },
        {
          "internalType": "address",
          "name": "paymentSplitter",
          "type": "address"
        },
        {
          "internalType": "address",
          "name": "_link",
          "type": "address"
        }
      ],
      "stateMutability": "nonpayable",
      "type": "constructor"
    },
    {
      "anonymous": false,
      "inputs": [
        {
          "indexed": true,
          "internalType": "address",
          "name": "owner",
          "type": "address"
        },
        {
          "indexed": true,
          "internalType": "address",
          "name": "approved",
          "type": "address"
        },
        {
          "indexed": true,
          "internalType": "uint256",
          "name": "tokenId",
          "type": "uint256"
        }
      ],
      "name": "Approval",
      "type": "event"
    },
    {
      "anonymous": false,
      "inputs": [
        {
          "indexed": true,
          "internalType": "address",
          "name": "owner",
          "type": "address"
        },
        {
          "indexed": true,
          "internalType": "address",
          "name": "operator",
          "type": "address"
        },
        {
          "indexed": false,
          "internalType": "bool",
          "name": "approved",
          "type": "bool"
        }
      ],
      "name": "ApprovalForAll",
      "type": "event"
    },
    {
      "anonymous": false,
      "inputs": [
        {
          "indexed": true,
          "internalType": "bytes32",
          "name": "id",
          "type": "bytes32"
        }
      ],
      "name": "ChainlinkCancelled",
      "type": "event"
    },
    {
      "anonymous": false,
      "inputs": [
        {
          "indexed": true,
          "internalType": "bytes32",
          "name": "id",
          "type": "bytes32"
        }
      ],
      "name": "ChainlinkFulfilled",
      "type": "event"
    },
    {
      "anonymous": false,
      "inputs": [
        {
          "indexed": true,
          "internalType": "bytes32",
          "name": "id",
          "type": "bytes32"
        }
      ],
      "name": "ChainlinkRequested",
      "type": "event"
    },
    {
      "anonymous": false,
      "inputs": [
        {
          "indexed": true,
          "internalType": "address",
          "name": "previousOwner",
          "type": "address"
        },
        {
          "indexed": true,
          "internalType": "address",
          "name": "newOwner",
          "type": "address"
        }
      ],
      "name": "OwnershipTransferred",
      "type": "event"
    },
    {
      "anonymous": false,
      "inputs": [
        {
          "indexed": true,
          "internalType": "address",
          "name": "from",
          "type": "address"
        },
        {
          "indexed": true,
          "internalType": "address",
          "name": "to",
          "type": "address"
        },
        {
          "indexed": true,
          "internalType": "uint256",
          "name": "tokenId",
          "type": "uint256"
        }
      ],
      "name": "Transfer",
      "type": "event"
    },
    {
      "anonymous": false,
      "inputs": [
        {
          "indexed": false,
          "internalType": "uint256",
          "name": "tokenId",
          "type": "uint256"
        }
      ],
      "name": "WebAmountExhausted",
      "type": "event"
    },
    {
      "inputs": [
        {
          "internalType": "uint256",
          "name": "",
          "type": "uint256"
        }
      ],
      "name": "_tokenInfo",
      "outputs": [
        {
          "internalType": "uint256",
          "name": "tokenId",
          "type": "uint256"
        },
        {
          "internalType": "address",
          "name": "ownerOfWeb",
          "type": "address"
        },
        {
          "internalType": "uint256",
          "name": "clicks",
          "type": "uint256"
        },
        {
          "internalType": "uint256",
          "name": "amount",
          "type": "uint256"
        },
        {
          "internalType": "string",
          "name": "webURL",
          "type": "string"
        }
      ],
      "stateMutability": "view",
      "type": "function",
      "constant": true
    },
    {
      "inputs": [
        {
          "internalType": "address",
          "name": "to",
          "type": "address"
        },
        {
          "internalType": "uint256",
          "name": "tokenId",
          "type": "uint256"
        }
      ],
      "name": "approve",
      "outputs": [],
      "stateMutability": "nonpayable",
      "type": "function"
    },
    {
      "inputs": [
        {
          "internalType": "address",
          "name": "owner",
          "type": "address"
        }
      ],
      "name": "balanceOf",
      "outputs": [
        {
          "internalType": "uint256",
          "name": "",
          "type": "uint256"
        }
      ],
      "stateMutability": "view",
      "type": "function",
      "constant": true
    },
    {
      "inputs": [
        {
          "internalType": "uint256",
          "name": "tokenId",
          "type": "uint256"
        }
      ],
      "name": "getApproved",
      "outputs": [
        {
          "internalType": "address",
          "name": "",
          "type": "address"
        }
      ],
      "stateMutability": "view",
      "type": "function",
      "constant": true
    },
    {
      "inputs": [
        {
          "internalType": "address",
          "name": "owner",
          "type": "address"
        },
        {
          "internalType": "address",
          "name": "operator",
          "type": "address"
        }
      ],
      "name": "isApprovedForAll",
      "outputs": [
        {
          "internalType": "bool",
          "name": "",
          "type": "bool"
        }
      ],
      "stateMutability": "view",
      "type": "function",
      "constant": true
    },
    {
      "inputs": [],
      "name": "name",
      "outputs": [
        {
          "internalType": "string",
          "name": "",
          "type": "string"
        }
      ],
      "stateMutability": "view",
      "type": "function",
      "constant": true
    },
    {
      "inputs": [],
      "name": "owner",
      "outputs": [
        {
          "internalType": "address",
          "name": "",
          "type": "address"
        }
      ],
      "stateMutability": "view",
      "type": "function",
      "constant": true
    },
    {
      "inputs": [
        {
          "internalType": "uint256",
          "name": "tokenId",
          "type": "uint256"
        }
      ],
      "name": "ownerOf",
      "outputs": [
        {
          "internalType": "address",
          "name": "",
          "type": "address"
        }
      ],
      "stateMutability": "view",
      "type": "function",
      "constant": true
    },
    {
      "inputs": [],
      "name": "renounceOwnership",
      "outputs": [],
      "stateMutability": "nonpayable",
      "type": "function"
    },
    {
      "inputs": [
        {
          "internalType": "address",
          "name": "from",
          "type": "address"
        },
        {
          "internalType": "address",
          "name": "to",
          "type": "address"
        },
        {
          "internalType": "uint256",
          "name": "tokenId",
          "type": "uint256"
        }
      ],
      "name": "safeTransferFrom",
      "outputs": [],
      "stateMutability": "nonpayable",
      "type": "function"
    },
    {
      "inputs": [
        {
          "internalType": "address",
          "name": "from",
          "type": "address"
        },
        {
          "internalType": "address",
          "name": "to",
          "type": "address"
        },
        {
          "internalType": "uint256",
          "name": "tokenId",
          "type": "uint256"
        },
        {
          "internalType": "bytes",
          "name": "_data",
          "type": "bytes"
        }
      ],
      "name": "safeTransferFrom",
      "outputs": [],
      "stateMutability": "nonpayable",
      "type": "function"
    },
    {
      "inputs": [
        {
          "internalType": "address",
          "name": "operator",
          "type": "address"
        },
        {
          "internalType": "bool",
          "name": "approved",
          "type": "bool"
        }
      ],
      "name": "setApprovalForAll",
      "outputs": [],
      "stateMutability": "nonpayable",
      "type": "function"
    },
    {
      "inputs": [
        {
          "internalType": "bytes4",
          "name": "interfaceId",
          "type": "bytes4"
        }
      ],
      "name": "supportsInterface",
      "outputs": [
        {
          "internalType": "bool",
          "name": "",
          "type": "bool"
        }
      ],
      "stateMutability": "view",
      "type": "function",
      "constant": true
    },
    {
      "inputs": [],
      "name": "symbol",
      "outputs": [
        {
          "internalType": "string",
          "name": "",
          "type": "string"
        }
      ],
      "stateMutability": "view",
      "type": "function",
      "constant": true
    },
    {
      "inputs": [
        {
          "internalType": "uint256",
          "name": "index",
          "type": "uint256"
        }
      ],
      "name": "tokenByIndex",
      "outputs": [
        {
          "internalType": "uint256",
          "name": "",
          "type": "uint256"
        }
      ],
      "stateMutability": "view",
      "type": "function",
      "constant": true
    },
    {
      "inputs": [
        {
          "internalType": "address",
          "name": "owner",
          "type": "address"
        },
        {
          "internalType": "uint256",
          "name": "index",
          "type": "uint256"
        }
      ],
      "name": "tokenOfOwnerByIndex",
      "outputs": [
        {
          "internalType": "uint256",
          "name": "",
          "type": "uint256"
        }
      ],
      "stateMutability": "view",
      "type": "function",
      "constant": true
    },
    {
      "inputs": [
        {
          "internalType": "uint256",
          "name": "tokenId",
          "type": "uint256"
        }
      ],
      "name": "tokenURI",
      "outputs": [
        {
          "internalType": "string",
          "name": "",
          "type": "string"
        }
      ],
      "stateMutability": "view",
      "type": "function",
      "constant": true
    },
    {
      "inputs": [],
      "name": "totalSupply",
      "outputs": [
        {
          "internalType": "uint256",
          "name": "",
          "type": "uint256"
        }
      ],
      "stateMutability": "view",
      "type": "function",
      "constant": true
    },
    {
      "inputs": [
        {
          "internalType": "address",
          "name": "from",
          "type": "address"
        },
        {
          "internalType": "address",
          "name": "to",
          "type": "address"
        },
        {
          "internalType": "uint256",
          "name": "tokenId",
          "type": "uint256"
        }
      ],
      "name": "transferFrom",
      "outputs": [],
      "stateMutability": "nonpayable",
      "type": "function"
    },
    {
      "inputs": [
        {
          "internalType": "address",
          "name": "newOwner",
          "type": "address"
        }
      ],
      "name": "transferOwnership",
      "outputs": [],
      "stateMutability": "nonpayable",
      "type": "function"
    },
    {
      "inputs": [
        {
          "internalType": "string",
          "name": "webURL",
          "type": "string"
        },
        {
          "internalType": "uint256",
          "name": "_webCode",
          "type": "uint256"
        }
      ],
      "name": "mintWebToken",
      "outputs": [
        {
          "internalType": "uint256",
          "name": "",
          "type": "uint256"
        }
      ],
      "stateMutability": "nonpayable",
      "type": "function"
    },
    {
      "inputs": [
        {
          "internalType": "uint256",
          "name": "tokenId",
          "type": "uint256"
        }
      ],
      "name": "getTokenURI",
      "outputs": [
        {
          "internalType": "string",
          "name": "",
          "type": "string"
        }
      ],
      "stateMutability": "view",
      "type": "function",
      "constant": true
    },
    {
      "inputs": [
        {
          "internalType": "string",
          "name": "_tokenURI",
          "type": "string"
        }
      ],
      "name": "setbaseURI",
      "outputs": [],
      "stateMutability": "nonpayable",
      "type": "function"
    },
    {
      "inputs": [],
      "name": "getTokenData",
      "outputs": [
        {
          "components": [
            {
              "internalType": "uint256",
              "name": "tokenId",
              "type": "uint256"
            },
            {
              "internalType": "address",
              "name": "ownerOfWeb",
              "type": "address"
            },
            {
              "internalType": "uint256",
              "name": "clicks",
              "type": "uint256"
            },
            {
              "internalType": "uint256",
              "name": "amount",
              "type": "uint256"
            },
            {
              "internalType": "string",
              "name": "webURL",
              "type": "string"
            }
          ],
          "internalType": "struct WebBasedNFTs.metadata[]",
          "name": "",
          "type": "tuple[]"
        }
      ],
      "stateMutability": "view",
      "type": "function",
      "constant": true
    },
    {
      "inputs": [
        {
          "internalType": "address",
          "name": "paymentSplitter",
          "type": "address"
        }
      ],
      "name": "setPaymentSplitter",
      "outputs": [],
      "stateMutability": "nonpayable",
      "type": "function"
    },
    {
      "inputs": [
        {
          "internalType": "uint256",
          "name": "tokenId",
          "type": "uint256"
        }
      ],
      "name": "requestTokenData",
      "outputs": [
        {
          "internalType": "bytes32",
          "name": "",
          "type": "bytes32"
        }
      ],
      "stateMutability": "nonpayable",
      "type": "function"
    },
    {
      "inputs": [
        {
          "internalType": "bytes32",
          "name": "_requestId",
          "type": "bytes32"
        },
        {
          "internalType": "uint256",
          "name": "_clicks",
          "type": "uint256"
        }
      ],
      "name": "updateTokenData",
      "outputs": [],
      "stateMutability": "nonpayable",
      "type": "function"
    }
  ],
  "bytecode": "0x60806040526001600f5566038d7ea4c680006012553480156200002157600080fd5b5060405162005f2f38038062005f2f83398181016040528101906200004791906200078d565b6040518060400160405280600d81526020017f57656220546f6b657274697a65000000000000000000000000000000000000008152506040518060400160405280600581526020017f77544b545a0000000000000000000000000000000000000000000000000000008152508160009080519060200190620000cb92919062000628565b508060019080519060200190620000e492919062000628565b50505062000107620000fb6200021b60201b60201c565b6200022360201b60201c565b6200011882620002e960201b60201c565b62000129836200046760201b60201c565b600073ffffffffffffffffffffffffffffffffffffffff168173ffffffffffffffffffffffffffffffffffffffff16141562000175576200016f6200051260201b60201c565b62000187565b6200018681620005ba60201b60201c565b5b73c57b33452b4f7bb189bb5afae9cc4aba1f7a4fd8601560006101000a81548173ffffffffffffffffffffffffffffffffffffffff021916908373ffffffffffffffffffffffffffffffffffffffff1602179055507f643532373064316333313139343164306230386265616432316665613737343760168190555067016345785d8a000060178190555050505062000a7a565b600033905090565b6000600a60009054906101000a900473ffffffffffffffffffffffffffffffffffffffff16905081600a60006101000a81548173ffffffffffffffffffffffffffffffffffffffff021916908373ffffffffffffffffffffffffffffffffffffffff1602179055508173ffffffffffffffffffffffffffffffffffffffff168173ffffffffffffffffffffffffffffffffffffffff167f8be0079c531659141344cd1fd0a4f28419497f9722a3daafe3b4186f6b6457e060405160405180910390a35050565b620002f96200021b60201b60201c565b73ffffffffffffffffffffffffffffffffffffffff166200031f620005fe60201b60201c565b73ffffffffffffffffffffffffffffffffffffffff161462000378576040517f08c379a00000000000000000000000000000000000000000000000000000000081526004016200036f90620008c8565b60405180910390fd5b600073ffffffffffffffffffffffffffffffffffffffff168173ffffffffffffffffffffffffffffffffffffffff16141580620003e157503073ffffffffffffffffffffffffffffffffffffffff168173ffffffffffffffffffffffffffffffffffffffff1614155b62000423576040517f08c379a00000000000000000000000000000000000000000000000000000000081526004016200041a90620008a6565b60405180910390fd5b80601860006101000a81548173ffffffffffffffffffffffffffffffffffffffff021916908373ffffffffffffffffffffffffffffffffffffffff16021790555050565b620004776200021b60201b60201c565b73ffffffffffffffffffffffffffffffffffffffff166200049d620005fe60201b60201c565b73ffffffffffffffffffffffffffffffffffffffff1614620004f6576040517f08c379a0000000000000000000000000000000000000000000000000000000008152600401620004ed90620008c8565b60405180910390fd5b80601190805190602001906200050e92919062000628565b5050565b620005b873c89bd4e1632d3a43cb03aaad5262cbe4038bc57173ffffffffffffffffffffffffffffffffffffffff166338cc48316040518163ffffffff1660e01b815260040160206040518083038186803b1580156200057157600080fd5b505afa15801562000586573d6000803e3d6000fd5b505050506040513d601f19601f82011682018060405250810190620005ac919062000761565b620005ba60201b60201c565b565b80600d60006101000a81548173ffffffffffffffffffffffffffffffffffffffff021916908373ffffffffffffffffffffffffffffffffffffffff16021790555050565b6000600a60009054906101000a900473ffffffffffffffffffffffffffffffffffffffff16905090565b8280546200063690620009cc565b90600052602060002090601f0160209004810192826200065a5760008555620006a6565b82601f106200067557805160ff1916838001178555620006a6565b82800160010185558215620006a6579182015b82811115620006a557825182559160200191906001019062000688565b5b509050620006b59190620006b9565b5090565b5b80821115620006d4576000816000905550600101620006ba565b5090565b6000620006ef620006e9846200091e565b620008ea565b9050828152602081018484840111156200070857600080fd5b6200071584828562000996565b509392505050565b6000815190506200072e8162000a60565b92915050565b600082601f8301126200074657600080fd5b815162000758848260208601620006d8565b91505092915050565b6000602082840312156200077457600080fd5b600062000784848285016200071d565b91505092915050565b600080600060608486031215620007a357600080fd5b600084015167ffffffffffffffff811115620007be57600080fd5b620007cc8682870162000734565b9350506020620007df868287016200071d565b9250506040620007f2868287016200071d565b9150509250925092565b60006200080b602a8362000951565b91507f43616e6e6f742075706461746520746865207061796d656e742073706c69747460008301527f65722061646472657373000000000000000000000000000000000000000000006020830152604082019050919050565b60006200087360208362000951565b91507f4f776e61626c653a2063616c6c6572206973206e6f7420746865206f776e65726000830152602082019050919050565b60006020820190508181036000830152620008c181620007fc565b9050919050565b60006020820190508181036000830152620008e38162000864565b9050919050565b6000604051905081810181811067ffffffffffffffff8211171562000914576200091362000a31565b5b8060405250919050565b600067ffffffffffffffff8211156200093c576200093b62000a31565b5b601f19601f8301169050602081019050919050565b600082825260208201905092915050565b60006200096f8262000976565b9050919050565b600073ffffffffffffffffffffffffffffffffffffffff82169050919050565b60005b83811015620009b657808201518184015260208101905062000999565b83811115620009c6576000848401525b50505050565b60006002820490506001821680620009e557607f821691505b60208210811415620009fc57620009fb62000a02565b5b50919050565b7f4e487b7100000000000000000000000000000000000000000000000000000000600052602260045260246000fd5b7f4e487b7100000000000000000000000000000000000000000000000000000000600052604160045260246000fd5b62000a6b8162000962565b811462000a7757600080fd5b50565b6154a58062000a8a6000396000f3fe608060405234801561001057600080fd5b50600436106101a95760003560e01c80636352211e116100f9578063a22cb46511610097578063d16aad6111610071578063d16aad61146104f4578063e32dd0cf14610512578063e985e9c514610542578063f2fde38b14610572576101a9565b8063a22cb4651461048c578063b88d4fde146104a8578063c87b56dd146104c4576101a9565b8063715018a6116100d3578063715018a614610416578063780df39e146104205780638da5cb5b1461045057806395d89b411461046e576101a9565b80636352211e1461039a5780636b29b79f146103ca57806370a08231146103e6576101a9565b80632f745c59116101665780634a44f379116101405780634a44f379146102fe5780634a79ddf11461031a5780634bb8456c146103365780634f6ccce71461036a576101a9565b80632f745c59146102825780633bb3a24d146102b257806342842e0e146102e2576101a9565b806301ffc9a7146101ae57806306fdde03146101de578063081812fc146101fc578063095ea7b31461022c57806318160ddd1461024857806323b872dd14610266575b600080fd5b6101c860048036038101906101c39190613aab565b61058e565b6040516101d591906149e6565b60405180910390f35b6101e6610608565b6040516101f39190614a1c565b60405180910390f35b61021660048036038101906102119190613b92565b61069a565b6040516102239190614871565b60405180910390f35b61024660048036038101906102419190613a0a565b61071f565b005b610250610837565b60405161025d9190614d3e565b60405180910390f35b610280600480360381019061027b9190613904565b610844565b005b61029c60048036038101906102979190613a0a565b6108a4565b6040516102a99190614d3e565b60405180910390f35b6102cc60048036038101906102c79190613b92565b610949565b6040516102d99190614a1c565b60405180910390f35b6102fc60048036038101906102f79190613904565b61095b565b005b61031860048036038101906103139190613afd565b61097b565b005b610334600480360381019061032f9190613a6f565b610a11565b005b610350600480360381019061034b9190613b92565b610d28565b604051610361959493929190614d59565b60405180910390f35b610384600480360381019061037f9190613b92565b610e06565b6040516103919190614d3e565b60405180910390f35b6103b460048036038101906103af9190613b92565b610e9d565b6040516103c19190614871565b60405180910390f35b6103e460048036038101906103df919061389f565b610f4f565b005b61040060048036038101906103fb919061389f565b6110b6565b60405161040d9190614d3e565b60405180910390f35b61041e61116e565b005b61043a60048036038101906104359190613b92565b6111f6565b6040516104479190614a01565b60405180910390f35b610458611354565b6040516104659190614871565b60405180910390f35b61047661137e565b6040516104839190614a1c565b60405180910390f35b6104a660048036038101906104a191906139ce565b611410565b005b6104c260048036038101906104bd9190613953565b611426565b005b6104de60048036038101906104d99190613b92565b611488565b6040516104eb9190614a1c565b60405180910390f35b6104fc61152f565b60405161050991906149c4565b60405180910390f35b61052c60048036038101906105279190613b3e565b611752565b6040516105399190614d3e565b60405180910390f35b61055c600480360381019061055791906138c8565b611941565b60405161056991906149e6565b60405180910390f35b61058c6004803603810190610587919061389f565b6119d5565b005b60007f780e9d63000000000000000000000000000000000000000000000000000000007bffffffffffffffffffffffffffffffffffffffffffffffffffffffff1916827bffffffffffffffffffffffffffffffffffffffffffffffffffffffff19161480610601575061060082611acd565b5b9050919050565b6060600080546106179061523b565b80601f01602080910402602001604051908101604052809291908181526020018280546106439061523b565b80156106905780601f1061066557610100808354040283529160200191610690565b820191906000526020600020905b81548152906001019060200180831161067357829003601f168201915b5050505050905090565b60006106a582611baf565b6106e4576040517f08c379a00000000000000000000000000000000000000000000000000000000081526004016106db90614c1e565b60405180910390fd5b6004600083815260200190815260200160002060009054906101000a900473ffffffffffffffffffffffffffffffffffffffff169050919050565b600061072a82610e9d565b90508073ffffffffffffffffffffffffffffffffffffffff168373ffffffffffffffffffffffffffffffffffffffff16141561079b576040517f08c379a000000000000000000000000000000000000000000000000000000000815260040161079290614cbe565b60405180910390fd5b8073ffffffffffffffffffffffffffffffffffffffff166107ba611c1b565b73ffffffffffffffffffffffffffffffffffffffff1614806107e957506107e8816107e3611c1b565b611941565b5b610828576040517f08c379a000000000000000000000000000000000000000000000000000000000815260040161081f90614b9e565b60405180910390fd5b6108328383611c23565b505050565b6000600880549050905090565b61085561084f611c1b565b82611cdc565b610894576040517f08c379a000000000000000000000000000000000000000000000000000000000815260040161088b90614cde565b60405180910390fd5b61089f838383611dba565b505050565b60006108af836110b6565b82106108f0576040517f08c379a00000000000000000000000000000000000000000000000000000000081526004016108e790614a5e565b60405180910390fd5b600660008473ffffffffffffffffffffffffffffffffffffffff1673ffffffffffffffffffffffffffffffffffffffff168152602001908152602001600020600083815260200190815260200160002054905092915050565b606061095482611488565b9050919050565b61097683838360405180602001604052806000815250611426565b505050565b610983611c1b565b73ffffffffffffffffffffffffffffffffffffffff166109a1611354565b73ffffffffffffffffffffffffffffffffffffffff16146109f7576040517f08c379a00000000000000000000000000000000000000000000000000000000081526004016109ee90614c3e565b60405180910390fd5b8060119080519060200190610a0d9291906135b8565b5050565b816010600082815260200190815260200160002060009054906101000a900473ffffffffffffffffffffffffffffffffffffffff1673ffffffffffffffffffffffffffffffffffffffff163373ffffffffffffffffffffffffffffffffffffffff1614610ab3576040517f08c379a0000000000000000000000000000000000000000000000000000000008152600401610aaa90614d1e565b60405180910390fd5b6010600082815260200190815260200160002060006101000a81549073ffffffffffffffffffffffffffffffffffffffff0219169055807f7cc135e0cebb02c3480ae5d74d377283180a2601f8f644edf7987b009316c63a60405160405180910390a26013600060146000868152602001908152602001600020548152602001908152602001600020600201548211610b81576040517f08c379a0000000000000000000000000000000000000000000000000000000008152600401610b7890614ade565b60405180910390fd5b600060136000601460008781526020019081526020016000205481526020019081526020016000206002015483610bb89190615123565b9050600060125482610bca91906150c9565b9050806013600060146000898152602001908152602001600020548152602001908152602001600020600301541015610c48577f04957cd821000700eda80bad8197f83e1b9fb40bbe72892e426d3d70af02706a6014600087815260200190815260200160002054604051610c3f9190614d3e565b60405180910390a15b8060136000601460008981526020019081526020016000205481526020019081526020016000206003015410610cb3576040517f08c379a0000000000000000000000000000000000000000000000000000000008152600401610caa90614b7e565b60405180910390fd5b8060136000601460008981526020019081526020016000205481526020019081526020016000206003016000828254610cec9190614ed1565b92505081905550836013600060146000898152602001908152602001600020548152602001908152602001600020600201819055505050505050565b60136020528060005260406000206000915090508060000154908060010160009054906101000a900473ffffffffffffffffffffffffffffffffffffffff1690806002015490806003015490806004018054610d839061523b565b80601f0160208091040260200160405190810160405280929190818152602001828054610daf9061523b565b8015610dfc5780601f10610dd157610100808354040283529160200191610dfc565b820191906000526020600020905b815481529060010190602001808311610ddf57829003601f168201915b5050505050905085565b6000610e10610837565b8210610e51576040517f08c379a0000000000000000000000000000000000000000000000000000000008152600401610e4890614cfe565b60405180910390fd5b60088281548110610e8b577f4e487b7100000000000000000000000000000000000000000000000000000000600052603260045260246000fd5b90600052602060002001549050919050565b6000806002600084815260200190815260200160002060009054906101000a900473ffffffffffffffffffffffffffffffffffffffff169050600073ffffffffffffffffffffffffffffffffffffffff168173ffffffffffffffffffffffffffffffffffffffff161415610f46576040517f08c379a0000000000000000000000000000000000000000000000000000000008152600401610f3d90614bde565b60405180910390fd5b80915050919050565b610f57611c1b565b73ffffffffffffffffffffffffffffffffffffffff16610f75611354565b73ffffffffffffffffffffffffffffffffffffffff1614610fcb576040517f08c379a0000000000000000000000000000000000000000000000000000000008152600401610fc290614c3e565b60405180910390fd5b600073ffffffffffffffffffffffffffffffffffffffff168173ffffffffffffffffffffffffffffffffffffffff1614158061103357503073ffffffffffffffffffffffffffffffffffffffff168173ffffffffffffffffffffffffffffffffffffffff1614155b611072576040517f08c379a000000000000000000000000000000000000000000000000000000000815260040161106990614a3e565b60405180910390fd5b80601860006101000a81548173ffffffffffffffffffffffffffffffffffffffff021916908373ffffffffffffffffffffffffffffffffffffffff16021790555050565b60008073ffffffffffffffffffffffffffffffffffffffff168273ffffffffffffffffffffffffffffffffffffffff161415611127576040517f08c379a000000000000000000000000000000000000000000000000000000000815260040161111e90614bbe565b60405180910390fd5b600360008373ffffffffffffffffffffffffffffffffffffffff1673ffffffffffffffffffffffffffffffffffffffff168152602001908152602001600020549050919050565b611176611c1b565b73ffffffffffffffffffffffffffffffffffffffff16611194611354565b73ffffffffffffffffffffffffffffffffffffffff16146111ea576040517f08c379a00000000000000000000000000000000000000000000000000000000081526004016111e190614c3e565b60405180910390fd5b6111f46000612016565b565b60008061120d60165430634a79ddf160e01b6120dc565b90506112806040518060400160405280600381526020017f67657400000000000000000000000000000000000000000000000000000000008152506112518561210d565b6040516020016112619190614844565b604051602081830303815290604052836122ba9092919063ffffffff16565b6112ff6040518060400160405280600481526020017f70617468000000000000000000000000000000000000000000000000000000008152506040518060400160405280600681526020017f636c69636b730000000000000000000000000000000000000000000000000000815250836122ba9092919063ffffffff16565b6000611330601560009054906101000a900473ffffffffffffffffffffffffffffffffffffffff16836017546122ed565b90508360146000838152602001908152602001600020819055508092505050919050565b6000600a60009054906101000a900473ffffffffffffffffffffffffffffffffffffffff16905090565b60606001805461138d9061523b565b80601f01602080910402602001604051908101604052809291908181526020018280546113b99061523b565b80156114065780601f106113db57610100808354040283529160200191611406565b820191906000526020600020905b8154815290600101906020018083116113e957829003601f168201915b5050505050905090565b61142261141b611c1b565b838361230d565b5050565b611437611431611c1b565b83611cdc565b611476576040517f08c379a000000000000000000000000000000000000000000000000000000000815260040161146d90614cde565b60405180910390fd5b6114828484848461247a565b50505050565b606061149382611baf565b6114d2576040517f08c379a00000000000000000000000000000000000000000000000000000000081526004016114c990614c9e565b60405180910390fd5b60006114dc6124d6565b905060008151116114fc5760405180602001604052806000815250611527565b806115068461210d565b604051602001611517929190614820565b6040516020818303038152906040525b915050919050565b6060600061153b610837565b905060008167ffffffffffffffff81111561157f577f4e487b7100000000000000000000000000000000000000000000000000000000600052604160045260246000fd5b6040519080825280602002602001820160405280156115b857816020015b6115a561363e565b81526020019060019003908161159d5790505b50905060005b8281101561174957601360006115d383610e06565b81526020019081526020016000206040518060a0016040529081600082015481526020016001820160009054906101000a900473ffffffffffffffffffffffffffffffffffffffff1673ffffffffffffffffffffffffffffffffffffffff1673ffffffffffffffffffffffffffffffffffffffff16815260200160028201548152602001600382015481526020016004820180546116709061523b565b80601f016020809104026020016040519081016040528092919081815260200182805461169c9061523b565b80156116e95780601f106116be576101008083540402835291602001916116e9565b820191906000526020600020905b8154815290600101906020018083116116cc57829003601f168201915b50505050508152505082828151811061172b577f4e487b7100000000000000000000000000000000000000000000000000000000600052603260045260246000fd5b602002602001018190525080806117419061526d565b9150506115be565b50809250505090565b600061175d82611baf565b1561176757600080fd5b6040518060a001604052808381526020013373ffffffffffffffffffffffffffffffffffffffff168152602001600081526020016000815260200184815250601360008481526020019081526020016000206000820151816000015560208201518160010160006101000a81548173ffffffffffffffffffffffffffffffffffffffff021916908373ffffffffffffffffffffffffffffffffffffffff1602179055506040820151816002015560608201518160030155608082015181600401908051906020019061183a9291906135b8565b5090505081601860009054906101000a900473ffffffffffffffffffffffffffffffffffffffff1673ffffffffffffffffffffffffffffffffffffffff1663c865196433856040518363ffffffff1660e01b815260040161189c9291906148d8565b602060405180830381600087803b1580156118b657600080fd5b505af11580156118ca573d6000803e3d6000fd5b505050506040513d601f19601f820116820180604052508101906118ee9190613bbb565b1461192e576040517f08c379a000000000000000000000000000000000000000000000000000000000815260040161192590614c5e565b60405180910390fd5b6119383383612568565b81905092915050565b6000600560008473ffffffffffffffffffffffffffffffffffffffff1673ffffffffffffffffffffffffffffffffffffffff16815260200190815260200160002060008373ffffffffffffffffffffffffffffffffffffffff1673ffffffffffffffffffffffffffffffffffffffff16815260200190815260200160002060009054906101000a900460ff16905092915050565b6119dd611c1b565b73ffffffffffffffffffffffffffffffffffffffff166119fb611354565b73ffffffffffffffffffffffffffffffffffffffff1614611a51576040517f08c379a0000000000000000000000000000000000000000000000000000000008152600401611a4890614c3e565b60405180910390fd5b600073ffffffffffffffffffffffffffffffffffffffff168173ffffffffffffffffffffffffffffffffffffffff161415611ac1576040517f08c379a0000000000000000000000000000000000000000000000000000000008152600401611ab890614a9e565b60405180910390fd5b611aca81612016565b50565b60007f80ac58cd000000000000000000000000000000000000000000000000000000007bffffffffffffffffffffffffffffffffffffffffffffffffffffffff1916827bffffffffffffffffffffffffffffffffffffffffffffffffffffffff19161480611b9857507f5b5e139f000000000000000000000000000000000000000000000000000000007bffffffffffffffffffffffffffffffffffffffffffffffffffffffff1916827bffffffffffffffffffffffffffffffffffffffffffffffffffffffff1916145b80611ba85750611ba782612586565b5b9050919050565b60008073ffffffffffffffffffffffffffffffffffffffff166002600084815260200190815260200160002060009054906101000a900473ffffffffffffffffffffffffffffffffffffffff1673ffffffffffffffffffffffffffffffffffffffff1614159050919050565b600033905090565b816004600083815260200190815260200160002060006101000a81548173ffffffffffffffffffffffffffffffffffffffff021916908373ffffffffffffffffffffffffffffffffffffffff160217905550808273ffffffffffffffffffffffffffffffffffffffff16611c9683610e9d565b73ffffffffffffffffffffffffffffffffffffffff167f8c5be1e5ebec7d5bd14f71427d1e84f3dd0314c0f7b2291e5b200ac8c7c3b92560405160405180910390a45050565b6000611ce782611baf565b611d26576040517f08c379a0000000000000000000000000000000000000000000000000000000008152600401611d1d90614b5e565b60405180910390fd5b6000611d3183610e9d565b90508073ffffffffffffffffffffffffffffffffffffffff168473ffffffffffffffffffffffffffffffffffffffff161480611da057508373ffffffffffffffffffffffffffffffffffffffff16611d888461069a565b73ffffffffffffffffffffffffffffffffffffffff16145b80611db15750611db08185611941565b5b91505092915050565b8273ffffffffffffffffffffffffffffffffffffffff16611dda82610e9d565b73ffffffffffffffffffffffffffffffffffffffff1614611e30576040517f08c379a0000000000000000000000000000000000000000000000000000000008152600401611e2790614c7e565b60405180910390fd5b600073ffffffffffffffffffffffffffffffffffffffff168273ffffffffffffffffffffffffffffffffffffffff161415611ea0576040517f08c379a0000000000000000000000000000000000000000000000000000000008152600401611e9790614b1e565b60405180910390fd5b611eab8383836125f0565b611eb6600082611c23565b6001600360008573ffffffffffffffffffffffffffffffffffffffff1673ffffffffffffffffffffffffffffffffffffffff1681526020019081526020016000206000828254611f069190615123565b925050819055506001600360008473ffffffffffffffffffffffffffffffffffffffff1673ffffffffffffffffffffffffffffffffffffffff1681526020019081526020016000206000828254611f5d9190614ed1565b92505081905550816002600083815260200190815260200160002060006101000a81548173ffffffffffffffffffffffffffffffffffffffff021916908373ffffffffffffffffffffffffffffffffffffffff160217905550808273ffffffffffffffffffffffffffffffffffffffff168473ffffffffffffffffffffffffffffffffffffffff167fddf252ad1be2c89b69c2b068fc378daa952ba7f163c4a11628f55a4df523b3ef60405160405180910390a4505050565b6000600a60009054906101000a900473ffffffffffffffffffffffffffffffffffffffff16905081600a60006101000a81548173ffffffffffffffffffffffffffffffffffffffff021916908373ffffffffffffffffffffffffffffffffffffffff1602179055508173ffffffffffffffffffffffffffffffffffffffff168173ffffffffffffffffffffffffffffffffffffffff167f8be0079c531659141344cd1fd0a4f28419497f9722a3daafe3b4186f6b6457e060405160405180910390a35050565b6120e4613683565b6120ec613683565b61210385858584612704909392919063ffffffff16565b9150509392505050565b60606000821415612155576040518060400160405280600181526020017f300000000000000000000000000000000000000000000000000000000000000081525090506122b5565b600082905060005b600082146121875780806121709061526d565b915050600a826121809190614f27565b915061215d565b60008167ffffffffffffffff8111156121c9577f4e487b7100000000000000000000000000000000000000000000000000000000600052604160045260246000fd5b6040519080825280601f01601f1916602001820160405280156121fb5781602001600182028036833780820191505090505b5090505b600085146122ae576001826122149190615123565b9150600a8561222391906152e4565b603061222f9190614ed1565b60f81b81838151811061226b577f4e487b7100000000000000000000000000000000000000000000000000000000600052603260045260246000fd5b60200101907effffffffffffffffffffffffffffffffffffffffffffffffffffffffffffff1916908160001a905350600a856122a79190614f27565b94506121ff565b8093505050505b919050565b6122d18284608001516127b490919063ffffffff16565b6122e88184608001516127b490919063ffffffff16565b505050565b60006123048484846001634042994660e01b6127d9565b90509392505050565b8173ffffffffffffffffffffffffffffffffffffffff168373ffffffffffffffffffffffffffffffffffffffff16141561237c576040517f08c379a000000000000000000000000000000000000000000000000000000000815260040161237390614b3e565b60405180910390fd5b80600560008573ffffffffffffffffffffffffffffffffffffffff1673ffffffffffffffffffffffffffffffffffffffff16815260200190815260200160002060008473ffffffffffffffffffffffffffffffffffffffff1673ffffffffffffffffffffffffffffffffffffffff16815260200190815260200160002060006101000a81548160ff0219169083151502179055508173ffffffffffffffffffffffffffffffffffffffff168373ffffffffffffffffffffffffffffffffffffffff167f17307eab39ab6107e8899845ad3d59bd9653f200f220920489ca2b5937696c318360405161246d91906149e6565b60405180910390a3505050565b612485848484611dba565b61249184848484612a41565b6124d0576040517f08c379a00000000000000000000000000000000000000000000000000000000081526004016124c790614a7e565b60405180910390fd5b50505050565b6060601180546124e59061523b565b80601f01602080910402602001604051908101604052809291908181526020018280546125119061523b565b801561255e5780601f106125335761010080835404028352916020019161255e565b820191906000526020600020905b81548152906001019060200180831161254157829003601f168201915b5050505050905090565b612582828260405180602001604052806000815250612bd8565b5050565b60007f01ffc9a7000000000000000000000000000000000000000000000000000000007bffffffffffffffffffffffffffffffffffffffffffffffffffffffff1916827bffffffffffffffffffffffffffffffffffffffffffffffffffffffff1916149050919050565b6125fb838383612c33565b600073ffffffffffffffffffffffffffffffffffffffff168373ffffffffffffffffffffffffffffffffffffffff16141561263e5761263981612c38565b61267d565b8173ffffffffffffffffffffffffffffffffffffffff168373ffffffffffffffffffffffffffffffffffffffff161461267c5761267b8382612c81565b5b5b600073ffffffffffffffffffffffffffffffffffffffff168273ffffffffffffffffffffffffffffffffffffffff1614156126c0576126bb81612dee565b6126ff565b8273ffffffffffffffffffffffffffffffffffffffff168273ffffffffffffffffffffffffffffffffffffffff16146126fe576126fd8282612f31565b5b5b505050565b61270c613683565b61271c8560800151610100612fb0565b508385600001818152505082856020019073ffffffffffffffffffffffffffffffffffffffff16908173ffffffffffffffffffffffffffffffffffffffff16815250508185604001907bffffffffffffffffffffffffffffffffffffffffffffffffffffffff191690817bffffffffffffffffffffffffffffffffffffffffffffffffffffffff191681525050849050949350505050565b6127c1826003835161301a565b6127d4818361315f90919063ffffffff16565b505050565b600030600f546040516020016127f09291906147f4565b604051602081830303815290604052805190602001209050600f54856060018181525050856010600083815260200190815260200160002060006101000a81548173ffffffffffffffffffffffffffffffffffffffff021916908373ffffffffffffffffffffffffffffffffffffffff160217905550807fb5e6e01e79f91267dc17b4e6314d5d4d03593d2ceee0fbb452b750bd70ea5af960405160405180910390a2600082600080886000015189602001518a604001518b606001518a8d60800151600001516040516024016128ce989796959493929190614901565b604051602081830303815290604052907bffffffffffffffffffffffffffffffffffffffffffffffffffffffff19166020820180517bffffffffffffffffffffffffffffffffffffffffffffffffffffffff83818316178352505050509050600d60009054906101000a900473ffffffffffffffffffffffffffffffffffffffff1673ffffffffffffffffffffffffffffffffffffffff16634000aea08887846040518463ffffffff1660e01b815260040161298c93929190614986565b602060405180830381600087803b1580156129a657600080fd5b505af11580156129ba573d6000803e3d6000fd5b505050506040513d601f19601f820116820180604052508101906129de9190613a46565b612a1d576040517f08c379a0000000000000000000000000000000000000000000000000000000008152600401612a1490614afe565b60405180910390fd5b6001600f6000828254612a309190614ed1565b925050819055505095945050505050565b6000612a628473ffffffffffffffffffffffffffffffffffffffff16613181565b15612bcb578373ffffffffffffffffffffffffffffffffffffffff1663150b7a02612a8b611c1b565b8786866040518563ffffffff1660e01b8152600401612aad949392919061488c565b602060405180830381600087803b158015612ac757600080fd5b505af1925050508015612af857506040513d601f19601f82011682018060405250810190612af59190613ad4565b60015b612b7b573d8060008114612b28576040519150601f19603f3d011682016040523d82523d6000602084013e612b2d565b606091505b50600081511415612b73576040517f08c379a0000000000000000000000000000000000000000000000000000000008152600401612b6a90614a7e565b60405180910390fd5b805181602001fd5b63150b7a0260e01b7bffffffffffffffffffffffffffffffffffffffffffffffffffffffff1916817bffffffffffffffffffffffffffffffffffffffffffffffffffffffff191614915050612bd0565b600190505b949350505050565b612be28383613194565b612bef6000848484612a41565b612c2e576040517f08c379a0000000000000000000000000000000000000000000000000000000008152600401612c2590614a7e565b60405180910390fd5b505050565b505050565b6008805490506009600083815260200190815260200160002081905550600881908060018154018082558091505060019003906000526020600020016000909190919091505550565b60006001612c8e846110b6565b612c989190615123565b9050600060076000848152602001908152602001600020549050818114612d7d576000600660008673ffffffffffffffffffffffffffffffffffffffff1673ffffffffffffffffffffffffffffffffffffffff168152602001908152602001600020600084815260200190815260200160002054905080600660008773ffffffffffffffffffffffffffffffffffffffff1673ffffffffffffffffffffffffffffffffffffffff168152602001908152602001600020600084815260200190815260200160002081905550816007600083815260200190815260200160002081905550505b6007600084815260200190815260200160002060009055600660008573ffffffffffffffffffffffffffffffffffffffff1673ffffffffffffffffffffffffffffffffffffffff16815260200190815260200160002060008381526020019081526020016000206000905550505050565b60006001600880549050612e029190615123565b9050600060096000848152602001908152602001600020549050600060088381548110612e58577f4e487b7100000000000000000000000000000000000000000000000000000000600052603260045260246000fd5b906000526020600020015490508060088381548110612ea0577f4e487b7100000000000000000000000000000000000000000000000000000000600052603260045260246000fd5b906000526020600020018190555081600960008381526020019081526020016000208190555060096000858152602001908152602001600020600090556008805480612f15577f4e487b7100000000000000000000000000000000000000000000000000000000600052603160045260246000fd5b6001900381819060005260206000200160009055905550505050565b6000612f3c836110b6565b905081600660008573ffffffffffffffffffffffffffffffffffffffff1673ffffffffffffffffffffffffffffffffffffffff168152602001908152602001600020600083815260200190815260200160002081905550806007600084815260200190815260200160002081905550505050565b612fb86136f0565b6000602083612fc791906152e4565b14612ff357602082612fd991906152e4565b6020612fe59190615123565b82612ff09190614ed1565b91505b81836020018181525050604051808452600081528281016020016040525082905092915050565b60178111613047576130418160058460ff16901b60ff16178461336290919063ffffffff16565b5061315a565b60ff81116130895761306c601860058460ff16901b178461336290919063ffffffff16565b50613083816001856133829092919063ffffffff16565b50613159565b61ffff81116130cc576130af601960058460ff16901b178461336290919063ffffffff16565b506130c6816002856133829092919063ffffffff16565b50613158565b63ffffffff8111613111576130f4601a60058460ff16901b178461336290919063ffffffff16565b5061310b816004856133829092919063ffffffff16565b50613157565b67ffffffffffffffff81116131565761313d601b60058460ff16901b178461336290919063ffffffff16565b50613154816008856133829092919063ffffffff16565b505b5b5b5b5b505050565b6131676136f0565b613179838460000151518485516133a4565b905092915050565b600080823b905060008111915050919050565b600073ffffffffffffffffffffffffffffffffffffffff168273ffffffffffffffffffffffffffffffffffffffff161415613204576040517f08c379a00000000000000000000000000000000000000000000000000000000081526004016131fb90614bfe565b60405180910390fd5b61320d81611baf565b1561324d576040517f08c379a000000000000000000000000000000000000000000000000000000000815260040161324490614abe565b60405180910390fd5b613259600083836125f0565b6001600360008473ffffffffffffffffffffffffffffffffffffffff1673ffffffffffffffffffffffffffffffffffffffff16815260200190815260200160002060008282546132a99190614ed1565b92505081905550816002600083815260200190815260200160002060006101000a81548173ffffffffffffffffffffffffffffffffffffffff021916908373ffffffffffffffffffffffffffffffffffffffff160217905550808273ffffffffffffffffffffffffffffffffffffffff16600073ffffffffffffffffffffffffffffffffffffffff167fddf252ad1be2c89b69c2b068fc378daa952ba7f163c4a11628f55a4df523b3ef60405160405180910390a45050565b61336a6136f0565b61337a8384600001515184613493565b905092915050565b61338a6136f0565b61339b8485600001515185856134ea565b90509392505050565b6133ac6136f0565b82518211156133ba57600080fd5b846020015182856133cb9190614ed1565b1115613400576133ff8560026133f0886020015188876133eb9190614ed1565b613578565b6133fa91906150c9565b613594565b5b60008086518051876020830101935080888701111561341f5787860182525b60208701925050505b6020841061346657805182526020826134419190614ed1565b91506020816134509190614ed1565b905060208461345f9190615123565b9350613428565b60006001856020036101000a03905080198251168184511681811785525050508692505050949350505050565b61349b6136f0565b836020015183106134c1576134c084600286602001516134bb91906150c9565b613594565b5b83518051602085830101848153818614156134dd576001820183525b5050508390509392505050565b6134f26136f0565b846020015184836135039190614ed1565b111561352b5761352a856002868561351b9190614ed1565b61352591906150c9565b613594565b5b600060018361010061353d9190614fab565b6135479190615123565b9050855183868201018583198251161781528151858801111561356a5784870182525b505085915050949350505050565b60008183111561358a5782905061358e565b8190505b92915050565b6000826000015190506135a78383612fb0565b506135b2838261315f565b50505050565b8280546135c49061523b565b90600052602060002090601f0160209004810192826135e6576000855561362d565b82601f106135ff57805160ff191683800117855561362d565b8280016001018555821561362d579182015b8281111561362c578251825591602001919060010190613611565b5b50905061363a919061370a565b5090565b6040518060a0016040528060008152602001600073ffffffffffffffffffffffffffffffffffffffff1681526020016000815260200160008152602001606081525090565b6040518060a0016040528060008019168152602001600073ffffffffffffffffffffffffffffffffffffffff16815260200160007bffffffffffffffffffffffffffffffffffffffffffffffffffffffff19168152602001600081526020016136ea6136f0565b81525090565b604051806040016040528060608152602001600081525090565b5b8082111561372357600081600090555060010161370b565b5090565b600061373a61373584614de4565b614db3565b90508281526020810184848401111561375257600080fd5b61375d8482856151f9565b509392505050565b600061377861377384614e14565b614db3565b90508281526020810184848401111561379057600080fd5b61379b8482856151f9565b509392505050565b6000813590506137b2816153fc565b92915050565b6000813590506137c781615413565b92915050565b6000815190506137dc81615413565b92915050565b6000813590506137f18161542a565b92915050565b60008135905061380681615441565b92915050565b60008151905061381b81615441565b92915050565b600082601f83011261383257600080fd5b8135613842848260208601613727565b91505092915050565b600082601f83011261385c57600080fd5b813561386c848260208601613765565b91505092915050565b60008135905061388481615458565b92915050565b60008151905061389981615458565b92915050565b6000602082840312156138b157600080fd5b60006138bf848285016137a3565b91505092915050565b600080604083850312156138db57600080fd5b60006138e9858286016137a3565b92505060206138fa858286016137a3565b9150509250929050565b60008060006060848603121561391957600080fd5b6000613927868287016137a3565b9350506020613938868287016137a3565b925050604061394986828701613875565b9150509250925092565b6000806000806080858703121561396957600080fd5b6000613977878288016137a3565b9450506020613988878288016137a3565b935050604061399987828801613875565b925050606085013567ffffffffffffffff8111156139b657600080fd5b6139c287828801613821565b91505092959194509250565b600080604083850312156139e157600080fd5b60006139ef858286016137a3565b9250506020613a00858286016137b8565b9150509250929050565b60008060408385031215613a1d57600080fd5b6000613a2b858286016137a3565b9250506020613a3c85828601613875565b9150509250929050565b600060208284031215613a5857600080fd5b6000613a66848285016137cd565b91505092915050565b60008060408385031215613a8257600080fd5b6000613a90858286016137e2565b9250506020613aa185828601613875565b9150509250929050565b600060208284031215613abd57600080fd5b6000613acb848285016137f7565b91505092915050565b600060208284031215613ae657600080fd5b6000613af48482850161380c565b91505092915050565b600060208284031215613b0f57600080fd5b600082013567ffffffffffffffff811115613b2957600080fd5b613b358482850161384b565b91505092915050565b60008060408385031215613b5157600080fd5b600083013567ffffffffffffffff811115613b6b57600080fd5b613b778582860161384b565b9250506020613b8885828601613875565b9150509250929050565b600060208284031215613ba457600080fd5b6000613bb284828501613875565b91505092915050565b600060208284031215613bcd57600080fd5b6000613bdb8482850161388a565b91505092915050565b6000613bf08383614749565b905092915050565b613c0181615157565b82525050565b613c1081615157565b82525050565b6000613c2182614e54565b613c2b8185614e82565b935083602082028501613c3d85614e44565b8060005b85811015613c795784840389528151613c5a8582613be4565b9450613c6583614e75565b925060208a01995050600181019050613c41565b50829750879550505050505092915050565b613c9481615169565b82525050565b613ca381615175565b82525050565b613cb28161517f565b82525050565b6000613cc382614e5f565b613ccd8185614e93565b9350613cdd818560208601615208565b613ce6816153d1565b840191505092915050565b613d02613cfd826151d5565b6152b6565b82525050565b6000613d1382614e6a565b613d1d8185614ea4565b9350613d2d818560208601615208565b613d36816153d1565b840191505092915050565b6000613d4c82614e6a565b613d568185614eb5565b9350613d66818560208601615208565b613d6f816153d1565b840191505092915050565b6000613d8582614e6a565b613d8f8185614ec6565b9350613d9f818560208601615208565b80840191505092915050565b6000613db8602a83614eb5565b91507f43616e6e6f742075706461746520746865207061796d656e742073706c69747460008301527f65722061646472657373000000000000000000000000000000000000000000006020830152604082019050919050565b6000613e1e602b83614eb5565b91507f455243373231456e756d657261626c653a206f776e657220696e646578206f7560008301527f74206f6620626f756e64730000000000000000000000000000000000000000006020830152604082019050919050565b6000613e84603283614eb5565b91507f4552433732313a207472616e7366657220746f206e6f6e20455243373231526560008301527f63656976657220696d706c656d656e74657200000000000000000000000000006020830152604082019050919050565b6000613eea600983614ec6565b91507f2f636c69636b732f3000000000000000000000000000000000000000000000006000830152600982019050919050565b6000613f2a602683614eb5565b91507f4f776e61626c653a206e6577206f776e657220697320746865207a65726f206160008301527f64647265737300000000000000000000000000000000000000000000000000006020830152604082019050919050565b6000613f90601c83614eb5565b91507f4552433732313a20746f6b656e20616c7265616479206d696e746564000000006000830152602082019050919050565b6000613fd0602983614eb5565b91507f436c69636b732073686f756c642062652067726561746572207468616e20707260008301527f657620636c69636b7300000000000000000000000000000000000000000000006020830152604082019050919050565b6000614036602383614eb5565b91507f756e61626c6520746f207472616e73666572416e6443616c6c20746f206f726160008301527f636c6500000000000000000000000000000000000000000000000000000000006020830152604082019050919050565b600061409c602483614eb5565b91507f4552433732313a207472616e7366657220746f20746865207a65726f2061646460008301527f72657373000000000000000000000000000000000000000000000000000000006020830152604082019050919050565b6000614102601983614eb5565b91507f4552433732313a20617070726f766520746f2063616c6c6572000000000000006000830152602082019050919050565b6000614142602c83614eb5565b91507f4552433732313a206f70657261746f7220717565727920666f72206e6f6e657860008301527f697374656e7420746f6b656e00000000000000000000000000000000000000006020830152604082019050919050565b60006141a8602283614eb5565b91507f416d6f756e742065786861757374656420666f72207468652057656220746f6b60008301527f656e0000000000000000000000000000000000000000000000000000000000006020830152604082019050919050565b600061420e603883614eb5565b91507f4552433732313a20617070726f76652063616c6c6572206973206e6f74206f7760008301527f6e6572206e6f7220617070726f76656420666f7220616c6c00000000000000006020830152604082019050919050565b6000614274602a83614eb5565b91507f4552433732313a2062616c616e636520717565727920666f7220746865207a6560008301527f726f2061646472657373000000000000000000000000000000000000000000006020830152604082019050919050565b60006142da602983614ec6565b91507f68747470733a2f2f6e66746d61726174686f6e2e78797a2f6170692f6f72616360008301527f6c652f73697465732f00000000000000000000000000000000000000000000006020830152602982019050919050565b6000614340602983614eb5565b91507f4552433732313a206f776e657220717565727920666f72206e6f6e657869737460008301527f656e7420746f6b656e00000000000000000000000000000000000000000000006020830152604082019050919050565b60006143a6602083614eb5565b91507f4552433732313a206d696e7420746f20746865207a65726f20616464726573736000830152602082019050919050565b60006143e6602c83614eb5565b91507f4552433732313a20617070726f76656420717565727920666f72206e6f6e657860008301527f697374656e7420746f6b656e00000000000000000000000000000000000000006020830152604082019050919050565b600061444c602083614eb5565b91507f4f776e61626c653a2063616c6c6572206973206e6f7420746865206f776e65726000830152602082019050919050565b600061448c602583614eb5565b91507f4572726f7220696e206372656174696e67206163636f756e7420696e2070617960008301527f6d656e74730000000000000000000000000000000000000000000000000000006020830152604082019050919050565b60006144f2602983614eb5565b91507f4552433732313a207472616e73666572206f6620746f6b656e2074686174206960008301527f73206e6f74206f776e00000000000000000000000000000000000000000000006020830152604082019050919050565b6000614558602f83614eb5565b91507f4552433732314d657461646174613a2055524920717565727920666f72206e6f60008301527f6e6578697374656e7420746f6b656e00000000000000000000000000000000006020830152604082019050919050565b60006145be602183614eb5565b91507f4552433732313a20617070726f76616c20746f2063757272656e74206f776e6560008301527f72000000000000000000000000000000000000000000000000000000000000006020830152604082019050919050565b6000614624603183614eb5565b91507f4552433732313a207472616e736665722063616c6c6572206973206e6f74206f60008301527f776e6572206e6f7220617070726f7665640000000000000000000000000000006020830152604082019050919050565b600061468a602c83614eb5565b91507f455243373231456e756d657261626c653a20676c6f62616c20696e646578206f60008301527f7574206f6620626f756e647300000000000000000000000000000000000000006020830152604082019050919050565b60006146f0602883614eb5565b91507f536f75726365206d75737420626520746865206f7261636c65206f662074686560008301527f20726571756573740000000000000000000000000000000000000000000000006020830152604082019050919050565b600060a08301600083015161476160008601826147bf565b5060208301516147746020860182613bf8565b50604083015161478760408601826147bf565b50606083015161479a60608601826147bf565b50608083015184820360808601526147b28282613d08565b9150508091505092915050565b6147c8816151cb565b82525050565b6147d7816151cb565b82525050565b6147ee6147e9826151cb565b6152da565b82525050565b60006148008285613cf1565b60148201915061481082846147dd565b6020820191508190509392505050565b600061482c8285613d7a565b91506148388284613d7a565b91508190509392505050565b600061484f826142cd565b915061485b8284613d7a565b915061486682613edd565b915081905092915050565b60006020820190506148866000830184613c07565b92915050565b60006080820190506148a16000830187613c07565b6148ae6020830186613c07565b6148bb60408301856147ce565b81810360608301526148cd8184613cb8565b905095945050505050565b60006040820190506148ed6000830185613c07565b6148fa60208301846147ce565b9392505050565b600061010082019050614917600083018b613c07565b614924602083018a6147ce565b6149316040830189613c9a565b61493e6060830188613c07565b61494b6080830187613ca9565b61495860a08301866147ce565b61496560c08301856147ce565b81810360e08301526149778184613cb8565b90509998505050505050505050565b600060608201905061499b6000830186613c07565b6149a860208301856147ce565b81810360408301526149ba8184613cb8565b9050949350505050565b600060208201905081810360008301526149de8184613c16565b905092915050565b60006020820190506149fb6000830184613c8b565b92915050565b6000602082019050614a166000830184613c9a565b92915050565b60006020820190508181036000830152614a368184613d41565b905092915050565b60006020820190508181036000830152614a5781613dab565b9050919050565b60006020820190508181036000830152614a7781613e11565b9050919050565b60006020820190508181036000830152614a9781613e77565b9050919050565b60006020820190508181036000830152614ab781613f1d565b9050919050565b60006020820190508181036000830152614ad781613f83565b9050919050565b60006020820190508181036000830152614af781613fc3565b9050919050565b60006020820190508181036000830152614b1781614029565b9050919050565b60006020820190508181036000830152614b378161408f565b9050919050565b60006020820190508181036000830152614b57816140f5565b9050919050565b60006020820190508181036000830152614b7781614135565b9050919050565b60006020820190508181036000830152614b978161419b565b9050919050565b60006020820190508181036000830152614bb781614201565b9050919050565b60006020820190508181036000830152614bd781614267565b9050919050565b60006020820190508181036000830152614bf781614333565b9050919050565b60006020820190508181036000830152614c1781614399565b9050919050565b60006020820190508181036000830152614c37816143d9565b9050919050565b60006020820190508181036000830152614c578161443f565b9050919050565b60006020820190508181036000830152614c778161447f565b9050919050565b60006020820190508181036000830152614c97816144e5565b9050919050565b60006020820190508181036000830152614cb78161454b565b9050919050565b60006020820190508181036000830152614cd7816145b1565b9050919050565b60006020820190508181036000830152614cf781614617565b9050919050565b60006020820190508181036000830152614d178161467d565b9050919050565b60006020820190508181036000830152614d37816146e3565b9050919050565b6000602082019050614d5360008301846147ce565b92915050565b600060a082019050614d6e60008301886147ce565b614d7b6020830187613c07565b614d8860408301866147ce565b614d9560608301856147ce565b8181036080830152614da78184613d41565b90509695505050505050565b6000604051905081810181811067ffffffffffffffff82111715614dda57614dd96153a2565b5b8060405250919050565b600067ffffffffffffffff821115614dff57614dfe6153a2565b5b601f19601f8301169050602081019050919050565b600067ffffffffffffffff821115614e2f57614e2e6153a2565b5b601f19601f8301169050602081019050919050565b6000819050602082019050919050565b600081519050919050565b600081519050919050565b600081519050919050565b6000602082019050919050565b600082825260208201905092915050565b600082825260208201905092915050565b600082825260208201905092915050565b600082825260208201905092915050565b600081905092915050565b6000614edc826151cb565b9150614ee7836151cb565b9250827fffffffffffffffffffffffffffffffffffffffffffffffffffffffffffffffff03821115614f1c57614f1b615315565b5b828201905092915050565b6000614f32826151cb565b9150614f3d836151cb565b925082614f4d57614f4c615344565b5b828204905092915050565b6000808291508390505b6001851115614fa257808604811115614f7e57614f7d615315565b5b6001851615614f8d5780820291505b8081029050614f9b856153ef565b9450614f62565b94509492505050565b6000614fb6826151cb565b9150614fc1836151cb565b9250614fee7fffffffffffffffffffffffffffffffffffffffffffffffffffffffffffffffff8484614ff6565b905092915050565b60008261500657600190506150c2565b8161501457600090506150c2565b816001811461502a576002811461503457615063565b60019150506150c2565b60ff84111561504657615045615315565b5b8360020a91508482111561505d5761505c615315565b5b506150c2565b5060208310610133831016604e8410600b84101617156150985782820a90508381111561509357615092615315565b5b6150c2565b6150a58484846001614f58565b925090508184048111156150bc576150bb615315565b5b81810290505b9392505050565b60006150d4826151cb565b91506150df836151cb565b9250817fffffffffffffffffffffffffffffffffffffffffffffffffffffffffffffffff048311821515161561511857615117615315565b5b828202905092915050565b600061512e826151cb565b9150615139836151cb565b92508282101561514c5761514b615315565b5b828203905092915050565b6000615162826151ab565b9050919050565b60008115159050919050565b6000819050919050565b60007fffffffff0000000000000000000000000000000000000000000000000000000082169050919050565b600073ffffffffffffffffffffffffffffffffffffffff82169050919050565b6000819050919050565b60006151e0826151e7565b9050919050565b60006151f2826151ab565b9050919050565b82818337600083830152505050565b60005b8381101561522657808201518184015260208101905061520b565b83811115615235576000848401525b50505050565b6000600282049050600182168061525357607f821691505b6020821081141561526757615266615373565b5b50919050565b6000615278826151cb565b91507fffffffffffffffffffffffffffffffffffffffffffffffffffffffffffffffff8214156152ab576152aa615315565b5b600182019050919050565b60006152c1826152c8565b9050919050565b60006152d3826153e2565b9050919050565b6000819050919050565b60006152ef826151cb565b91506152fa836151cb565b92508261530a57615309615344565b5b828206905092915050565b7f4e487b7100000000000000000000000000000000000000000000000000000000600052601160045260246000fd5b7f4e487b7100000000000000000000000000000000000000000000000000000000600052601260045260246000fd5b7f4e487b7100000000000000000000000000000000000000000000000000000000600052602260045260246000fd5b7f4e487b7100000000000000000000000000000000000000000000000000000000600052604160045260246000fd5b6000601f19601f8301169050919050565b60008160601b9050919050565b60008160011c9050919050565b61540581615157565b811461541057600080fd5b50565b61541c81615169565b811461542757600080fd5b50565b61543381615175565b811461543e57600080fd5b50565b61544a8161517f565b811461545557600080fd5b50565b615461816151cb565b811461546c57600080fd5b5056fea26469706673582212200c0c5d33d1de6c04ad04aaeda0d038bf3588908140ff8ddc1b3218c4369cff5f64736f6c63430008000033",
  "immutableReferences": {},
  "source": "//SPDX-License-Identifier: MIT\r\npragma solidity ^0.8.0;\r\n\r\nimport \"@openzeppelin/contracts/token/ERC721/ERC721.sol\";\r\nimport \"@openzeppelin/contracts/access/Ownable.sol\";\r\nimport \"@chainlink/contracts/src/v0.8/ChainlinkClient.sol\";\r\nimport \"@openzeppelin/contracts/utils/Counters.sol\";\r\nimport \"@openzeppelin/contracts/utils/Strings.sol\";\r\nimport \"@openzeppelin/contracts/token/ERC721/extensions/ERC721Enumerable.sol\";\r\nimport \"./interfaces/IPaymentSplitter.sol\";\r\n\r\ncontract WebBasedNFTs is ERC721Enumerable, Ownable, ChainlinkClient {\r\n    event WebAmountExhausted(uint256 tokenId);\r\n    using Chainlink for Chainlink.Request;\r\n    using Strings for uint256;\r\n    string baseURI;\r\n    uint256 DIV_MULTIPLIER_PER_CLICK = 0.001 ether;\r\n    mapping(uint256 => metadata) public _tokenInfo;\r\n    mapping(bytes32 => uint256) _requestedData;\r\n    address private oracle;\r\n    bytes32 private jobId;\r\n    uint256 private fee;\r\n    address private _paymentSplitter;\r\n    struct metadata {\r\n        uint256 tokenId;\r\n        address ownerOfWeb;\r\n        uint256 clicks;\r\n        uint256 amount;\r\n        string webURL;\r\n    }\r\n\r\n    constructor(string memory _baseTokenURI, address paymentSplitter, address _link)\r\n    ERC721(\"Web Tokertize\", \"wTKTZ\")\r\n    {\r\n        setPaymentSplitter(paymentSplitter);\r\n        setbaseURI(_baseTokenURI);\r\n        if(_link == address(0)) {\r\n            setPublicChainlinkToken();\r\n        } else {\r\n            setChainlinkToken(_link);\r\n        }\r\n        oracle = 0xc57B33452b4F7BB189bB5AfaE9cc4aBa1f7a4FD8;\r\n        jobId = \"d5270d1c311941d0b08bead21fea7747\";\r\n        fee = 0.1 * 10**18;\r\n    }\r\n\r\n    function mintWebToken(\r\n        string memory webURL,\r\n        uint256 _webCode\r\n    ) external returns (uint256) {\r\n        require(!_exists(_webCode));\r\n        _tokenInfo[_webCode] = metadata(_webCode, msg.sender, 0, 0, webURL);\r\n        require(IPaymentSplitter(_paymentSplitter).addWebAccount(msg.sender, _webCode) == _webCode,\"Error in creating account in payments\");\r\n        _safeMint(msg.sender, _webCode);\r\n        return _webCode;\r\n    }\r\n\r\n    function _baseURI() internal view virtual override returns (string memory) {\r\n        return baseURI;\r\n    }\r\n\r\n    function getTokenURI(uint256 tokenId) public view returns (string memory) {\r\n        return tokenURI(tokenId);\r\n    }\r\n\r\n    function setbaseURI(string memory _tokenURI) public onlyOwner {\r\n        baseURI = _tokenURI;\r\n    }\r\n\r\n    function getTokenData() public view returns (metadata[] memory) {\r\n        uint256 lastTokenIndex = totalSupply();\r\n        metadata[] memory ret = new metadata[](lastTokenIndex);\r\n        for (uint256 i = 0; i < lastTokenIndex; i++) {\r\n            ret[i] = _tokenInfo[tokenByIndex(i)];\r\n        }\r\n        return ret;\r\n    }\r\n\r\n    function setPaymentSplitter(address paymentSplitter) public onlyOwner {\r\n        require(\r\n            address(paymentSplitter) != address(0) ||\r\n            address(paymentSplitter) != address(this),\r\n            \"Cannot update the payment splitter address\"\r\n        );\r\n        _paymentSplitter = paymentSplitter;\r\n    }\r\n\r\n    function requestTokenData(uint256 tokenId) public returns (bytes32) {\r\n        Chainlink.Request memory request = buildChainlinkRequest(\r\n            jobId,\r\n            address(this),\r\n            this.updateTokenData.selector\r\n        );\r\n\r\n        // Set the URL to perform the GET request on\r\n\r\n        request.add(\r\n            \"get\",\r\n            string(\r\n                abi.encodePacked(\r\n                    \"https://nftmarathon.xyz/api/oracle/sites/\",\r\n                    tokenId.toString(),\r\n                    \"/clicks/0\"\r\n                )\r\n            )\r\n        );\r\n\r\n        request.add(\"path\", \"clicks\");\r\n        bytes32 requestId = sendChainlinkRequestTo(oracle, request, fee);\r\n        _requestedData[requestId] = tokenId;\r\n\r\n        // Sends the request\r\n        return requestId;\r\n    }\r\n\r\n    function updateTokenData(bytes32 _requestId, uint256 _clicks)\r\n    public\r\n    recordChainlinkFulfillment(_requestId)\r\n    {\r\n        require(\r\n            _clicks > _tokenInfo[_requestedData[_requestId]].clicks,\r\n            \"Clicks should be greater than prev clicks\"\r\n        );\r\n        uint256 updatedNumber = _clicks -\r\n        _tokenInfo[_requestedData[_requestId]].clicks;\r\n        uint256 payment = (updatedNumber * DIV_MULTIPLIER_PER_CLICK);\r\n        if(_tokenInfo[_requestedData[_requestId]].amount < payment){\r\n            emit WebAmountExhausted(_requestedData[_requestId]);\r\n        }\r\n        require(_tokenInfo[_requestedData[_requestId]].amount < payment, \"Amount exhausted for the Web token\");\r\n        _tokenInfo[_requestedData[_requestId]].amount += payment;\r\n        _tokenInfo[_requestedData[_requestId]].clicks = _clicks;\r\n    }\r\n}\r\n",
  "sourcePath": "C:\\git2021\\nftmarathon\\src\\smart-contract\\contracts\\WebBasedNFTs.sol",
  "compiler": {
    "name": "solc",
    "version": "0.8.0+commit.c7dfd78e.Emscripten.clang"
  },
  "schemaVersion": "3.4.3",
  "updatedAt": "2021-11-28T16:23:44.523Z",
  "networkType": "ethereum",
  "devdoc": {
    "kind": "dev",
    "methods": {
      "approve(address,uint256)": {
        "details": "See {IERC721-approve}."
      },
      "balanceOf(address)": {
        "details": "See {IERC721-balanceOf}."
      },
      "getApproved(uint256)": {
        "details": "See {IERC721-getApproved}."
      },
      "isApprovedForAll(address,address)": {
        "details": "See {IERC721-isApprovedForAll}."
      },
      "name()": {
        "details": "See {IERC721Metadata-name}."
      },
      "owner()": {
        "details": "Returns the address of the current owner."
      },
      "ownerOf(uint256)": {
        "details": "See {IERC721-ownerOf}."
      },
      "renounceOwnership()": {
        "details": "Leaves the contract without owner. It will not be possible to call `onlyOwner` functions anymore. Can only be called by the current owner. NOTE: Renouncing ownership will leave the contract without an owner, thereby removing any functionality that is only available to the owner."
      },
      "safeTransferFrom(address,address,uint256)": {
        "details": "See {IERC721-safeTransferFrom}."
      },
      "safeTransferFrom(address,address,uint256,bytes)": {
        "details": "See {IERC721-safeTransferFrom}."
      },
      "setApprovalForAll(address,bool)": {
        "details": "See {IERC721-setApprovalForAll}."
      },
      "supportsInterface(bytes4)": {
        "details": "See {IERC165-supportsInterface}."
      },
      "symbol()": {
        "details": "See {IERC721Metadata-symbol}."
      },
      "tokenByIndex(uint256)": {
        "details": "See {IERC721Enumerable-tokenByIndex}."
      },
      "tokenOfOwnerByIndex(address,uint256)": {
        "details": "See {IERC721Enumerable-tokenOfOwnerByIndex}."
      },
      "tokenURI(uint256)": {
        "details": "See {IERC721Metadata-tokenURI}."
      },
      "totalSupply()": {
        "details": "See {IERC721Enumerable-totalSupply}."
      },
      "transferFrom(address,address,uint256)": {
        "details": "See {IERC721-transferFrom}."
      },
      "transferOwnership(address)": {
        "details": "Transfers ownership of the contract to a new account (`newOwner`). Can only be called by the current owner."
      }
    },
    "version": 1
  },
  "userdoc": {
    "kind": "user",
    "methods": {},
    "version": 1
  }
}